:10000000FDC0000021C100001FC100001DC1000093
:100010001BC1000019C1000017C1000015C100007C
:1000200013C1000011C100000FC100000DC100008C
:100030000BC1000009C100000C94A81705C1000005
:1000400003C1000001C10000FFC00000FDC00000AE
:100050000C94DB20F9C000000C941E23F5C00000B6
:10006000F3C00000F1C00000EFC00000EDC00000D0
:100070000C943B27E9C00000E7C00000E5C0000089
:10008000E3C00000E1C00000DFC00000DDC00000F0
:10009000DBC00000D9C00000D7C00000D5C0000000
:1000A000D3C00000D1C00000CFC000000C94CE1619
:1000B000CBC00000C9C00000C7C000000C944617A8
:1000C000C3C000000C947517BFC00000BDC0000085
:1000D000BBC00000B9C00000B7C00000B5C0000040
:1000E000B3C00000B1C00000AFC00000ADC0000050
:1000F000ABC00000A9C00000A7C00000A5C0000060
:100100000C94B616A1C000009FC000009DC0000066
:100110009BC0000099C0000097C0000095C000007F
:1001200093C0000091C000008FC000008DC000008F
:100130008BC000000C94881787C0000085C00000A9
:1001400083C0000081C000007FC000007DC00000AF
:100150007BC0000079C0000077C0000075C00000BF
:1001600073C0000071C000006FC000006DC00000CF
:100170006BC0000069C0000067C0000065C00000DF
:1001800063C0000061C000000C9492255DC00000B7
:100190005BC0000059C0000057C0000055C00000FF
:1001A0000C94E91651C000004FC000004DC0000083
:1001B0000C94041749C000000C94331745C000008C
:1001C00043C0000041C000003FC000003DC000002F
:1001D0003BC0000039C0000037C000000C946A2604
:1001E0000C94362531C000002FC000002DC0000047
:1001F0002BC0000029C0000027C0000011241FBE32
:10020000CFEFCDBFDFE3DEBF00E00CBF18BE19BEED
:100210001ABE1BBE13E2A0E0B0E2EAEBF0E500E09C
:100220000BBF02C007900D92AE31B107D9F71BBECC
:100230002EE3AEE1B3E201C01D92A235B207E1F7B1
:100240000E94C8170C945B28DBCE8F92AF92BF92AE
:10025000CF92DF92EF920F938BEC92E29F938F936A
:100260008FE4882E98E7A92EB12C27EBC22E23E22B
:10027000D22EE12C04E022E042E061E080EC94E048
:100280000E94731F0F900F900F91EF90DF90CF900F
:10029000BF90AF908F9008959F92AF92BF92CF92F0
:1002A000DF92EF92FF920F931F93CF93DF9300D0D3
:1002B000CDB7DEB719821A821B8280E09BE00E94D4
:1002C0006C1C00EA16E0BB24B394F801B68280E00F
:1002D0009AE00E946C1C30E8E32E36E0F32EF70122
:1002E000B68280E099E00E946C1C40E6C42E46E095
:1002F000D42EF601B68280E098E00E946C1CE0E407
:10030000F6E0B682E0E2F6E050E4952E958280E2D7
:10031000858362EAA62EB12C81E8F5018083BE01B7
:100320006F5F7F4FCB010E94DA1787E8F50180836A
:10033000F6019682F7019682F801968280E8F6012E
:100340008683F7018683F80186832396CDBFDEBFBF
:10035000DF91CF911F910F91FF90EF90DF90CF90A1
:10036000BF90AF909F9008950E9405160E94D117EC
:10037000E0E0F3E093E8908785E88187E0E2F3E04E
:100380009087818780E4818312828DE0808380E181
:1003900090E00C94571D1092B9231092BA2310923A
:1003A000BB231092BC231092BD231092BE23109247
:1003B000BF231092C0231092C1231092C223109227
:1003C000C3231092C4231092C5231092C923109204
:1003D000CA2388E390E08093CB239093CC2384EFCF
:1003E00091E08093CD239093CE238093CF2390935D
:1003F000D0238093D1239093D2232FE030E0209319
:10040000D3233093D4232093D5233093D623209322
:10041000D7233093D8238093D9239093DA238093E2
:10042000DB239093DC238093DD239093DE23809362
:10043000DF239093E0238AEF90E08093E123909371
:10044000E2238093E3239093E4238093E523909326
:10045000E6238093E7239093E82388EE93E080934C
:10046000E9239093EA2380ED97E08093EB23909328
:10047000EC2388EB9BE08093ED239093EE2380EABE
:100480009FE08093EF239093F02382E38093F12306
:100490008093F2238093F3238093F4231092F52327
:1004A0001092F6238FEF8093F7231092F823109287
:1004B000F9231092FA231092FB238093FC2380935C
:1004C000FD231092FE231092FF231092002410921D
:1004D0000124809302248AE08093032480930424DF
:1004E0008EE180930524809306248FE18093072476
:1004F000109208241092092410920A2410920B24BE
:1005000010920C248EE190E080931724909318248D
:1005100080931A2490931B2420E23EE4209320240D
:10052000309321248CED95E0809322249093232412
:1005300020932424309325248093262490932724E9
:100540000895CF93DF9300D0CDB7DEB71092A823E4
:100550001092A9231092AA231092AB231092AC23DD
:100560001092AD231092AE231092AF231092B023BD
:100570001092B1231092B2231092B3231092B4239D
:100580001092B5231092B6238091BF239091C0237F
:1005900089839A83CE0101960E94060F80910324DD
:1005A0008B83CE01039624D5809104248B83CE01C6
:1005B000039655D58091E9239091EA2389839A8304
:1005C000CE010196BAD68091EB239091EC238983DA
:1005D0009A83CE0101960FD78091ED239091EE235F
:1005E00089839A83CE01019664D78091EF239091FD
:1005F000F02389839A83CE010196B9D78091F523A0
:100600008B83CE0103960E94150B80910C248B8363
:10061000CE0103960E949D0C2396CDBFDEBFDF91D5
:10062000CF910895089508950895089508958091AB
:100630001E2391E0980F90931E2380FF089580E081
:1006400090E00E94721D97FD19C08093C72390937C
:10065000C82380910C2482FF09C080916009909189
:10066000610990588093C9239093CA2380910724ED
:1006700082FFE4CF61E08CE20C94E2211092C72368
:100680001092C823E6CF089510921E23089540913A
:1006900022235091212380918A2390918B230097CC
:1006A00041F0019780938A2390938B23892B09F43F
:1006B00015C180918C2390918D23009741F0019773
:1006C00080938C2390938D23892B09F403C180910F
:1006D0008E2390918F23009741F0019780938E2372
:1006E00090938F23892B09F4F1C0809190239091EE
:1006F0009123009741F00197809390239093912349
:10070000892B09F4DFC08091922390919323009765
:1007100041F001978093922390939323892B09F4BE
:10072000CDC08091942390919523009741F001973B
:100730008093942390939523892B09F4BBC08091D7
:10074000962390919723009741F0019780939623E9
:1007500090939723892B09F4A9C0809198239091B5
:100760009923009741F001978093982390939923C0
:10077000892B09F497C080919A2390919B2300972D
:1007800041F0019780939A2390939B23892B09F43E
:1007900085C0842F20919C2330919D232115310504
:1007A00021F4481799F0652F0FC02150310920938B
:1007B0009C2330939D23232BA1F7109221234813D0
:1007C00002C0552319F060E00E94061480919E2318
:1007D00090919F23009741F0019780939E239093DF
:1007E0009F23892B09F44BC08091A0239091A123D2
:1007F000009739F001978093A0239093A123892B30
:1008000081F18091A2239091A323009739F0019761
:100810008093A2239093A323892BA9F08091A423F2
:100820009091A523009771F001978093A423909352
:10083000A523892B39F481E0809346068091AB2370
:10084000811150C0089581E0809366068091AA23AB
:10085000882321F31092AA2380E099E00E946C1C67
:10086000DDCF81E0809386068091A923882349F219
:100870001092A92380E09AE00E946C1CC2CF81E014
:100880008093A6068091A823882309F4ADCF109207
:10089000A82380E09BE00E946C1CA6CF109222232C
:1008A00080E078CF80E28093250665CF80E4809356
:1008B000250653CF80E88093A60641CF80E8809339
:1008C00086062FCF80E8809366061DCF80E4809354
:1008D000A6060BCF80E480938606F9CE80E4809351
:1008E0006606E7CE1092AB2380E098E00C946C1C77
:1008F000089508950895089508950895089590EE2F
:10090000980F9F3440F490E08097FC01E858FD4D2B
:100910002081261711F080E00895FC01EE0FFF1FE3
:10092000E256FF4D0190F081E02D199581E0089588
:1009300090EE980F9F3448F4E82FF0E0B097DF0175
:10094000A858BD4D8C91861711F080E00895EE0FE8
:10095000FF1FDF01A652BE4D8D919C918217930718
:10096000A1F7E050F04E0190F081E02DCA011994FA
:1009700080916806829581708093B7239091880654
:1009800094FF0DC092E0892B8093B7239091A80625
:1009900094FD0DC090E0892B8093B723089590E0DB
:1009A000892B8093B7239091A80694FFF3CF94E00E
:1009B000892B8093B723089580E008950895FC0162
:1009C00080818093B82381E0089508950895089563
:1009D0002091680626FB882780F990E08093BF234A
:1009E0009093C0232091880626FFB0C022E030E01B
:1009F000822B932B8093BF239093C0232091A80632
:100A000026FFBCC024E030E0282B392B2093BF23E5
:100A10003093C02380916806992787FD9095882799
:100A2000990F881F9927880F991F880F991F880F82
:100A3000991F822B932B8093BF239093C0232091E7
:100A40008806332727FD30952227330F221F3327AF
:100A500022953295307F3227207F3227282B392B61
:100A60002093BF233093C0238091A806992787FD48
:100A700090958827990F881F9927880F991F82952D
:100A80009295907F9827807F9827822B932B809335
:100A9000BF239093C0232091280626FF6CC020E03E
:100AA00030E0822B932B8093BF239093C02320911F
:100AB000280625FF5DC020E030E0822B932B20919B
:100AC0002223222309F451C020E031E0822B932B12
:100AD00020912123222309F445C020E032E0822B1B
:100AE000932B8093BF239093C0232091A80620FFCF
:100AF00036C020E034E0822B932B8093BF23909369
:100B0000C0232091880620FF27C020E038E0822BF8
:100B1000932B8093BF239093C0232091680620FFDE
:100B200018C020E030E1822B932B8093BF23909359
:100B3000C0232091480620FD24C020E030E0822B15
:100B4000932B8093BF239093C023089520E030E03F
:100B50004FCF20E030E0E7CF20E030E0D8CF20E0FA
:100B600030E0C9CF20E030E0BACF20E030E0AECFB7
:100B700020E830E0A2CF20E430E093CF20E030E066
:100B800043CF20E030E2822B932B8093BF239093BE
:100B9000C02308950895FC0180818093C12381E0E2
:100BA00008950895FC0180818093C22381E0089517
:100BB0000895FC0180818093C32381E00895089506
:100BC000FC0180818093C42381E008950895FC0195
:100BD00080818093C52381E008950895FC01808180
:100BE0008093C62381E008950895FC01228133811A
:100BF0002093C9233093CA232091B623222339F0AE
:100C0000828193819058809360099093610981E07B
:100C100008950895FC01808191818093CB23909366
:100C2000CC2381E008950895FC0180819181009793
:100C300031F08093CD239093CE2381E0089580E01E
:100C400008950895FC0180819181009731F080938F
:100C5000CF239093D02381E0089580E008950895F4
:100C6000FC0180819181009731F08093D123909392
:100C7000D22381E0089580E008950895FC018081E9
:100C80009181009731F08093D3239093D42381E016
:100C9000089580E008950895FC0180819181009776
:100CA00031F08093D5239093D62381E0089580E09E
:100CB00008950895FC0180819181009731F080931F
:100CC000D7239093D82381E0089580E00895089574
:100CD000FC0180819181009731F08093D92390931A
:100CE000DA2381E0089580E008950895FC01808171
:100CF0009181009731F08093DB239093DC2381E096
:100D0000089580E008950895FC0180819181009705
:100D100031F08093DD239093DE2381E0089580E01D
:100D200008950895FC0180819181009731F08093AE
:100D3000DF239093E02381E0089580E008950895F3
:100D4000FC0180819181009731F08093E1239093A1
:100D5000E22381E0089580E008950895FC018081F8
:100D60009181009731F08093E3239093E42381E015
:100D7000089580E008950895FC0180819181009795
:100D800031F08093E5239093E62381E0089580E09D
:100D900008950895FC0180819181009731F080933E
:100DA000E7239093E82381E0089580E00895089573
:100DB0000895089508950895CF92DF92EF92FF92DB
:100DC000CF93FC01C0818FEF8C0F833698F56C2F89
:100DD00070E080E090E00E94521A20E030E048ECA1
:100DE00052E40E94BC196B017C0160913724709120
:100DF000382480E090E00E94501A9B01AC01C701AA
:100E0000B6010E94DE1A20E030E040E05FE30E947D
:100E100058190E94241A60933F247093402481E063
:100E200080932F24C093F123CF91FF90EF90DF9018
:100E3000CF90089580E0CF91FF90EF90DF90CF901A
:100E400008950895CF92DF92EF92FF92CF93FC0125
:100E5000C0818FEF8C0F833698F56C2F70E080E0A7
:100E600090E00E94521A20E030E048EC52E40E94E8
:100E7000BC196B017C016091392470913A2480E0A7
:100E800090E00E94501A9B01AC01C701B6010E947C
:100E9000DE1A20E030E040E05FE30E9458190E9433
:100EA000241A609341247093422481E0809330247B
:100EB000C093F223CF91FF90EF90DF90CF900895F1
:100EC00080E0CF91FF90EF90DF90CF90089508954C
:100ED000CF92DF92EF92FF92CF93FC01C0818FEF10
:100EE0008C0F833698F56C2F70E080E090E00E94C4
:100EF000521A20E030E048EC52E40E94BC196B0129
:100F00007C0160913B2470913C2480E090E00E9441
:100F1000501A9B01AC01C701B6010E94DE1A20E005
:100F200030E040E05FE30E9458190E94241A609369
:100F300043247093442481E080933124C093F323AD
:100F4000CF91FF90EF90DF90CF90089580E0CF9108
:100F5000FF90EF90DF90CF9008950895CF92DF92A9
:100F6000EF92FF92CF93FC01C0818FEF8C0F8336FD
:100F700098F56C2F70E080E090E00E94521A20E01B
:100F800030E048EC52E40E94BC196B017C01609196
:100F90003D2470913E2480E090E00E94501A9B0115
:100FA000AC01C701B6010E94DE1A20E030E040E04B
:100FB0005FE30E9458190E94241A6093452470939D
:100FC000462481E080933224C093F423CF91FF9094
:100FD000EF90DF90CF90089580E0CF91FF90EF9059
:100FE000DF90CF9008950895089508950895089585
:100FF000CF93FC01C0818FEF8C0F843628F5809150
:1010000005248C1708F16C2F70E080E090E00E94BE
:10101000501A20E030E048EC52E40E94BC1920E075
:1010200030E040E855E40E94DE1A0E94241A61155F
:10103000F0E17F0760F460933A0370933B03C09341
:10104000032481E0CF91089580E0CF9108958FEF40
:101050009FE080933A0390933B03F1CF0895CF93A1
:10106000FC01C0818FEF8C0F843628F58091062417
:101070008C1708F16C2F70E080E090E00E94501A0D
:1010800020E030E048EC52E40E94BC1920E030E05F
:1010900040E855E40E94DE1A0E94241A6115F0E12E
:1010A0007F0760F46093380370933903C09304247E
:1010B00081E0CF91089580E0CF9108958FEF9FE078
:1010C0008093380390933903F1CF0895FC01808118
:1010D0009EEF980F933620F48093052481E00895C5
:1010E00080E008950895FC0180819EEF980F93366B
:1010F00020F48093062481E0089580E00895089507
:10110000FC0180818093072481E008950895FC010B
:10111000808180FF04C09091AC2391110DC081FFAC
:1011200007C09091AD23992319F091E090931F236C
:101130008093092481E0089591E090932023EFCFDC
:10114000089510920C248091B623882319F084E02E
:1011500080930C240895089581E00895089581E016
:101160000895089581E00895089581E0089508950F
:1011700081E00895089581E00895089581E008953B
:10118000089581E00895089581E00895089580E02C
:1011900008950895FC01808191819C0122503109BC
:1011A0002735324030F4809317249093182481E03F
:1011B000089580E00895089580E008950895FC0161
:1011C000808191819C01225031092735324030F4D1
:1011D00080931A2490931B2481E0089580E0089561
:1011E000089581E00895089581E00895089581E0CB
:1011F0000895089581E008950895FC01808191810A
:101200009C01225031092D3F3F4F98F42091B22389
:10121000222349F09C0136952795215031092093CE
:10122000260930932709809320249093212481E07C
:10123000089580E008950895FC01808191819C01CA
:1012400026503109253F3F4F98F42091B2232223A5
:1012500049F09C01369527952150310920932809A2
:1012600030932909809322249093232481E00895C8
:1012700080E008950895FC01808191819C012250B5
:1012800031092D3F3F4F98F42091B323222349F099
:101290009C013695279521503109209326083093DB
:1012A0002708809324249093252481E0089580E0EA
:1012B00008950895FC01808191819C012650310997
:1012C000253F3F4F98F42091B323222349F09C01FE
:1012D0003695279521503109209328083093290805
:1012E000809326249093272481E0089580E0089538
:1012F000089581E00895089581E00895089581E0BA
:101300000895089581E008950895FC01208122FF49
:101310000AC08091B623882331F080E090E8809362
:1013200060099093610920932C2481E00895089529
:1013300081E00895089581E00895CF92DF92EF92C1
:10134000FF920F931F93CF93DF93FC01C081D18154
:10135000CE0101978031974250F080E0DF91CF912C
:101360001F910F91FF90EF90DF90CF900895BE01F5
:1013700080E090E00E94501A9B01AC0167E3E62EEA
:1013800064E2F62E03E314E260E078E488EE91E094
:101390000E94711C6091F12370E080E090E00E9457
:1013A000521A20E030E048EC52E40E94BC196B0174
:1013B0007C01609137247091382480E090E00E9495
:1013C000501A9B01AC01C701B6010E94DE1A20E051
:1013D00030E040E05FE30E9458190E94241A6093B5
:1013E0003F247093402481E080932F24C093E9230D
:1013F000D093EA23B3CFCF92DF92EF92FF920F9375
:101400001F93CF93DF93FC01C081D181CE0101975F
:101410008031974250F080E0DF91CF911F910F9182
:10142000FF90EF90DF90CF900895BE0180E090E0B4
:101430000E94501A9B01AC0179E3E72E74E2F72E6B
:1014400004E314E260E078E488EE91E00E94711C0D
:101450006091F22370E080E090E00E94521A20E058
:1014600030E048EC52E40E94BC196B017C016091B1
:10147000392470913A2480E090E00E94501A9B0138
:10148000AC01C701B6010E94DE1A20E030E040E066
:101490005FE30E9458190E94241A609341247093BC
:1014A000422481E080933024C093EB23D093EC233B
:1014B000B3CFCF92DF92EF92FF920F931F93CF9310
:1014C000DF93FC01C081D181CE0101978031974229
:1014D00050F080E0DF91CF911F910F91FF90EF903E
:1014E000DF90CF900895BE0180E090E00E94501AF6
:1014F0009B01AC01EBE3EE2EE4E2FE2E05E314E2E9
:1015000060E078E488EE91E00E94711C6091F32322
:1015100070E080E090E00E94521A20E030E048EC59
:1015200052E40E94BC196B017C0160913B247091D4
:101530003C2480E090E00E94501A9B01AC01C7015E
:10154000B6010E94DE1A20E030E040E05FE30E9436
:1015500058190E94241A609343247093442481E014
:1015600080933124C093ED23D093EE23B3CFCF9259
:10157000DF92EF92FF920F931F93CF93DF93FC01C3
:10158000C081D181CE0101978031974250F080E037
:10159000DF91CF911F910F91FF90EF90DF90CF904F
:1015A0000895BE0180E090E00E94501A9B01AC01BA
:1015B000FDE3EF2EF4E2FF2E06E314E260E078E4B0
:1015C00088EE91E00E94711C6091F42370E080E04D
:1015D00090E00E94521A20E030E048EC52E40E9471
:1015E000BC196B017C0160913D2470913E2480E028
:1015F00090E00E94501A9B01AC01C701B6010E9405
:10160000DE1A20E030E040E05FE30E9458190E94BB
:10161000241A609345247093462481E080933224F9
:10162000C093EF23D093F023B3CFEF920F93CF93D8
:10163000FC01C081C0FF05C08091A823882309F464
:1016400048C0C1FF05C08091A923882309F468C060
:10165000C2FF05C08091AA23882309F488C0C3FF74
:1016600004C08091AB23882339F0C093F52381E037
:10167000CF910F91EF900895209145243091462409
:1016800040913D2450913E24E12C01E060913624AC
:1016900080E098E00E94581C1092322481E08093F0
:1016A000AB23809345068091CB239091CC2395FF6B
:1016B000DCCF8091E7239091E82301968093A423C7
:1016C0009093A523C093F52381E0CF910F91EF90E4
:1016D000089520913F243091402440913724509127
:1016E0003824E12C01E06091332480E09BE00E94EB
:1016F000581C10922F2481E08093A8238093A50684
:101700008091CB239091CC2392FF9BCF8091E123BA
:101710009091E223019680939E2390939F2391CFF3
:1017200020914124309142244091392450913A240F
:10173000E12C01E06091342480E09AE00E94581C82
:101740001092302481E08093A923809385068091B4
:10175000CB239091CC2393FF7BCF8091E323909177
:10176000E42301968093A0239093A12371CF20912D
:1017700043243091442440913B2450913C24E12C5B
:1017800001E06091352480E099E00E94581C10929D
:10179000312481E08093AA23809365068091CB2336
:1017A0009091CC2394FF5BCF8091E5239091E62329
:1017B00001968093A2239093A32351CFEF920F938E
:1017C000CF93FC01C081C2FF04C08091B223882363
:1017D00051F1C3FF04C08091B323882339F0C09333
:1017E0000A2481E0CF910F91EF90089581E08093DA
:1017F000B3232091262430912724369527954091B4
:1018000024245091252456954795E12C00E065E06D
:1018100080E098E00E94581CC0930A2481E0CF9198
:101820000F91EF90089581E08093B22320912224BC
:1018300030912324369527954091202450912124DE
:1018400056954795E12C00E065E080E099E00E9424
:10185000581CBFCFCF93FC01C081C0FF04C0809152
:10186000A823811130C0C1FF04C08091A923811138
:1018700034C0C2FF04C08091AA2381111AC0C3FFE3
:1018800004C08091AB2381110AC08C2F80958F708A
:101890008093F523C093F62381E0CF91089581E0F2
:1018A0008093460680E098E00E946C1C1092AB2367
:1018B000ECCF81E08093660680E099E00E946C1C8A
:1018C0001092AA23DCCF81E08093A60680E09BE003
:1018D0000E946C1C1092A823C6CF81E080938606DC
:1018E00080E09AE00E946C1C1092A923C2CFCF9393
:1018F000FC01C081C2FF04C08091B223811116C0D7
:10190000C3FF04C08091B323811105C0C0930B2491
:1019100081E0CF9108951092B32380E098E00E9477
:101920006C1CC0930B2481E0CF9108951092B223D8
:1019300080E099E00E946C1CE3CF0F93CF93DF937C
:10194000FC01C0818091B623C2FF09C0882351F1F8
:10195000C0930C2481E0DF91CF910F9108958823EB
:10196000B9F31092B623109240098CE08093490994
:1019700020E048E164E080EA96E00E94F51B00E088
:1019800020E140E061E080EA96E00E94221C109293
:10199000C9231092CA23C0930C2481E0DF91CF9118
:1019A0000F910895D1E0D093B6238091A9068C7F42
:1019B0008093A9068091A9068C7F8093A90623E0D5
:1019C00040E064E080EA96E00E94F51B23E040E0FE
:1019D00065E080EA96E00E94F51B8CE78093800129
:1019E00089E080938801109240098CE08093490936
:1019F00088E6809343098FEF9FEF80936609909369
:101A0000670980E090E88093600990936109D09322
:101A10004009C0930C2481E0DF91CF910F9108958C
:101A20001092F5238091A823882301F181E080930F
:101A3000F52389E09DE025E06BE05FE047E073E09F
:101A40003091A923332329F07093F523862F952F06
:101A5000242F3091AA23332319F02093F523892FC3
:101A60009091AB2391118093F523089588E09CE039
:101A700024E06AE05EE046E072E0E2CF10920824E3
:101A80008091AC23882351F081E08093082493E077
:101A90008091AD23811190930824089592E0F8CFAE
:101AA00010920A248091B223882351F084E080931D
:101AB0000A249CE08091B323811190930A24089515
:101AC00098E0F8CF1F93CF93DF9300D000D0CDB72D
:101AD000DEB7FC0181818093F72380818093F82316
:101AE00082818093F92321812093FD23908190931B
:101AF000FE2382818093FF23309121234091222372
:101B00001C821D821E8219821A821B82413031F191
:101B1000313049F4809100248983809101248A83A3
:101B2000809102248B8383E88093A2001091A30B01
:101B30001092A30BBE016F5F7F4FCE0104960E94EF
:101B4000DA171093A30B87E88093A20081E0269612
:101B5000CDBFDEBFDF91CF911F9108952C839D8370
:101B60008E83D6CF1F93CF93DF9300D000D0CDB715
:101B7000DEB7FC0181818093FA2380818093FB236F
:101B800082818093FC232181209300249081909373
:101B900001248281809302243091212340912223C9
:101BA0001C821D821E8219821A821B82413001F121
:101BB000313019F429839A838B8383E88093A200C0
:101BC0001091A30B1092A30BBE016F5F7F4FCE014C
:101BD00004960E94DA171093A30B87E88093A20063
:101BE00081E02696CDBFDEBFDF91CF911F91089592
:101BF0004091FD234C834091FE234D834091FF2370
:101C00004E83D6CF1F93CF93DF9300D000D0CDB7B4
:101C1000DEB7FC0181818093F72380818093F823D4
:101C200082818093F92384818093FA238381809336
:101C3000FB2385818093FC2351815093FD234081B8
:101C40004093FE2332813093FF232481209300248C
:101C500093819093012485818093022460912123B4
:101C6000709122231C821D821E8219821A821B827D
:101C7000713001F1613019F429839A838B8383E8F1
:101C80008093A2001091A30B1092A30BBE016F5F73
:101C90007F4FCE0104960E94DA171093A30B87E8BA
:101CA0008093A20081E02696CDBFDEBFDF91CF9169
:101CB0001F9108955C834D833E83DCCFFF920F9389
:101CC0001F93CF93DF9300D000D0CDB7DEB7FC01D8
:101CD0000081118100FF03C080E48093660601FF4C
:101CE00003C080E48093860602FF03C080E48093F3
:101CF000A60603FF03C080E88093660604FF03C0C6
:101D000080E88093860605FF03C080E88093A606DE
:101D100006FF03C080E48093250607FF03C080E22E
:101D20008093250610FD1092222311FD109221238D
:101D3000C80188279370892B19F1809121239091F4
:101D400022231C821D821E8219821A821B829130DC
:101D500009F44FC0813009F442C083E88093A200A7
:101D6000F090A30B1092A30BBE016F5F7F4FCE01CB
:101D700004960E94DA17F092A30B87E88093A200E2
:101D800012FF03C081E08093A60613FF03C081E029
:101D90008093860614FF03C081E08093660615FFDA
:101DA00003C081E080934606C801809590952091FC
:101DB000BF233091C023822393238093BF2390932A
:101DC000C0230093BB231093BC2381E02696CDBF94
:101DD000DEBFDF91CF911F910F91FF900895809109
:101DE00000248983809101248A83809102248B833B
:101DF000B4CF9091FD239C839091FE239D8390917D
:101E0000FF239E83813009F0A8CFE9CFFF920F9383
:101E10001F93CF93DF9300D000D0CDB7DEB7FC0186
:101E200000811181209122233091212380E400FF41
:101E300018C1809365068091CB2380FD89C180E421
:101E400001FF0CC1809385068091CB2381FD76C173
:101E500080E402FF00C18093A5068091CB2382FD20
:101E600063C180E803FFE5C0809365068091CB23C2
:101E700083FD50C180E804FFE1C080938506809116
:101E8000CB2384FD3DC180E805FFDDC08093A5061E
:101E90008091CB2385FD2AC180E406FFD9C08093C1
:101EA00026068091CB2386FD17C180E207FF8DC0F7
:101EB000809326068091CB2387FD04C110FF89C043
:101EC00081E0809322238091CB239091CC2390FFBB
:101ED000F7C08091DD239091DE23019680939A23B1
:101EE00090939B2341E011FD79C01092212380E063
:101EF000241709F488C01C821D821E8219821A824E
:101F00001B82413009F48BC0813049F48091002458
:101F10008983809101248A83809102248B8383E8C2
:101F20008093A200F090A30B1092A30BBE016F5FF1
:101F30007F4FCE0104960E94DA17F092A30B87E838
:101F40008093A20081E012FF98C08093A506809143
:101F5000CB239091CC2392FDA7C081E013FF8AC0D0
:101F6000809385068091CB239091CC2393FD92C0E2
:101F700081E014FF7CC0809365068091CB23909113
:101F8000CC2394FD7DC081E015FF6EC08093450693
:101F90008091CB239091CC2395FF09C08091E723BA
:101FA0009091E82301968093A4239093A523009316
:101FB000BF231093C02381E02696CDBFDEBFDF9103
:101FC000CF911F910F91FF9008958093250610FDEA
:101FD00077CF1092222340E011FF87CF81E08093DA
:101FE00021238091CB239091CC2391FF67C08091D6
:101FF000DF239091E023019680939C2390939D236F
:1020000081E0241378CF381709F49CCF1C821D82FD
:102010001E8219821A821B82413009F075CF90917D
:10202000FD239C839091FE239D839091FF239E83AB
:102030006BCF8093660680E804FD1FCF80938606F1
:1020400080E805FD23CF8093A60680E406FD27CF18
:10205000809325062ACF8093A60603CF8093860619
:10206000F7CE80936606EBCE80934606A0CF809392
:10207000660689CF809386067BCF8093A6066DCFB8
:102080008091E5239091E62301968093A22390937B
:10209000A32379CF8091E3239091E4230196809349
:1020A000A0239093A12364CF8091E1239091E22318
:1020B000019680939E2390939F234FCF81E018CF6A
:1020C00041E08ACF8091DB239091DC2301968093BD
:1020D000982390939923F2CE8091D9239091DA237B
:1020E00001968093962390939723DFCE8091D723F8
:1020F0009091D82301968093942390939523CCCEEE
:102100008091D5239091D62301968093922390932A
:102110009323B9CE8091D3239091D42301968093B9
:10212000902390939123A6CE8091D1239091D22396
:10213000019680938E2390938F2393CE8091CF230B
:102140009091D023019680938C2390938D2380CE01
:102150008091CD239091CE23019680938A239093F2
:102160008B236DCEFF920F931F93CF93DF9300D0FD
:1021700000D0CDB7DEB7FC010081118100FF07C0A0
:1021800080E4809365068091CB2380FD41C101FFEF
:1021900007C080E4809385068091CB2381FD2EC10A
:1021A00002FF07C080E48093A5068091CB2382FDC7
:1021B0001BC103FF07C080E8809365068091CB2395
:1021C00083FD08C104FF07C080E8809385068091E5
:1021D000CB2384FDF5C005FF07C080E88093A506EA
:1021E0008091CB2385FDE2C006FF07C080E4809389
:1021F00026068091CB2386FDCFC007FF07C080E273
:10220000809326068091CB2387FDBCC010FF09C0B8
:1022100081E0809322238091CB239091CC2390FD69
:10222000A7C011FF09C081E0809321238091CB23B7
:102230009091CC2391FD92C0C80188279370892B7F
:1022400011F180912123909122231C821D821E82F4
:1022500019821A821B82913009F4EEC0813009F490
:10226000E1C083E88093A200F090A30B1092A30B2F
:10227000BE016F5F7F4FCE0104969CD6F092A30BF8
:1022800087E88093A20012FF09C081E08093A50631
:102290008091CB239091CC2392FD56C013FF09C0AF
:1022A00081E0809385068091CB239091CC2393FD90
:1022B00041C014FF09C081E0809365068091CB2363
:1022C0009091CC2394FD2CC015FF12C081E0809327
:1022D00045068091CB239091CC2395FF09C0809136
:1022E000E7239091E82301968093A4239093A5235C
:1022F0008091BF239091C023802B912B8093BF238B
:102300009093C0230093B9231093BA2381E02696BB
:10231000CDBFDEBFDF91CF911F910F91FF90089548
:102320008091E5239091E62301968093A2239093D8
:10233000A323CACF8091E3239091E4230196809355
:10234000A0239093A123B5CF8091E1239091E22324
:10235000019680939E2390939F23A0CF8091DF23AB
:102360009091E023019680939C2390939D2364CFCA
:102370008091DD239091DE23019680939A239093A0
:102380009B234FCF8091DB239091DC230196809398
:102390009823909399233ACF8091D9239091DA236F
:1023A0000196809396239093972327CF8091D723EC
:1023B0009091D8230196809394239093952314CFE2
:1023C0008091D5239091D623019680939223909368
:1023D000932301CF8091D3239091D42301968093AE
:1023E000902390939123EECE8091D1239091D2238C
:1023F000019680938E2390938F23DBCE8091CF2301
:102400009091D023019680938C2390938D23C8CEF6
:102410008091CD239091CE23019680938A2390932F
:102420008B23B5CE809100248983809101248A83F7
:10243000809102248B8315CF9091FD239C839091F2
:10244000FE239D839091FF239E83813009F009CF65
:10245000E9CFFF920F931F93CF93DF9300D000D06B
:10246000CDB7DEB7FC010081118100FF07C080916C
:10247000680686FF2DC180E48093670601FF07C0D0
:102480008091880686FF13C180E48093870602FF4F
:1024900007C08091A80686FFF9C080E48093A70654
:1024A00003FF0BC08091680687FDA8C180E8809378
:1024B00065068091CB2383FD72C104FF0BC0809120
:1024C000880687FD9FC180E8809385068091CB2395
:1024D00084FD6FC105FF0BC08091A80687FD8AC1EE
:1024E00080E88093A5068091CB2385FD6CC106FF13
:1024F00007C08091280686FD33C180E480932706BB
:1025000007FF07C08091280685FD19C180E28093EE
:10251000270610FF07C080912223882309F4A3C057
:102520001092222311FF07C080912123882309F4F0
:1025300087C010922123C80188279370892B11F13D
:1025400080912123909122231C821D821E82198258
:102550001A821B82913009F440C1813009F411C103
:1025600083E88093A200F090A30B1092A30BBE010E
:102570006F5F7F4FCE0104961DD5F092A30B87E8C5
:102580008093A20012FF07C08091A80680FF45C07B
:1025900081E08093A70613FF07C08091880680FF23
:1025A000BBC081E08093870614FF07C08091680656
:1025B00080FF9FC081E08093670615FF16C0809161
:1025C000480680FDE8C081E0809345068091CB23DA
:1025D0009091CC2395FF09C08091E7239091E82347
:1025E00001968093A4239093A5238091BF2390917B
:1025F000C023802791278093BF239093C02300930B
:10260000BD231093BE2381E02696CDBFDEBFDF91B0
:10261000CF911F910F91FF90089581E08093A506BF
:102620008091CB239091CC2392FFB5CF8091E12371
:102630009091E223019680939E2390939F23ABCFAA
:1026400081E0809321238091CB239091CC2391FF33
:1026500072CF8091DF239091E023019680939C2399
:1026600090939D2368CF81E0809322238091CB2398
:102670009091CC2390FF56CF8091DD239091DE2363
:10268000019680939A2390939B234CCF80E4809370
:10269000A5068091CB2382FF03CF8091D123909117
:1026A000D223019680938E2390938F23F9CE80E4DA
:1026B000809385068091CB2381FFE9CE8091CF2343
:1026C0009091D023019680938C2390938D23DFCE1D
:1026D00080E4809365068091CB2380FFCFCE8091EC
:1026E000CD239091CE23019680938A2390938B23C0
:1026F000C5CE81E0809365068091CB239091CC2359
:1027000094FF5BCF8091E5239091E623019680931F
:10271000A2239093A32351CF81E0809385068091DB
:10272000CB239091CC2393FF3FCF8091E3239091D3
:10273000E42301968093A0239093A12335CF80E2D8
:10274000809326068091CB2387FFE3CE8091DB2305
:102750009091DC2301968093982390939923D9CE6E
:1027600080E4809326068091CB2386FFC9CE80919A
:10277000D9239091DA2301968093962390939723FF
:10278000BFCE809100248983809101248A83809127
:1027900002248B83E5CE81E08093470626CF80918B
:1027A000D3239091D42301968093902390939123E7
:1027B00084CE8091D5239091D62301968093922345
:1027C0009093932387CE8091D7239091D82301961D
:1027D00080939423909395238ACE9091FD239C839C
:1027E0009091FE239D839091FF239E83813009F079
:1027F000B7CEC7CF80E88093A70679CE80E88093D4
:1028000067065BCE80E88093870664CE1F93CF93E4
:10281000DF9300D000D0CDB7DEB71C821D821E82B0
:1028200019821A821B82813021F1613049F4809132
:1028300000248983809101248A83809102248B83E0
:1028400083E88093A2001091A30B1092A30BBE010A
:102850006F5F7F4FCE010496ADD31093A30B87E833
:102860008093A2002696CDBFDEBFDF91CF911F914E
:1028700008958091FD238C838091FE238D83809128
:10288000FF238E83D2CF8F929F92AF92BF92CF922F
:10289000DF92EF92FF920F93CF93DF93EC016830BA
:1028A0007105D8F16034710508F475C060387105A0
:1028B00008F452C06F3F710509F008F48BC0693508
:1028C00082E07807F0F46B01E12CF12C60E072E11A
:1028D0008AE790E0A70196010E94142849015A0155
:1028E00060E074E284EF90E0A70196010E94142852
:1028F000BA01A901EE24E39401E0940162E0CE0163
:10290000D7D7DF91CF910F91FF90EF90DF90CF90CD
:10291000BF90AF909F908F9008956B01E12CF12CA8
:1029200064E274EF80E090E0A70196010E94142811
:1029300049015A0168E478EE81E090E0A701960130
:102940000E941428BA01A901EE24E39401E0940145
:1029500066E0CE01ADD7D5CF6B01E12CF12C60E85C
:1029600074E88EE190E0A70196010E9414284901C5
:102970005A0160E079E08DE390E0A70196010E94A2
:102980001428BA01A901EE24E39401E0940164E063
:10299000CE018ED7B6CF6B01E12CF12C60E970ED42
:1029A00083E090E0A70196010E94142849015A0192
:1029B00060E271EA87E090E0A70196010E94142886
:1029C000BA01A901EE24E39401E0940165E0CE018F
:1029D0006FD797CF6B01E12CF12C60E079E08DE3AC
:1029E00090E0A70196010E94142849015A0160E075
:1029F00072E18AE790E0A70196010E941428BA01CB
:102A0000A901EE24E39401E0940163E0CE0150D7E4
:102A100078CF8F929F92AF92BF92CF92DF92EF9238
:102A2000FF920F93CF93FC01C081C0FF05C080913E
:102A3000AC23882309F45BC0C1FF04C08091AD239F
:102A4000882371F0C093082481E0CF910F91FF900B
:102A5000EF90DF90CF90BF90AF909F908F900895B0
:102A600081E0809386068AEA8A95F1F700C0C090DB
:102A70001A24D0901B24E8E0CE16D10408F449C0F3
:102A8000F0E4CF16D10408F463C080E8C816D1047E
:102A900008F47DC0EFEFCE16D10409F008F496C01B
:102AA000F9E5CF16F2E0DF06F0F4E12CF12C60E05E
:102AB00072E18AE790E0A70196010E94142849017B
:102AC0005A0160E074E284EF90E0A70196010E9451
:102AD0001428BA01A901EE24E39401E0940162E014
:102AE00080E09AE0E5D681E08093AD23ABCF81E032
:102AF0008093A606FAEAFA95F1F700C060911724D0
:102B00007091182480E09BE0BEDE81E08093AC23CE
:102B100093CFE12CF12C64E274EF80E090E0A70108
:102B200096010E94142849015A0168E478EE81E078
:102B300090E0A70196010E941428BA01A901EE2491
:102B4000E39401E0940166E080E09AE0B1D6CBCF57
:102B5000E12CF12C60E970ED83E090E0A701960193
:102B60000E94142849015A0160E271EA87E090E06E
:102B7000A70196010E941428BA01A901EE24E3944A
:102B800001E0940165E080E09AE092D6ACCFE12CC0
:102B9000F12C60E874E88EE190E0A70196010E94B4
:102BA000142849015A0160E079E08DE390E0A70123
:102BB00096010E941428BA01A901EE24E39401E0D1
:102BC000940164E080E09AE073D68DCFE12CF12C83
:102BD00060E079E08DE390E0A70196010E9414285F
:102BE00049015A0160E072E18AE790E0A70196018D
:102BF0000E941428BA01A901EE24E39401E0940193
:102C000063E080E09AE054D66ECF0F93CF93DF93CA
:102C100020E048E164E080E696E0E7D520E048E186
:102C200065E080E696E0E1D520E048E164E080E8F8
:102C300096E0DBD520E048E165E080E896E0D5D578
:102C400020E048E164E080EA96E0CFD520E048E16A
:102C500065E080EA96E0C9D500E020E140E061E06F
:102C600080E696E0EFD520E140E061E080E896E084
:102C7000E9D520E140E061E080EA96E0E3D521E09B
:102C800040E060E080E496E0C5D521E040E060E00F
:102C900080E696E0BFD521E040E060E080E896E085
:102CA000B9D521E040E060E080EA96E0B3D521E0CC
:102CB00040E066E080E296E0ADD521E040E065E0EE
:102CC00080E296E0A7D520E040E065E080E496E071
:102CD000A1D521E040E066E080E696E09BD521E0CA
:102CE00040E067E080E696E095D521E040E066E0D0
:102CF00080E896E08FD521E040E067E080E896E04C
:102D000089D521E040E066E080EA96E083D521E0C5
:102D100040E067E080EA96E07DD580E496E021E03F
:102D2000FC012683C0E6D6E02E83A0E8B6E0169626
:102D30002C93169760EA76E0FB01268320E236E0CA
:102D400040E4F901458350E25583FC0156834E83EC
:102D500080E88E8316964C93169716968C93FB01FB
:102D600046838683DF91CF910F9108952091B723F9
:102D7000922F9E7F9093B7238091680682958170F1
:102D8000892B8093B7239091072490FF06C02817C2
:102D900021F061E080E20E94E22118959091B72332
:102DA000892F8D7F8093B7232091880624FF02C04E
:102DB00022E001C020E0822B8093B72320910724DA
:102DC00020FF06C0981721F061E080E20E94E22116
:102DD00018959091B723892F8B7F8093B7232091EB
:102DE000A80624FF02C024E001C020E0822B8093CB
:102DF000B7232091072420FF06C0981721F061E037
:102E000080E20E94E22118958091A8238823D9F0BE
:102E100080912F248823B9F0809137249091382411
:102E200001978093260B9093270B80913F249091DC
:102E300040248093280B9093290B80913324809316
:102E4000000B10922F248091AC23882359F080919D
:102E5000072483FF07C081E08093162461E08CE59E
:102E60000E94E22118958091AC23882371F0809113
:102E70002023882351F01092202381E08093A6061E
:102E800080E09BE029D51092AC2318958091A9236E
:102E90008823D9F0809130248823B9F08091392497
:102EA00090913A2401978093260A9093270A809163
:102EB0004124909142248093280A9093290A80917A
:102EC00034248093000A109230248091AD2388230B
:102ED00059F08091072484FF07C081E08093192472
:102EE00061E08EE50E94E22118958091AD23882350
:102EF00071F080911F23882351F010921F2381E0ED
:102F00008093860680E09AE0E7D41092AD2318956E
:102F10008091AA238823D9F0809131248823B9F0A5
:102F200080913B2490913C240197809326099093B3
:102F300027098091432490914424809328099093F9
:102F40002909809135248093000910923124189525
:102F50008091AB238823D9F0809132248823B9F063
:102F600080913D2490913E24019780932608909370
:102F700027088091452490914624809328089093B7
:102F800029088091362480930008109232241895E5
:102F90000E9425018091A20087688093A200789406
:102FA000FFCFE0E4F6E080818062808380E280935E
:102FB00046060895FC01DB018081809347248181CE
:102FC000809348248281809349248C9180934A2461
:102FD00011968C91119780934B2412968C9180932B
:102FE0004C2496C00093450600000000000000003D
:102FF00000000000000000000093460600000000F2
:1030000000000000000000000000000000000000C0
:1030100000000000000000000000000000000000B0
:103020000000000000000000089500934506000025
:103030000000000000000000000000000000000090
:103040000000000000000000000000000000000080
:103050000000000000000000000000934606000091
:103060000000000000000000000000000000000060
:1030700000000000000000000000089500934506D5
:103080000000000000000000000000000000000040
:103090000093460600000000000000000000000051
:1030A0000000000000000000000000000000000020
:1030B0000000000000000000000000000000089573
:1030C0000093450600000000000000000000000022
:1030D00000000000000000000000000000000000F0
:1030E00000000000000000000000000000000000E0
:1030F00000934606000000000000000000000000F1
:103100000000000000000000000000000000089522
:103110000F930F9200E2E7E4F4E20080019007FED3
:1031200061DF07FC82DF06FE5DDF06FC7EDF05FE59
:1031300059DF05FC7ADF04FE55DF04FC76DF03FE71
:1031400051DF03FC72DF02FE4DDF02FC6EDF01FE89
:1031500049DF01FC6ADF00FE91DF00FCB1DF019076
:1031600007FE40DF07FC61DF06FE3CDF06FC5DDF9B
:1031700005FE38DF05FC59DF04FE34DF04FC55DFB3
:1031800003FE30DF03FC51DF02FE2CDF02FC4DDFCB
:1031900001FE28DF01FC49DF00FE70DF00FC90DF4C
:1031A000019007FE1FDF07FC40DF06FE1BDF06FC69
:1031B0003CDF05FE17DF05FC38DF04FE13DF04FCEF
:1031C00034DF03FE0FDF03FC30DF02FE0BDF02FC07
:1031D0002CDF01FE07DF01FC28DF00FE4FDF00FCD3
:1031E0006FDF019007FEFEDE07FC1FDF06FEFADE42
:1031F00006FC1BDF05FEF6DE05FC17DF04FEF2DE33
:1032000004FC13DF03FEEEDE03FC0FDF02FEEADE4A
:1032100002FC0BDF01FEE6DE01FC07DF00FE2EDF15
:1032200000FC4EDF019007FEDDDE07FCFEDE06FE41
:10323000D9DE06FCFADE05FED5DE05FCF6DE04FE70
:10324000D1DE04FCF2DE03FECDDE03FCEEDE02FE88
:10325000C9DE02FCEADE01FEC5DE01FCE6DE00FEA0
:103260000DDF00FC2DDF019007FEBCDE07FCDDDE7C
:1032700006FEB8DE06FCD9DE05FEB4DE05FCD5DEB2
:1032800004FEB0DE04FCD1DE03FEACDE03FCCDDECA
:1032900002FEA8DE02FCC9DE01FEA4DE01FCC5DEE2
:1032A00000FEECDE00FC0CDF0F900F9108955058EB
:1032B000BB27AA270ED048C139D130F03ED120F02B
:1032C00031F49F3F11F41EF42EC10EF4E095E7FB9C
:1032D00024C1E92F4AD180F3BA1762077307840724
:1032E000950718F071F49EF562C10EF4E0950B2E6F
:1032F000BA2FA02D0B01B90190010C01CA01A00148
:103300001124FF27591B99F0593F50F4503E68F1A2
:103310001A16F040A22F232F342F4427585FF3CFE3
:10332000469537952795A795F0405395C9F77EF4B4
:103330001F16BA0B620B730B840BBAF09150A1F0FD
:10334000FF0FBB1F661F771F881FC2F70EC0BA0F83
:10335000621F731F841F48F4879577956795B7950B
:10336000F7959E3F08F0B3CF9395880F08F0992703
:10337000EE0F9795879508950CD0E6C0DED040F00B
:10338000D5D030F021F45F3F19F0C7C0511110C102
:10339000CAC0EBD098F39923C9F35523B1F3951B19
:1033A000550BBB27AA2762177307840738F09F5F66
:1033B0005F4F220F331F441FAA1FA9F333D00E2ED5
:1033C0003AF0E0E830D091505040E695001CCAF742
:1033D00029D0FE2F27D0660F771F881FBB1F261707
:1033E00037074807AB07B0E809F0BB0B802DBF01DA
:1033F000FF2793585F4F2AF09E3F510568F08DC01C
:10340000D7C05F3FECF3983EDCF3869577956795E0
:10341000B795F7959F5FC9F7880F911D969587958A
:1034200097F90895E1E0660F771F881FBB1F6217A9
:1034300073078407BA0720F0621B730B840BBA0B67
:10344000EE1F88F7E095089598D088F09F5790F088
:10345000B92F9927B751A0F0D1F0660F771F881FB9
:10346000991F1AF0BA95C9F712C0B13081F09FD0F8
:10347000B1E008959CC0672F782F8827B85F39F096
:10348000B93FCCF3869577956795B395D9F73EF418
:1034900090958095709561957F4F8F4F9F4F0895C0
:1034A000E89409C097FB3EF49095809570956195DE
:1034B0007F4F8F4F9F4F9923A9F0F92F96E9BB2794
:1034C0009395F695879577956795B795F111F8CF10
:1034D000FAF4BB0F11F460FF1BC06F5F7F4F8F4F7B
:1034E0009F4F16C0882311F096E911C0772321F071
:1034F0009EE8872F762F05C0662371F096E8862F09
:1035000070E060E02AF09A95660F771F881FDAF75F
:10351000880F9695879597F9089597F99F6780E8A2
:1035200070E060E008959FEF80EC089500240A9415
:103530001616170618060906089500240A9412168E
:103540001306140605060895092E0394000C11F4C1
:10355000882352F0BB0F40F4BF2B11F460FF04C06E
:103560006F5F7F4F8F4F9F4F089557FD9058440FC7
:10357000551F59F05F3F71F04795880F97FB991FD2
:1035800061F09F3F79F0879508951216130614068F
:10359000551FF2CF4695F1DF08C01616170618061C
:1035A000991FF1CF86957105610508940895E894F7
:1035B000BB2766277727CB0197F908950BD0C4CF97
:1035C000B5DF28F0BADF18F0952309F0A6CFABCF0E
:1035D0001124EECFCADFA0F3959FD1F3950F50E0F1
:1035E000551F629FF001729FBB27F00DB11D639FB5
:1035F000AA27F00DB11DAA1F649F6627B00DA11D5B
:10360000661F829F2227B00DA11D621F739FB00D00
:10361000A11D621F839FA00D611D221F749F332770
:10362000A00D611D231F849F600D211D822F762F09
:103630006A2F11249F5750408AF0E1F088234AF006
:10364000EE0FFF1FBB1F661F771F881F9150504052
:10365000A9F79E3F510570F060CFAACF5F3FECF312
:10366000983EDCF3869577956795B795F795E7953E
:103670009F5FC1F7FE2B880F911D9695879597F94F
:103680000895222309F45BC030E23093520038E001
:10369000309350003091510033FFFCCF611538E476
:1036A000730738EE830731E0930709F482C0611590
:1036B00034E2730734EF8307910509F47CC0611588
:1036C00032E173073AE78307910509F44BC06115AE
:1036D00039E073073DE38307910509F46EC0603854
:1036E00034E873073EE18307910509F460C0603454
:1036F00032E473073FE08307910509F462C060324A
:1037000031EA730737E08307910509F458C060393F
:1037100030ED730733E08307910509F454C0683432
:1037200038EE730731E08307910509F44EC0643227
:10373000744F8105910509F04AC084E414C032E257
:10374000309352003AE0309350003091510031FFF5
:10375000FCCF3091510033FDA1CF3091510033FFA8
:10376000F8CF9CCF8CE098ED94BF222399F023E012
:103770002093400094BF80934100442329F088EDBA
:1037800084BF81E08093420088ED84BF81E0809314
:103790008000089521E02093400094BF8093410071
:1037A00094BF82E08093560020936000E6CF8CE1C6
:1037B000DACF80E0D8CF84E0D6CF84E1D4CF8CE2DA
:1037C000D2CF84E2D0CF84E3CECF8CE3CCCF80E0E5
:1037D000089588ED84BF81E080938000089588ED8E
:1037E00084BF83E080938000FFCFFC01308181E0C3
:1037F00090E0062E01C0880F0A94EAF78095832393
:1038000080837096E60FF11D8081422B807C482BCF
:1038100040830895FC01308181E090E0062E01C0D4
:10382000880F0A94EAF7382B30837096E60FF11D63
:103830008081807C842B8083211103C080818760FC
:10384000808308950F93FC013185842F90E0880FC9
:10385000991FA3E0B0E0082E01C0AA0F0A94EAF76E
:10386000A095A323082E01C0660F0A94EAF7A62BA1
:10387000A18741110FC00023A9F02287248581E090
:1038800090E0042E01C0880F0A94EAF7282B2487C1
:103890000F910895413091F7011108C08385822B63
:1038A0008387ECCF8285822B8287E8CF2387E6CF80
:1038B000EF920F93FC0110828CE0818741505109F7
:1038C00046A357A320A731A70683E78283E181831C
:1038D00060830F91EF900895FC0110822CE0218706
:1038E00008954F925F926F927F928F929F92AF92C4
:1038F000BF92EF92FF920F931F932B013C0149015E
:103900005A0120E030E0A901C501B4010E94D82786
:10391000882309F43EC0C301B201C2DDA5019401B0
:103920002BDD20E030E040E05FE3C2DC8DDD61159F
:10393000710521E082079105A0F421E0F8012083C0
:10394000F7016083718381E01F910F91FF90EF90E9
:10395000BF90AF909F908F907F906F905F904F90AF
:103960000895969587957795679561157105F1E0AE
:103970008F07910580F096958795779567956115E6
:103980007105F1E08F07910550F423E0F8012083E1
:10399000D7CF80E0D9CF22E0F8012083D1CF969510
:1039A00087957795679561157105F1E08F0791050A
:1039B00088F0A3E09695879577956795AA95D1F7B6
:1039C00061157105F1E08F07910540F425E0F801DC
:1039D0002083B6CF24E0F8012083B2CF9695879557
:1039E0007795679596958795779567956115710594
:1039F000F1E08F07910520F426E0F8012083A0CFA5
:103A00009695879577956795969587957795679518
:103A100061157105F1E08F07910508F0BACF27E035
:103A2000F80120838DCFFC0110828CE0818741500A
:103A3000510946A357A32683608308952091CF019F
:103A400027FDFCCF8093C0019093C1011092C20169
:103A500086E08093CA0188ED84BF81E08093CB012A
:103A60008091C40108952091CF0127FDFCCF2091C2
:103A7000CF0121FF08C026E32093CA0128ED24BF0F
:103A800021E02093CB0123E32093CA018093C0015E
:103A90009093C1011092C2016093C40185E38093A9
:103AA000CA0188ED84BF81E08093CB010895E1E7EE
:103AB000F0E090819D7F908391E090930002E1E09F
:103AC000F2E020E62083208120838093020285E0BB
:103AD0008093040290932002E2E2F2E0108280815F
:103AE00080830895880F880F880F8093210280912A
:103AF00020028068809320028091230280FFFCCF07
:103B000081E08093230280912402909125029F708E
:103B10002091C7223091C822821B930B0895FF92F7
:103B20000F931F93CF93DF938C01C7E0D0E0F12C6C
:103B300008C0F1100BC0CE0196DF2196C032D1052E
:103B400071F0F80161918F016111F3CF60E0CE0156
:103B50008ADFFF24F3942196C032D10591F7DF91DB
:103B6000CF911F910F91FF900895CF93962F8032A0
:103B700008F47FC0282F30E020523109F901E858BD
:103B8000FD4D5081220F331FF901E652FE4DC081D9
:103B9000F901E45CFE4D208131812093292330938B
:103BA0002A2390935024252F2F702C9FC02D112451
:103BB000EAE0EC0FE0935124809352242FEF2093FE
:103BC000532450615093542441116BC0809125239C
:103BD00090912623A0912723B091282380935524E8
:103BE00090935624A0935724B093582420912323D4
:103BF000309124232093592430935A248E2F90E01F
:103C00008E3F9105A4F52091292330912A2340E08D
:103C1000842F90E0F901E80FF91F5081FC01E55A6B
:103C2000FB4D50834F5F4C13F3CF209151242E5FF7
:103C300030E021503109121613060CF09EC080E0CE
:103C400090E040E050E0FC01E05BFB4D8081580FCC
:103C50004F5F842F90E082179307ACF3F901E05B8C
:103C6000FB4D50838091C922813009F46BC0CF9104
:103C700008958D30E0F7282F30E0F901E05FFC4D2A
:103C80005081220F331FF901EA50FD4DC081F90127
:103C9000E452FD4D208131812093292330932A2342
:103CA00080CF20914C0840913D2350913E2360915C
:103CB0003F237091402320FF21C04F5F5F4F6F4F24
:103CC0007F4F40935524509356246093572470930C
:103CD0005824209160083091610820935924309332
:103CE0005A24883009F08ACF933009F087CF109298
:103CF000592410925A24E091512480CF40935524A6
:103D00005093562460935724709358242091600850
:103D1000309161082093592430935A24F0912E2336
:103D2000F03DF9F62F303105E0F64F5F5F4F6F4FF2
:103D30007F4F40935524509356246093572470939B
:103D40005824CFCF83E88093A200C091A30B909119
:103D5000A30B9C7F9093A30B609151246E5F80E531
:103D600094E22FD79091A30B8C2F8370892B809393
:103D7000A30B87E88093A2007ACF50E06FCFCF9358
:103D8000E091533D2E2F30E024303105BCF090E01F
:103D900020E030E0F901E95AF24C4081F901E35AA0
:103DA000F24C40839F5F292F30E0E091533D4E2F2E
:103DB00050E0435051092417350764F38093523D76
:103DC000EA5FE093533D8091563D80618093563D7C
:103DD00080914C0880FF40C080913D2390913E230C
:103DE000A0913F23B09140230196A11DB11D809366
:103DF000573D9093583DA093593DB0935A3D8091C3
:103E000060089091610880935B3D90935C3DF0E089
:103E1000ED5AF24C10826091533D40E0262F30E085
:103E200080E090E0F901ED5AF24CDC01AE5AB24C60
:103E300020818C91280F20834F5F6091533D262F66
:103E400030E0842F90E02817390764F78091C92269
:103E5000813079F1CF91089580913D2390913E2357
:103E6000A0913F23B09140238093573D9093583DBC
:103E7000A093593DB0935A3D20916008309161085C
:103E800020935B3D30935C3D40912E23403D09F0F3
:103E9000BECF2F30310508F0BACF0196A11DB11D5C
:103EA0008093573D9093583DA093593DB0935A3D10
:103EB000AECF83E88093A200C091A30B9091A30B97
:103EC0009C7F9093A30B6E5F82E59DE37AD69091E1
:103ED000A30B8C2F8370892B8093A30B87E880938F
:103EE000A200CF9108953F924F925F926F927F927E
:103EF0008F929F92AF92BF92CF92DF92EF92FF92FA
:103F00000F931F93CF93DF93CDB7DEB73C01962E6F
:103F1000142FF22E4D885E885CDC21E041E060E0E9
:103F200078E488EE91E0ADDB81E080934800609218
:103F30003423709235239092362310933723E092E6
:103F400038238093392386E080933A23F0923B23F1
:103F500000933C2310923D2310923E2310923F2366
:103F600010924023109241231092422382E090E06D
:103F700065DD382E83E090E061DD982E8FEF981696
:103F800009F4B7C0F31409F489C06FED80E090E044
:103F90006ADD6F2D82E090E066DD61E083E090E015
:103FA00062DD0E94B40180E090E048DD8E3E09F4BD
:103FB00080C080E68093432380E4809344230E9462
:103FC000CB010E94A102A0923223B0923323C0926F
:103FD0003023D092312380922F2387E090E02EDD92
:103FE0008F3F09F4BDC005E413E2E6EFEE2EFF2497
:103FF000FA94C701845393427C01C701800F911F3B
:104000001DDDF80181938F01F3E20E351F07A9F73B
:1040100089E1E5E4F3E2AEE5B3E201900D928A9521
:10402000E1F721E042E15AE767E080E498E0FBDC59
:10403000E0912E2381E08E0F80932E23F0E0EC524E
:10404000FD4D808190E00197809368089093690806
:1040500081E08093470820E040E066E080E096E061
:10406000D9DB80E48093050640E060E081E090E0E9
:1040700093D4F1D48DE393E2DF91CF911F910F910F
:10408000FF90EF90DF90CF90BF90AF909F908F9078
:104090007F906F905F904F903F90C1C691E09912D2
:1040A00074CF0E94B40180E090E0C8DC8E3E09F03D
:1040B00080CF81E090E0C2DC80934323A114B1045F
:1040C00091F0760185010C0D1D1DF0E26F2E712C13
:1040D000C301B4DCF70181937F01FFEF6F1A7F0A00
:1040E000E016F106A9F780E8809344230E94A1021C
:1040F0006ACF6F2D82E090E0B6DC61E083E090E073
:10410000B2DC82E090E09ADC382E83E090E096DC2E
:10411000982E8201A7E06A2E712CE12C0BC0E110D1
:104120000EC0C301A0DCFFEF6F1A7F0A80E26816A1
:10413000710489F0F80161918F016111F0CF60E0A5
:10414000C30191DCEE24E394FFEF6F1A7F0A80E253
:104150006816710479F76FED80E090E084DC12CF8F
:10416000720107E010E0D12C0AC0D1100DC0C801C7
:104170007ADC0F5F1F4F0032110509F434CFF701CD
:1041800061917F016111F1CF60E0C8016CDCDD2439
:10419000D394EFCF0E944C0120E480E092EEA4E0A3
:1041A000B0E00197A109B1090097A105B105C9F7D0
:1041B00020930706F2CF80913D2390913E23A0915A
:1041C0003F23B09140230196A11DB11D80933D2353
:1041D00090933E23A0933F23B0934023809182236A
:1041E0008F5F809382238EE090E0809368089093A5
:1041F000690881E080932E230E94170380914C0868
:10420000806180934C080E9444030E94780440918E
:10421000432347FD03C0842F8370B1C0842F837074
:10422000813009F0ACC08DE393E280932923909311
:104230002A2383E0809350248EE08093512488E0E9
:10424000809352248FEF8093532484E180935424ED
:1042500080914C0880FF18C080913D2390913E23AF
:10426000A0913F23B09140230196A11DB11D8093E1
:10427000552490935624A0935724B09358248091AA
:1042800060089091610826C080913D2390913E2363
:10429000A0913F23B09140238093552490935624BE
:1042A000A0935724B093582420916008309161085E
:1042B00050912E23503D71F42F30310558F4019662
:1042C000A11DB11D8093552490935624A09357248B
:1042D000B09358241092592410925A2480913D236F
:1042E00090913E23A0913F23B091402380935B2483
:1042F00090935C24A0935D24B0935E24209151247C
:104300002E5F30E0215031091216130684F450E07C
:1043100060E080E090E0FC01E05BFB4D8081680F95
:104320005F5F852F90E082179307ACF301C060E0D8
:10433000F901E05BFB4D60838091C922813021F55A
:1043400083E88093A200C091A30B9091A30B9C7F64
:104350009093A30B609151246E5F80E594E231D479
:104360009091A30B8C2F8370892B8093A30B87E8EC
:104370008093A20040914323842F837000C0882340
:1043800039F0813019F400C092E003C091E001C01F
:1043900094E080913D23892321F080E480930606F8
:1043A00005C046FF03C080E4809305060E944303D6
:1043B00080914C0884FF05C080912D23811101C09C
:1043C000E9DE1895909143239370913009F0089598
:1043D000462F63E0CACBCF92DF92FF920F931F93D9
:1043E000CF93DF931F921F92CDB7DEB78D3040F48D
:1043F000E82FF0E0DF01A05FBC4D9C91961759F0CB
:1044000080E00F900F90DF91CF911F910F91FF905F
:10441000DF90CF900895EE0FFF1FEA50FD4D6081B1
:1044200071816217730761F7883009F47DC08A30A3
:10443000C9F18B30F9F08C3019F78A01B7E0CB2E37
:10444000D12CF12C0CC0F1100FC0C6010CDBFFEF1A
:10445000CF1ADF0A80E2C816D10409F47FC0F80140
:1044600061918F016111EFCF60E0C601FCDAFF249A
:10447000F394EDCFFA018081813009F48CC0823051
:1044800009F49AC0843009F4A7C0883011F081E0A3
:10449000B8CF6FEF87E090E0E6DA83E080932D23DA
:1044A00081E0AFCFFA01808186FD04C080E4809373
:1044B0000606808110914323837F80934323FA0172
:1044C000808185FF40C015FF5DC083FF10C081E083
:1044D00080937A2310927823809379231092772304
:1044E00080914323877F80934323FA0180818370E7
:1044F00071F4812F837059F210927A2349835A8381
:104500000E94140349815A81FA01808183708130AD
:1045100051F1833009F0BBCF1370133009F4B7CFDA
:104520000E94160381E06DCFFA0180819181A28102
:10453000B38180933D2390933E23A0933F23B09378
:10454000402381E05ECF15FFC0CF49835A830E948C
:10455000130349815A81FA018081B7CF83E08093A8
:104560002D2381E04ECF812F8370813009F48FCFCE
:1045700049835A830E94150349815A81FA01808137
:104580008370C7CF49835A830E94120349815A819D
:10459000FA0180819ACF8EE593E249835A83BFDA8C
:1045A0006FED80E090E05FDA83E080932D23498116
:1045B0005A81FA01808163CF80E090E049835A8379
:1045C0003DDA49815A818E3E09F01ACF83E080930B
:1045D0002D23FA01808156CF6EEE80E090E0498372
:1045E0005A8341DA6091432381E090E03CDA809184
:1045F00032239091332349815A81892BC9F000E0FD
:1046000010E0E0913023F0913123E00FF11F608141
:10461000C801809649835A8326DA0F5F1F4F809125
:1046200032239091332349815A810817190748F39F
:1046300083E080932D23FA01808127CF0E94170306
:104640008091680890916908E0912E2321E02E0F57
:1046500020932E23E770F0E0EC52FD4D3081830F64
:10466000911D809368089093690820FD26C1809170
:10467000C922813069F48093250783E88093A200E2
:104680008091A30B8F7C8093A30B87E88093A2007B
:1046900080918123811103C0809180230FC08150BC
:1046A00080938123882319F08091802307C0109282
:1046B00081231092802310927B239BC0882309F4CE
:1046C00098C0A0915025B09151258091533D8F3FC6
:1046D00059F01091543D5091553D0091563D27E5BC
:1046E000E22E2DE3F22E0AC01091563D5091573D17
:1046F0000091583D99E5E92E9DE3F92EFD01319693
:1047000081F090E040E020E030E0E901CE5AD24C68
:104710002881420F9F5F292F30E02E173F07A8F313
:1047200001C040E0EE5AF24C9081491360C05F3FF7
:1047300009F05DC09091523D913089F51D31B0F482
:104740001D3008F01EC1E12FF0E0E05FFC4D9081CC
:10475000091317C1193009F00FC1809160089091B9
:104760006108809341239093422306C1602F812FDB
:104770000E947F049091432394FD39C0811103C0AE
:104780008091533D05C041E061E0812FEED92FC0FB
:1047900090E0883F91055CF589E0F1DA28C0CD0111
:1047A0000497202F2F70622F70E02AD41D3130F42F
:1047B0009B01A701602F812F0EDE06C09B01A70180
:1047C000602F812F0E9498049091432394FD0FC085
:1047D000882329F041E062E0812FC7D908C0809189
:1047E000533D90E0883F910514F48AE0C8DA1092B6
:1047F00080238091C922813009F05CC08091080734
:1048000086FF46C080912B2390912C230196883BF4
:104810002BE0920729F080932B2390932C233CC00C
:1048200010922B2310922C2380914323982F937066
:104830009130E9F486FD03C090E490930606982F2A
:10484000907F9093432383FF0BC01092782381E0E5
:104850008093792310927723892F877F8093432336
:1048600010927A230E9414039091C92201C091E012
:1048700010927E2310927F2310927C2310927D232E
:104880008091A30B8C7F8093A30B913029F012C0F1
:1048900010922B2310922C2383E88093A200809106
:1048A000A30B80638093A30B87E88093A20081E031
:1048B000809326070E94470302C00E9478048091DB
:1048C0002D23882339F0815080932D23811102C03C
:1048D0000E94EF1B809179238823E1F080912E23A1
:1048E00083708230B9F4809177238D3060F4893001
:1048F00009F04CC020916008309161082093412359
:104900003093422343C08F5F809377238C3111F41F
:104910001092792380917A23882309F180912E23A4
:104920008370E9F480917823E82FF0E0E858FD4D9A
:104930006081805E0E947F04882331F0809178231B
:1049400041E061E0805E11D9809178238F5F809390
:10495000782390912F23891302C010927A230E940A
:10496000430380914C0884FF05C080912D23811161
:1049700001C010DC189510C08091432384FF03CF41
:1049800036CF9091432394FF03CF31CF41E061E0D4
:10499000ECD880917723B7CFFF920F931F93CF93DB
:1049A000DF931F921F92CDB7DEB789839A83F62ECD
:1049B000142F20E040E060E080E297E00E940A1CB3
:1049C00020E040E066E080E097E00E94F51B01E017
:1049D00020E440E063E080E097E00E94221C81E058
:1049E0008093260783E08093A50B89818093A60B93
:1049F0008F2D90E18902B00111248A818F70862B5E
:104A00008093A70B112329F08091A40B84608093DD
:104A1000A40B88E08093A50620E040E063E080EAF4
:104A200096E00E940A1C20E040E062E080EA96E006
:104A30000E94F51B8091080786FF05C08091A30B9B
:104A40008C7F8093A30B0F900F90DF91CF911F91DC
:104A50000F91FF900895E0EAFBE0848188618483F0
:104A600080EE818383818063838308951F920F92F8
:104A70000FB60F92112408B60F9218BE09B60F9206
:104A800019BE0BB60F921BBE2F933F934F935F93AC
:104A90006F937F938F939F93AF93BF93EF93FF9306
:104AA0000E947B0420917E2330917F23C9010196CF
:104AB00080937E2390937F23F901EE5AFA4D208153
:104AC0002093A00B811528E1920729F120917C23E6
:104AD00030917D232817390729F48091A30B8C7F0F
:104AE0008093A30B0E947C04FF91EF91BF91AF9143
:104AF0009F918F917F916F915F914F913F912F91F6
:104B00000F900BBE0F9009BE0F9008BE0F900FBE06
:104B10000F901F90189510927E2310927F2380E0B3
:104B200090E0D4CF1F920F920FB60F92112408B6C7
:104B30000F9218BE09B60F9219BE0BB60F921BBE8C
:104B40002F933F934F935F936F937F938F939F9395
:104B5000AF93BF93EF93FF930E947D04809108076A
:104B600086FD29C020917E2330917F2380917C2374
:104B700090917D232817390729F08091A30B83603A
:104B80008093A30B0E947E04FF91EF91BF91AF91A0
:104B90009F918F917F916F915F914F913F912F9155
:104BA0000F900BBE0F9009BE0F9008BE0F900FBE66
:104BB0000F901F9018958091A30B8C7F8093A30B6F
:104BC000E1CFBF92CF92DF92EF92FF920F931F93AC
:104BD000CF93DF936C01B62E8091080786FD05C048
:104BE0008091A30B83608093A30B00917C23109191
:104BF0007D23C0E0D8E1C01BD10BEB2CF12CCE15EE
:104C0000DF0558F1A701B601C8018E5A9A4D4AD264
:104C100080917E2390917F23E00EF11EE0927C2311
:104C2000F0927D23E11428E1F20609F446C008174A
:104C30001907A8F5E816F90690F18FEFE81AF80AB7
:104C4000E0927E23F0927F23E11428E1F20639F509
:104C500010927E2310927F2322C0AE01B601C801BC
:104C60008E5A9A4D1FD2BC1AEB2CF12CBE016C0D42
:104C70007D1DA70182E595E215D280917E2390915A
:104C80007F23E0927C23F0927D230817190788F494
:104C90002FEFE21AF20AE0927E23F0927F23DF9157
:104CA000CF911F910F91FF90EF90DF90CF90BF9029
:104CB0000895E816F90660F7F2CF10927C2310925F
:104CC0007D23892B61F781E090E080937E23909390
:104CD0007F23E5CF1F920F920FB60F92112408B6D3
:104CE0000F9218BE09B60F9219BE0BB60F921BBEDB
:104CF0002F933F934F935F936F937F938F939F93E4
:104D0000AF93BF93EF93FF930E9479049091A00B10
:104D1000E0917B2381E08E0F80937B23F0E0EE5ABD
:104D2000F24C9083813019F1843049F190E0209168
:104D30005025309151258217930779F10E947A040A
:104D4000FF91EF91BF91AF919F918F917F916F9163
:104D50005F914F913F912F910F900BBE0F9009BE25
:104D60000F9008BE0F900FBE0F901F901895809166
:104D7000523D81508230D0F110927B23DFCF809161
:104D8000533D8F3F01F190E08E3F9105A9F30296CC
:104D90008093502590935125D1CF2091C922213065
:104DA00061F12091533D2F3F29F122E030E0821B39
:104DB000930B809350259093512510927B2381E093
:104DC00080938023BBCF8091533D9091543D0496B6
:104DD0008F3F910509F080F68091543D9091553DAB
:104DE00004968093502590935125A8CF82E3809319
:104DF0008123A4CF24E030E0DACF2093250783E895
:104E00008093A2008091A30B8F7C8093A30B87E8F3
:104E10008093A2008091502590915125C2CFCF93CD
:104E2000DF931F921F92CDB7DEB723E130E02983D5
:104E30003A83809384239093852383E08093B508FD
:104E400089818093B6088A818F708093B70820E0AB
:104E500048E166E080E496E00E94F51B80E18093E3
:104E6000B408E3EBF8E08081806380830F900F90BB
:104E7000DF91CF9108951F920F920FB60F921124D8
:104E800008B60F9218BE09B60F9219BE0BB60F9254
:104E90001BBE2F938F939F93AF93BF93EF93FF937B
:104EA0008091B0088A3AD1F18F3A09F44CC09091C0
:104EB0008323923009F44BC008F472C0943009F493
:104EC00052C008F44AC0953061F58093892310924E
:104ED0008323809182238A3008F44BC082EF99E7C4
:104EE000809360089093610881E09AE78093680856
:104EF0009093690826E02093CA22E0918423F091E0
:104F000085238091862390918723A0918823B09157
:104F1000892380839183A283B38303C081E080933C
:104F20008323FF91EF91BF91AF919F918F912F912B
:104F30000F900BBE0F9009BE0F9008BE0F900FBED2
:104F40000F901F90189582E080938323EACF80937F
:104F5000862383E080938323E4CF8093872384E0B8
:104F600080938323DECF8093882385E080938323FF
:104F7000D8CF109282232091CA2289EF99E7821B11
:104F80009109809360089093610881E09AE780938B
:104F9000680890936908222309F4AFCF2150ABCF62
:104FA000992319F0913009F0BCCF10928323B9CF27
:104FB00003D008F481E00895990F0008550FAA0B5B
:104FC000E0E8FEEF16161706E807F907C0F012161C
:104FD0001306E407F50798F0621B730B840B950B1F
:104FE00039F40A2661F0232B242B252B21F4089574
:104FF0000A2609F4A140A6958FEF811D811D089511
:10500000AA1BBB1B51E107C0AA1FBB1FA617B707EE
:1050100010F0A61BB70B881F991F5A95A9F780950A
:105020009095BC01CD010895052E97FB16F40094D0
:105030000FD057FD05D014D007FC02D046F408C0AD
:1050400050954095309521953F4F4F4F5F4F0895B4
:1050500090958095709561957F4F8F4F9F4F0895E4
:10506000A1E21A2EAA1BBB1BFD010DC0AA1FBB1F6C
:10507000EE1FFF1FA217B307E407F50720F0A21BDE
:10508000B30BE40BF50B661F771F881F991F1A944B
:1050900069F760957095809590959B01AC01BD0175
:1050A000CF010895FB01DC0102C001900D92415037
:0A50B0005040D8F70895F894FFCFA0
:1050BA00DC04DF04B2105E0E2912060FCB05D205FE
:1050CA00D905E005E705EE05F5050A0614062206E8
:1050DA0030063E064C065A0668067606840692068E
:1050EA00A006AE06BC06CA069D09FB09590AB70AFC
:1050FA00DC0622076807AE07150B2A0C020E620DA2
:10510A00B20DF8072F086608730880080915870882
:10511A00DE0B770C9D0CAC08AF08B208B508B808CE
:10512A00BB08BE08C108C408C708CA08DC08DF08EB
:10513A00F108F408F708FA08FD081C093B095A099E
:10514A0079097C097F098209850998099B09B804AC
:10515A00DE04E504E604E704E804CA05D105D80537
:10516A00DF05E605ED05F4050906130621062F06F7
:10517A003D064B06590667067506830691069F0685
:10518A00AD06BB06C906D706D806D906DA06DB0677
:10519A0021076707AD07100DF307F407F507F607B0
:1051AA00F7072E08650872087F083E0D8608500D1D
:1051BA00A008A108AB08AE08B108B408B708BA0835
:1051CA00BD08C008C308C608C908DB08DE08F0081D
:1051DA00F308F608F908FC081B093A09590978097D
:1051EA007B097E098109840997099A09B723B8239B
:1051FA00B923BB23BD23BF23C123C223C323C42393
:10520A00C523C623C723CB23CD23CF23D123D3231F
:10521A00D523D723D923DB23DD23DF23E123E3238C
:10522A00E523E723E923EB23ED23EF23F123F223FD
:10523A00F323F423F523F623F723FD230024032481
:10524A000424052406240724082409240A240B24F8
:10525A000C240D240E240F241024112412241324A8
:10526A00142415241624172419241A241C241D2452
:10527A001E241F24202422242424262428242924EA
:10528A002A242B242C242D242E2401000100010081
:10529A0001000100010001000100010001000100FC
:1052AA0001000200010001000100010001000100EB
:1052BA0001000100010001000100010001000100DC
:1052CA0001000100010001000100010001000100CC
:1052DA0001000100010006000300030001000100B3
:1052EA0001000100010001000100010001000100AC
:1052FA00010001000100010001000100010001009C
:10530A00010001000100010001000100010001008B
:10531A00010001000100010001000100010001007B
:10532A000100010001000100010102020202010163
:10533A0001010101820202020202020202020202C7
:10534A00020202020202020201010101010101013B
:10535A000101010101010101010101010101010133
:10536A00010101010102010201010101020202021D
:10537A0001010101010101B400010742656861767A
:10538A00696F72000F10100F100F1010342336239C
:10539A003723382339233A233B233C233D23412314
:1053AA0043234423452301000100010001000100B9
:1053BA0001000100010001000100010001001900C3
:0E53CA000201010101010101040201010100C3
:00000001FF
