:10000000FDC0000021C100001FC100001DC1000093
:100010001BC1000019C1000017C1000015C100007C
:1000200013C1000011C100000FC100000DC100008C
:100030000BC1000009C100000C94FC1705C10000B1
:1000400003C1000001C10000FFC00000FDC00000AE
:100050000C940621F9C000000C943123F5C0000077
:10006000F3C00000F1C00000EFC00000EDC00000D0
:100070000C944E27E9C00000E7C00000E5C0000076
:10008000E3C00000E1C00000DFC00000DDC00000F0
:10009000DBC00000D9C00000D7C00000D5C0000000
:1000A000D3C00000D1C00000CFC000000C942E17B8
:1000B000CBC00000C9C00000C7C000000C949D1751
:1000C000C3C000000C94C917BFC00000BDC0000031
:1000D000BBC00000B9C00000B7C00000B5C0000040
:1000E000B3C00000B1C00000AFC00000ADC0000050
:1000F000ABC00000A9C00000A7C00000A5C0000060
:100100000C941917A1C000009FC000009DC0000002
:100110009BC0000099C0000097C0000095C000007F
:1001200093C0000091C000008FC000008DC000008F
:100130008BC000000C94DC1787C0000085C0000055
:1001400083C0000081C000007FC000007DC00000AF
:100150007BC0000079C0000077C0000075C00000BF
:1001600073C0000071C000006FC000006DC00000CF
:100170006BC0000069C0000067C0000065C00000DF
:1001800063C0000061C000000C94A5255DC00000A4
:100190005BC0000059C0000057C0000055C00000FF
:1001A0000C94461751C000004FC000004DC0000025
:1001B0000C945E1749C000000C948A1745C00000DB
:1001C00043C0000041C000003FC000003DC000002F
:1001D0003BC0000039C0000037C000000C947D26F1
:1001E0000C94492531C000002FC000002DC0000034
:1001F0002BC0000029C0000027C0000011241FBE32
:10020000CFEFCDBFDFE3DEBF00E00CBF18BE19BEED
:100210001ABE1BBE13E2A0E0B0E2E0EEF0E500E0A3
:100220000BBF02C007900D92AC31B107D9F71BBECE
:100230002EE3ACE1B3E201C01D92AF34B207E1F7A7
:100240000E941C180C946E28DBCE8F92AF92BF9246
:10025000CF92DF92EF920F9389EC92E29F938F936C
:100260008FE4882E98E7A92EB12C24EBC22E23E22E
:10027000D22EE12C01E022E041E061E080EC94E04C
:100280000E949E1F0F900F900F91EF90DF90CF90E4
:10029000BF90AF908F9008959F92AF92BF92CF92F0
:1002A000DF92EF92FF920F931F93CF93DF9300D0D3
:1002B000CDB7DEB719821A821B8280E09BE00E94D4
:1002C000CF1C00EA16E0BB24B394F801B68280E0AC
:1002D0009AE00E94CF1C30E8E32E36E0F32EF701BF
:1002E000B68280E099E00E94CF1C40E6C42E46E032
:1002F000D42EF601B68280E098E00E94CF1CE0E4A4
:10030000F6E0B682E0E2F6E050E4952E958280E2D7
:10031000858362EAA62EB12C81E8F5018083BE01B7
:100320006F5F7F4FCB010E942E1887E8F501808315
:10033000F6019682F7019682F801968280E8F6012E
:100340008683F7018683F80186832396CDBFDEBFBF
:10035000DF91CF911F910F91FF90EF90DF90CF90A1
:10036000BF90AF909F9008950E9468160E94251834
:1003700093E89093080385E88093090390932803FA
:100380008093290380E480932103109222038DE05F
:1003900080932003809171008D7F8093710081E0B4
:1003A0008093000290E69093010290910102909355
:1003B000010290E19093020295E0909304028093F1
:1003C000200288E080932102109222028091220272
:1003D0008093220220E040E456E062E080E099E071
:1003E0000E94AC1C80E099E00E94CB1C8823D1F3D2
:1003F00080E099E00E94CF1C809120028068809369
:1004000020028091230280FFFCCF81E080932302B1
:1004100080912402909125028093A3239093A4239A
:1004200010922102809120028068809320028091A6
:10043000230280FFFCCF81E0809323020895109275
:10044000B6231092B7231092B8231092B9231092BA
:10045000BA231092BB231092BC231092BD2310929A
:10046000BE231092BF231092C0231092C12310927A
:10047000C2231092C6231092C72388E390E0809392
:10048000C8239093C92384EF91E08093CA2390936B
:10049000CB238093CC239093CD238093CE23909332
:1004A000CF232FE030E02093D0233093D12320932B
:1004B000D2233093D3232093D4233093D523809316
:1004C000D6239093D7238093D8239093D9238093D6
:1004D000DA239093DB238093DC239093DD238AEF50
:1004E00090E08093DE239093DF238093E02390932A
:1004F000E1238093E2239093E3238093E42390937A
:10050000E52388EE93E08093E6239093E72380ED44
:1005100097E08093E8239093E92388EB9BE0809316
:10052000EA239093EB2380EA9FE08093EC2390935F
:10053000ED2382E38093EE238093EF238093F023D7
:100540008093F1231092F2231092F3238FEF809384
:10055000F4231092F5231092F6231092F7231092B1
:10056000F8238093F9238093FA231092FB231092AF
:10057000FC231092FD231092FE238093FF238AE038
:1005800080930024809301248EE180930224809341
:1005900003248FE1809304241092052410920624F2
:1005A0001092072410920824109209248EE190E002
:1005B00080931424909315248093172490931824E7
:1005C00020E23EE420931D2430931E248CED95E020
:1005D00080931F249093202420932124309322245D
:1005E00080932324909324240895CF93DF9300D005
:1005F000CDB7DEB71092A5231092A6231092A723A1
:100600001092A8231092A9231092AA231092AB2330
:100610001092AC231092AD231092AE231092AF2310
:100620001092B0231092B1231092B2231092B323F0
:100630008091BC239091BD2389839A83CE0101963A
:100640000E94690F809100248B83CE01039633D5DD
:10065000809101248B83CE01039664D58091E6239B
:100660009091E72389839A83CE010196C9D6809120
:10067000E8239091E92389839A83CE0101961ED7BE
:100680008091EA239091EB2389839A83CE0101968E
:1006900073D78091EC239091ED2389839A83CE01C7
:1006A0000196C8D78091F2238B83CE0103960E94D6
:1006B000780B809109248B83CE0103960E94000D54
:1006C0002396CDBFDEBFDF91CF91089508950895A1
:1006D00008950895089580912002806880932002F3
:1006E0008091230280FFFCCF81E0809323028091E0
:1006F0002402909125022091A3233091A42328174E
:100700003907E8F480912402909125029F70821BA2
:10071000930B8093C4239093C5238091092482FF77
:1007200009C0809160099091610990588093C62317
:100730009093C7238091042482FD06C008951092EF
:10074000C4231092C523E9CF61E08CE20C940D2202
:100750000895089540911F2350911E23809187236F
:1007600090918823009741F001978093872390937D
:100770008823892B09F415C18091892390918A23BC
:10078000009741F001978093892390938A23892BC6
:1007900009F403C180918B2390918C23009741F041
:1007A000019780938B2390938C23892B09F4F1C0BC
:1007B00080918D2390918E23009741F00197809333
:1007C0008D2390938E23892B09F4DFC080918F2392
:1007D00090919023009741F0019780938F239093FD
:1007E0009023892B09F4CDC080919123909192237D
:1007F000009741F001978093912390939223892B46
:1008000009F4BBC08091932390919423009741F009
:1008100001978093932390939423892B09F4A9C083
:100820008091952390919623009741F001978093B2
:10083000952390939623892B09F497C08091972351
:1008400090919823009741F001978093972390937C
:100850009823892B09F485C0842F20919923309106
:100860009A232115310521F4481799F0652F0FC0FF
:10087000215031092093992330939A23232BA1F7F8
:1008800010921E23481302C0552319F060E00E9405
:10089000691480919B2390919C23009741F00197CC
:1008A00080939B2390939C23892B09F44BC08091C8
:1008B0009D2390919E23009739F0019780939D236B
:1008C00090939E23892B81F180919F239091A02367
:1008D000009739F0019780939F239093A023892B51
:1008E000A9F08091A1239091A223009771F0019724
:1008F0008093A1239093A223892B39F481E08093E4
:1009000046068091A823811150C0089581E080930C
:1009100066068091A723882321F31092A72380E005
:1009200099E00E94CF1CDDCF81E080938606809104
:10093000A623882349F21092A62380E09AE00E9421
:10094000CF1CC2CF81E08093A6068091A523882387
:1009500009F4ADCF1092A52380E09BE00E94CF1C4C
:10096000A6CF10921F2380E078CF80E280932506E7
:1009700065CF80E48093250653CF80E88093A60658
:1009800041CF80E8809386062FCF80E8809366066B
:100990001DCF80E48093A6060BCF80E4809386066B
:1009A000F9CE80E480936606E7CE1092A82380E01B
:1009B00098E00C94CF1C0895089508950895089523
:1009C0000895089590EE980F9F3440F490E080973A
:1009D000FC01E858FD4D2081261711F080E00895B4
:1009E000FC01EE0FFF1FE256FF4D0190F081E02D5C
:1009F000199581E0089590EE980F9F3448F4E82F00
:100A0000F0E0B097DF01A858BD4D8C91861711F02A
:100A100080E00895EE0FFF1FDF01A652BE4D8D91BD
:100A20009C9182179307A1F7E050F04E0190F0815E
:100A3000E02DCA0119948091680682958170809397
:100A4000B4239091880694FF0DC092E0892B809387
:100A5000B4239091A80694FD0DC090E0892B80935B
:100A6000B423089590E0892B8093B4239091A80635
:100A700094FFF3CF94E0892B8093B423089580E012
:100A800008950895FC0180818093B52381E0089545
:100A90000895089508952091680626FB882780F917
:100AA00090E08093BC239093BD232091880626FF7D
:100AB000B0C022E030E0822B932B8093BC23909334
:100AC000BD232091A80626FFBCC024E030E0282BDF
:100AD000392B2093BC233093BD238091680699273E
:100AE00087FD90958827990F881F9927880F991F50
:100AF000880F991F880F991F822B932B8093BC23FB
:100B00009093BD2320918806332727FD3095222717
:100B1000330F221F332722953295307F3227207FD3
:100B20003227282B392B2093BC233093BD2380916F
:100B3000A806992787FD90958827990F881F9927E0
:100B4000880F991F82959295907F9827807F98278C
:100B5000822B932B8093BC239093BD232091280656
:100B600026FF6CC020E030E0822B932B8093BC23C7
:100B70009093BD232091280625FF5DC020E030E042
:100B8000822B932B20911F23222309F451C020E0B4
:100B900031E0822B932B20911E23222309F445C0A0
:100BA00020E032E0822B932B8093BC239093BD23D3
:100BB0002091A80620FF36C020E034E0822B932B42
:100BC0008093BC239093BD232091880620FF27C0EB
:100BD00020E038E0822B932B8093BC239093BD239D
:100BE0002091680620FF18C020E030E1822B932B73
:100BF0008093BC239093BD232091480620FD24C000
:100C000020E030E0822B932B8093BC239093BD2374
:100C1000089520E030E04FCF20E030E0E7CF20E043
:100C200030E0D8CF20E030E0C9CF20E030E0BACFCC
:100C300020E030E0AECF20E830E0A2CF20E430E08A
:100C400093CF20E030E043CF20E030E2822B932BA3
:100C50008093BC239093BD2308950895FC01808167
:100C60008093BE2381E008950895FC0180818093E4
:100C7000BF2381E008950895FC0180818093C02303
:100C800081E008950895FC0180818093C12381E073
:100C900008950895FC0180818093C22381E0089526
:100CA0000895FC0180818093C32381E00895089515
:100CB000FC01228133812093C6233093C7232091E6
:100CC000B323222339F08281938190588093600965
:100CD0009093610981E008950895FC0180819181DC
:100CE0008093C8239093C92381E008950895FC015F
:100CF00080819181009731F08093CA239093CB2318
:100D000081E0089580E008950895FC01808191813B
:100D1000009731F08093CC239093CD2381E0089508
:100D200080E008950895FC0180819181009731F061
:100D30008093CE239093CF2381E0089580E008959F
:100D40000895FC0180819181009731F08093D02338
:100D50009093D12381E0089580E008950895FC01E7
:100D600080819181009731F08093D2239093D32397
:100D700081E0089580E008950895FC0180819181CB
:100D8000009731F08093D4239093D52381E0089588
:100D900080E008950895FC0180819181009731F0F1
:100DA0008093D6239093D72381E0089580E008951F
:100DB0000895FC0180819181009731F08093D823C0
:100DC0009093D92381E0089580E008950895FC016F
:100DD00080819181009731F08093DA239093DB2317
:100DE00081E0089580E008950895FC01808191815B
:100DF000009731F08093DC239093DD2381E0089508
:100E000080E008950895FC0180819181009731F080
:100E10008093DE239093DF2381E0089580E008959E
:100E20000895FC0180819181009731F08093E02347
:100E30009093E12381E0089580E008950895FC01F6
:100E400080819181009731F08093E2239093E32396
:100E500081E0089580E008950895FC0180819181EA
:100E6000009731F08093E4239093E52381E0089587
:100E700080E0089508950895089508950895CF9203
:100E8000DF92EF92FF92CF93FC01C0818FEF8C0F26
:100E9000833698F56C2F70E080E090E00E94A61AEF
:100EA00020E030E048EC52E40E94101A6B017C0113
:100EB000609134247091352480E090E00E94A41A5F
:100EC0009B01AC01C701B6010E94321B20E030E05B
:100ED00040E05FE30E94AC190E94781A60933C24C2
:100EE00070933D2481E080932C24C093EE23CF9116
:100EF000FF90EF90DF90CF90089580E0CF91FF902A
:100F0000EF90DF90CF9008950895CF92DF92EF9207
:100F1000FF92CF93FC01C0818FEF8C0F833698F541
:100F20006C2F70E080E090E00E94A61A20E030E094
:100F300048EC52E40E94101A6B017C016091362447
:100F40007091372480E090E00E94A41A9B01AC01CC
:100F5000C701B6010E94321B20E030E040E05FE3B1
:100F60000E94AC190E94781A60933E2470933F242B
:100F700081E080932D24C093EF23CF91FF90EF90D9
:100F8000DF90CF90089580E0CF91FF90EF90DF90B9
:100F9000CF9008950895CF92DF92EF92FF92CF9372
:100FA000FC01C0818FEF8C0F833698F56C2F70E0B9
:100FB00080E090E00E94A61A20E030E048EC52E485
:100FC0000E94101A6B017C016091382470913924C1
:100FD00080E090E00E94A41A9B01AC01C701B60119
:100FE0000E94321B20E030E040E05FE30E94AC1939
:100FF0000E94781A609340247093412481E080938A
:101000002E24C093F023CF91FF90EF90DF90CF90EC
:10101000089580E0CF91FF90EF90DF90CF900895FA
:101020000895CF92DF92EF92FF92CF93FC01C0819F
:101030008FEF8C0F833698F56C2F70E080E090E096
:101040000E94A61A20E030E048EC52E40E94101AF8
:101050006B017C0160913A2470913B2480E090E028
:101060000E94A41A9B01AC01C701B6010E94321B69
:1010700020E030E040E05FE30E94AC190E94781A63
:10108000609342247093432481E080932F24C09383
:10109000F123CF91FF90EF90DF90CF90089580E003
:1010A000CF91FF90EF90DF90CF900895089508952D
:1010B000089508950895CF93FC01C0818FEF8C0FA0
:1010C000843628F5809102248C1708F16C2F70E08B
:1010D00080E090E00E94A41A20E030E048EC52E466
:1010E0000E94101A20E030E040E855E40E94321BD4
:1010F0000E94781A6115F0E17F0760F460933A036B
:1011000070933B03C093002481E0CF91089580E069
:10111000CF9108958FEF9FE080933A0390933B0324
:10112000F1CF0895CF93FC01C0818FEF8C0F8436EF
:1011300028F5809103248C1708F16C2F70E080E073
:1011400090E00E94A41A20E030E048EC52E40E94B3
:10115000101A20E030E040E855E40E94321B0E9463
:10116000781A6115F0E17F0760F46093380370939B
:101170003903C093012481E0CF91089580E0CF919D
:1011800008958FEF9FE08093380390933903F1CF58
:101190000895FC0180819EEF980F933620F4809390
:1011A000022481E0089580E008950895FC01808183
:1011B0009EEF980F933620F48093032481E00895E6
:1011C00080E008950895FC0180818093042481E0EB
:1011D00008950895FC01808180FF04C09091A923A7
:1011E00091110DC081FF07C09091AA23992319F096
:1011F00091E090931C238093062481E0089591E070
:1012000090931D23EFCF0895109209248091B3236A
:10121000882319F084E0809309240895089581E0DB
:101220000895089581E00895089581E0089508954E
:1012300081E00895089581E00895089581E008957A
:10124000089581E00895089581E00895089581E06A
:101250000895089580E008950895FC0180819181AA
:101260009C01225031092735324030F480931424F8
:101270009093152481E0089580E00895089580E01A
:1012800008950895FC01808191819C0122503109CB
:101290002735324030F4809317249093182481E04E
:1012A000089580E00895089581E00895089581E00B
:1012B0000895089581E00895089581E008950895BE
:1012C000FC01808191819C01225031092D3F3F4FCB
:1012D00098F42091AF23222349F09C01369527955D
:1012E00021503109209326093093270980931D242A
:1012F00090931E2481E0089580E008950895FC01F4
:10130000808191819C0126503109253F3F4F98F4FF
:101310002091AF23222349F09C0136952795215037
:101320003109209328093093290980931F24909331
:10133000202481E0089580E008950895FC018081D3
:1013400091819C01225031092D3F3F4F98F420910B
:10135000B023222349F09C0136952795215031096D
:1013600020932608309327088093212490932224E9
:1013700081E0089580E008950895FC0180819181C5
:101380009C0126503109253F3F4F98F42091B0230E
:10139000222349F09C01369527952150310920934D
:1013A000280830932908809323249093242481E0F3
:1013B000089580E00895089581E00895089581E0FA
:1013C0000895089581E00895089581E008950895AD
:1013D000FC01208122FF0AC08091B323882331F0D1
:1013E00080E090E88093600990936109209329241C
:1013F00081E00895089581E00895089581E00895B9
:10140000CF92DF92EF92FF920F931F93CF93DF93D0
:10141000FC01C081D181CE0101978031974250F00B
:1014200080E0DF91CF911F910F91FF90EF90DF90BF
:10143000CF900895BE0180E090E00E94A41A9B0125
:10144000AC0164E3E62E64E2F62E00E314E260E011
:1014500078E488EE91E00E94D41C6091EE2370E065
:1014600080E090E00E94A61A20E030E048EC52E4D0
:101470000E94101A6B017C01609134247091352414
:1014800080E090E00E94A41A9B01AC01C701B60164
:101490000E94321B20E030E040E05FE30E94AC1984
:1014A0000E94781A60933C2470933D2481E08093DD
:1014B0002C24C093E623D093E723B3CFCF92DF92BF
:1014C000EF92FF920F931F93CF93DF93FC01C081A4
:1014D000D181CE0101978031974250F080E0DF91B9
:1014E000CF911F910F91FF90EF90DF90CF900895D3
:1014F000BE0180E090E00E94A41A9B01AC0176E35B
:10150000E72E74E2F72E01E314E260E078E488EE5F
:1015100091E00E94D41C6091EF2370E080E090E0A5
:101520000E94A61A20E030E048EC52E40E94101A13
:101530006B017C01609136247091372480E090E04B
:101540000E94A41A9B01AC01C701B6010E94321B84
:1015500020E030E040E05FE30E94AC190E94781A7E
:1015600060933E2470933F2481E080932D24C093A8
:10157000E823D093E923B3CFCF92DF92EF92FF928B
:101580000F931F93CF93DF93FC01C081D181CE01D4
:1015900001978031974250F080E0DF91CF911F9109
:1015A0000F91FF90EF90DF90CF900895BE0180E003
:1015B00090E00E94A41A9B01AC01E8E3EE2EE4E265
:1015C000FE2E02E314E260E078E488EE91E00E94EF
:1015D000D41C6091F02370E080E090E00E94A61A95
:1015E00020E030E048EC52E40E94101A6B017C01CC
:1015F000609138247091392480E090E00E94A41A10
:101600009B01AC01C701B6010E94321B20E030E013
:1016100040E05FE30E94AC190E94781A6093402476
:101620007093412481E080932E24C093EA23D093C9
:10163000EB23B3CFCF92DF92EF92FF920F931F93E2
:10164000CF93DF93FC01C081D181CE01019780311E
:10165000974250F080E0DF91CF911F910F91FF9062
:10166000EF90DF90CF900895BE0180E090E00E945F
:10167000A41A9B01AC01FAE3EF2EF4E2FF2E03E380
:1016800014E260E078E488EE91E00E94D41C60915E
:10169000F12370E080E090E00E94A61A20E030E0A4
:1016A00048EC52E40E94101A6B017C0160913A24CC
:1016B00070913B2480E090E00E94A41A9B01AC0151
:1016C000C701B6010E94321B20E030E040E05FE33A
:1016D0000E94AC190E94781A6093422470934324AC
:1016E00081E080932F24C093EC23D093ED23B3CFDC
:1016F000EF920F93CF93FC01C081C0FF05C0809192
:10170000A523882309F448C0C1FF05C08091A62302
:10171000882309F468C0C2FF05C08091A7238823ED
:1017200009F488C0C3FF04C08091A823882339F03E
:10173000C093F22381E0CF910F91EF900895209113
:1017400042243091432440913A2450913B24E12C8F
:1017500001E06091332480E098E00E94B71C109271
:101760002F2481E08093A823809345068091C8238D
:101770009091C92395FFDCCF8091E4239091E523DC
:1017800001968093A1239093A223C093F22381E03A
:10179000CF910F91EF90089520913C2430913D24FA
:1017A0004091342450913524E12C01E060913024A3
:1017B00080E09BE00E94B71C10922C2481E0809373
:1017C000A5238093A5068091C8239091C92392FFF9
:1017D0009BCF8091DE239091DF23019680939B2302
:1017E00090939C2391CF20913E2430913F244091AF
:1017F000362450913724E12C01E06091312480E0BF
:101800009AE00E94B71C10922D2481E08093A623B9
:10181000809385068091C8239091C92393FF7BCF45
:101820008091E0239091E123019680939D239093F2
:101830009E2371CF2091402430914124409138243F
:1018400050913924E12C01E06091322480E099E04C
:101850000E94B71C10922E2481E08093A7238093CE
:1018600065068091C8239091C92394FF5BCF809136
:10187000E2239091E323019680939F239093A023EA
:1018800051CFEF920F93CF93FC01C081C2FF04C0F0
:101890008091AF23882351F1C3FF04C08091B0230E
:1018A000882339F0C093072481E0CF910F91EF9006
:1018B000089581E08093B023209123243091242443
:1018C000369527954091212450912224569547958D
:1018D000E12C00E065E080E098E00E94B71CC09336
:1018E000072481E0CF910F91EF90089581E08093DC
:1018F000AF2320911F2430912024369527954091C5
:101900001D2450911E2456954795E12C00E065E07A
:1019100080E099E00E94B71CBFCFCF93FC01C0814B
:10192000C0FF04C08091A523811130C0C1FF04C055
:101930008091A623811134C0C2FF04C08091A723E7
:1019400081111AC0C3FF04C08091A82381110AC06D
:101950008C2F80958F708093F223C093F32381E0C6
:10196000CF91089581E08093460680E098E00E9440
:10197000CF1C1092A823ECCF81E08093660680E014
:1019800099E00E94CF1C1092A723DCCF81E08093C6
:10199000A60680E09BE00E94CF1C1092A523C6CF34
:1019A00081E08093860680E09AE00E94CF1C10922E
:1019B000A623C2CFCF93FC01C081C2FF04C0809197
:1019C000AF23811116C0C3FF04C08091B0238111E1
:1019D00005C0C093082481E0CF9108951092B023F0
:1019E00080E098E00E94CF1CC093082481E0CF9152
:1019F00008951092AF2380E099E00E94CF1CE3CFBE
:101A00000F93CF93DF93FC01C0818091B323C2FF7A
:101A100009C0882351F1C093092481E0DF91CF915F
:101A20000F9108958823B9F31092B32310924009BF
:101A30008CE08093490920E048E164E080EA96E088
:101A40000E94491C00E020E140E061E080EA96E06D
:101A50000E94761C1092C6231092C723C0930924BB
:101A600081E0DF91CF910F910895D1E0D093B3231E
:101A70008091A9068C7F8093A9068091A9068C7F0E
:101A80008093A90623E040E064E080EA96E00E94AB
:101A9000491C23E040E065E080EA96E00E94491C92
:101AA0008CE78093800189E080938801109240093F
:101AB0008CE08093490988E6809343098FEF9FEF7C
:101AC000809366099093670980E090E880936009AD
:101AD00090936109D0934009C093092481E0DF917C
:101AE000CF910F9108951092F2238091A52388231E
:101AF00001F181E08093F22389E09DE025E06BE035
:101B00005FE047E073E03091A623332329F0709320
:101B1000F223862F952F242F3091A723332319F0FA
:101B20002093F223892F9091A82391118093F2237F
:101B3000089588E09CE024E06AE05EE046E072E020
:101B4000E2CF109205248091A923882351F081E0EF
:101B50008093052493E08091AA238111909305241A
:101B6000089592E0F8CF109207248091AF23882344
:101B700051F084E0809307249CE08091B023811190
:101B800090930724089598E0F8CF1F93CF93DF93A5
:101B900000D000D0CDB7DEB7FC0181818093F42363
:101BA00080818093F52382818093F6232181209385
:101BB000FA2390819093FB2382818093FC233091C0
:101BC0001E2340911F231C821D821E8219821A82AD
:101BD0001B82413031F1313049F48091FD238983FA
:101BE0008091FE238A838091FF238B8383E88093F7
:101BF000A2001091A30B1092A30BBE016F5F7F4F49
:101C0000CE0104960E942E181093A30B87E88093B0
:101C1000A20081E02696CDBFDEBFDF91CF911F915C
:101C200008952C839D838E83D6CF1F93CF93DF930C
:101C300000D000D0CDB7DEB7FC0181818093F723BF
:101C400080818093F82382818093F92321812093DE
:101C5000FD2390819093FE2382818093FF23309116
:101C60001E2340911F231C821D821E8219821A820C
:101C70001B82413001F1313019F429839A838B831F
:101C800083E88093A2001091A30B1092A30BBE01D6
:101C90006F5F7F4FCE0104960E942E181093A30B06
:101CA00087E88093A20081E02696CDBFDEBFDF915A
:101CB000CF911F9108954091FA234C834091FB23CB
:101CC0004D834091FC234E83D6CF1F93CF93DF9358
:101CD00000D000D0CDB7DEB7FC0181818093F42322
:101CE00080818093F52382818093F6238481809381
:101CF000F72383818093F82385818093F923518191
:101D00005093FA2340814093FB2332813093FC238C
:101D100024812093FD2393819093FE2385818093DA
:101D2000FF2360911E2370911F231C821D821E823F
:101D300019821A821B82713001F1613019F42983F2
:101D40009A838B8383E88093A2001091A30B109257
:101D5000A30BBE016F5F7F4FCE0104960E942E1829
:101D60001093A30B87E88093A20081E02696CDBF55
:101D7000DEBFDF91CF911F9108955C834D833E8339
:101D8000DCCFFF920F931F93CF93DF9300D000D04F
:101D9000CDB7DEB7FC010081118100FF03C080E4F4
:101DA0008093660601FF03C080E48093860602FFED
:101DB00003C080E48093A60603FF03C080E88093FD
:101DC000660604FF03C080E88093860605FF03C013
:101DD00080E88093A60606FF03C080E48093250672
:101DE00007FF03C080E28093250610FD10921F2399
:101DF00011FD10921E23C80188279370892B19F1B9
:101E000080911E2390911F231C821D821E821982A5
:101E10001A821B82913009F44FC0813009F442C00C
:101E200083E88093A200F090A30B1092A30BBE0155
:101E30006F5F7F4FCE0104960E942E18F092A30B85
:101E400087E88093A20012FF03C081E08093A6067A
:101E500013FF03C081E08093860614FF03C081E076
:101E60008093660615FF03C081E080934606C80193
:101E7000809590952091BC233091BD23822393239C
:101E80008093BC239093BD230093B8231093B92370
:101E900081E02696CDBFDEBFDF91CF911F910F91DC
:101EA000FF9008958091FD2389838091FE238A838A
:101EB0008091FF238B83B4CF9091FA239C839091E0
:101EC000FB239D839091FC239E83813009F0A8CF52
:101ED000E9CFFF920F931F93CF93DF9300D000D0F1
:101EE000CDB7DEB7FC010081118120911F23309115
:101EF0001E2380E400FF18C1809365068091C823EB
:101F000080FD89C180E401FF0CC18093850680912A
:101F1000C82381FD76C180E402FF00C18093A5063D
:101F20008091C82382FD63C180E803FFE5C08093F0
:101F300065068091C82383FD50C180E804FFE1C09D
:101F4000809385068091C82384FD3DC180E805FF0C
:101F5000DDC08093A5068091C82385FD2AC180E459
:101F600006FFD9C0809326068091C82386FD17C13D
:101F700080E207FF8DC0809326068091C82387FDED
:101F800004C110FF89C081E080931F238091C82382
:101F90009091C92390FFF7C08091DA239091DB23C1
:101FA0000196809397239093982341E011FD79C087
:101FB00010921E2380E0241709F488C01C821D8221
:101FC0001E8219821A821B82413009F48BC0813033
:101FD00049F48091FD2389838091FE238A83809137
:101FE000FF238B8383E88093A200F090A30B1092D1
:101FF000A30BBE016F5F7F4FCE0104960E942E1887
:10200000F092A30B87E88093A20081E012FF98C0B2
:102010008093A5068091C8239091C92392FDA7C003
:1020200081E013FF8AC0809385068091C823909138
:10203000C92393FD92C081E014FF7CC080936506A4
:102040008091C8239091C92394FD7DC081E015FF44
:102050006EC0809345068091C8239091C92395FF57
:1020600009C08091E4239091E52301968093A123F8
:102070009093A2230093BC231093BD2381E0269666
:10208000CDBFDEBFDF91CF911F910F91FF900895DB
:102090008093250610FD77CF10921F2340E011FF9B
:1020A00087CF81E080931E238091C8239091C9231C
:1020B00091FF67C08091DC239091DD23019680938E
:1020C000992390939A2381E0241378CF381709F449
:1020D0009CCF1C821D821E8219821A821B82413073
:1020E00009F075CF9091FA239C839091FB239D83F7
:1020F0009091FC239E836BCF8093660680E804FD5D
:102100001FCF8093860680E805FD23CF8093A60627
:1021100080E406FD27CF809325062ACF8093A6066C
:1021200003CF80938606F7CE80936606EBCE80932E
:102130004606A0CF8093660689CF809386067BCF24
:102140008093A6066DCF8091E2239091E3230196C0
:1021500080939F239093A02379CF8091E023909147
:10216000E123019680939D2390939E2364CF8091D9
:10217000DE239091DF23019680939B2390939C23F1
:102180004FCF81E018CF41E08ACF8091D823909142
:10219000D92301968093952390939623F2CE809134
:1021A000D6239091D72301968093932390939423E1
:1021B000DFCE8091D4239091D523019680939123F3
:1021C00090939223CCCE8091D2239091D3230196E9
:1021D00080938F2390939023B9CE8091D0239091B8
:1021E000D123019680938D2390938E23A6CE809148
:1021F000CE239091CF23019680938B2390938C23B1
:1022000093CE8091CC239091CD2301968093892306
:1022100090938A2380CE8091CA239091CB230196FC
:1022200080938723909388236DCEFF920F931F9303
:10223000CF93DF9300D000D0CDB7DEB7FC01008193
:10224000118100FF07C080E4809365068091C82358
:1022500080FD41C101FF07C080E480938506809125
:10226000C82381FD2EC102FF07C080E48093A5062C
:102270008091C82382FD1BC103FF07C080E88093C3
:1022800065068091C82383FD08C104FF07C080E86C
:10229000809385068091C82384FDF5C005FF07C0A3
:1022A00080E88093A5068091C82385FDE2C006FFE3
:1022B00007C080E4809326068091C82386FDCFC0A6
:1022C00007FF07C080E2809326068091C82387FD20
:1022D000BCC010FF09C081E080931F238091C823F8
:1022E0009091C92390FDA7C011FF09C081E08093A0
:1022F0001E238091C8239091C92391FD92C0C801EB
:1023000088279370892B11F180911E2390911F23B0
:102310001C821D821E8219821A821B82913009F44E
:10232000EEC0813009F4E1C083E88093A200F09010
:10233000A30B1092A30BBE016F5F7F4FCE010496DB
:102340008DD6F092A30B87E88093A20012FF09C0FC
:1023500081E08093A5068091C8239091C92392FDC6
:1023600056C013FF09C081E0809385068091C82381
:102370009091C92393FD41C014FF09C081E080936F
:1023800065068091C8239091C92394FD2CC015FF48
:1023900012C081E0809345068091C8239091C923A3
:1023A00095FF09C08091E4239091E52301968093E5
:1023B000A1239093A2238091BC239091BD23802BD5
:1023C000912B8093BC239093BD230093B62310934D
:1023D000B72381E02696CDBFDEBFDF91CF911F915D
:1023E0000F91FF9008958091E2239091E32301964D
:1023F00080939F239093A023CACF8091E023909154
:10240000E123019680939D2390939E23B5CF8091E5
:10241000DE239091DF23019680939B2390939C234E
:10242000A0CF8091DC239091DD23019680939923A6
:1024300090939A2364CF8091DA239091DB230196C5
:1024400080939723909398234FCF8091D823909196
:10245000D923019680939523909396233ACF809128
:10246000D6239091D723019680939323909394231E
:1024700027CF8091D4239091D523019680939123E7
:102480009093922314CF8091D2239091D3230196DD
:1024900080938F239093902301CF8091D0239091AC
:1024A000D123019680938D2390938E23EECE80913D
:1024B000CE239091CF23019680938B2390938C23EE
:1024C000DBCE8091CC239091CD23019680938923FC
:1024D00090938A23C8CE8091CA239091CB230196F2
:1024E0008093872390938823B5CE8091FD238983A1
:1024F0008091FE238A838091FF238B8315CF909157
:10250000FA239C839091FB239D839091FC239E83CF
:10251000813009F009CFE9CFFF920F931F93CF933A
:10252000DF9300D000D0CDB7DEB7FC010081118170
:1025300000FF07C08091680686FF2DC180E480936C
:10254000670601FF07C08091880686FF13C180E4FB
:102550008093870602FF07C08091A80686FFF9C016
:1025600080E48093A70603FF0BC08091680687FD77
:10257000A8C180E8809365068091C82383FD72C15D
:1025800004FF0BC08091880687FD9FC180E880937F
:1025900085068091C82384FD6FC105FF0BC0809123
:1025A000A80687FD8AC180E88093A5068091C8238C
:1025B00085FD6CC106FF07C08091280686FD33C1EA
:1025C00080E48093270607FF07C08091280685FDD9
:1025D00019C180E28093270610FF07C080911F2356
:1025E000882309F4A3C010921F2311FF07C0809114
:1025F0001E23882309F487C010921E23C801882750
:102600009370892B11F180911E2390911F231C82BE
:102610001D821E8219821A821B82913009F440C1E8
:10262000813009F411C183E88093A200F090A30BDC
:102630001092A30BBE016F5F7F4FCE0104960ED5A3
:10264000F092A30B87E88093A20012FF07C080914D
:10265000A80680FF45C081E08093A70613FF07C04E
:102660008091880680FFBBC081E08093870614FFBD
:1026700007C08091680680FF9FC081E08093670655
:1026800015FF16C08091480680FDE8C081E0809368
:1026900045068091C8239091C92395FF09C0809178
:1026A000E4239091E52301968093A1239093A223A4
:1026B0008091BC239091BD23802791278093BC23D8
:1026C0009093BD230093BA231093BB2381E02696F9
:1026D000CDBFDEBFDF91CF911F910F91FF90089585
:1026E00081E08093A5068091C8239091C92392FF31
:1026F000B5CF8091DE239091DF23019680939B23B9
:1027000090939C23ABCF81E080931E238091C823BC
:102710009091C92391FF72CF8091DC239091DD23AA
:1027200001968093992390939A2368CF81E08093B8
:102730001F238091C8239091C92390FF56CF809189
:10274000DA239091DB23019680939723909398232B
:102750004CCF80E48093A5068091C82382FF03CFED
:102760008091CE239091CF23019680938B239093D9
:102770008C23F9CE80E4809385068091C82381FF65
:10278000E9CE8091CC239091CD230196809389232B
:1027900090938A23DFCE80E4809365068091C823DE
:1027A00080FFCFCE8091CA239091CB230196809356
:1027B000872390938823C5CE81E08093650680911E
:1027C000C8239091C92394FF5BCF8091E22390911D
:1027D000E323019680939F239093A02351CF81E020
:1027E000809385068091C8239091C92393FF3FCFA2
:1027F0008091E0239091E123019680939D23909313
:102800009E2335CF80E2809326068091C82387FFE0
:10281000E3CE8091D8239091D9230196809395237C
:1028200090939623D9CE80E4809326068091C82386
:1028300086FFC9CE8091D6239091D72301968093AD
:10284000932390939423BFCE8091FD23898380911D
:10285000FE238A838091FF238B83E5CE81E08093E2
:10286000470626CF8091D0239091D1230196809363
:102870008D2390938E2384CE8091D2239091D32365
:10288000019680938F239093902387CE8091D423B9
:102890009091D523019680939123909392238ACE91
:1028A0009091FA239C839091FB239D839091FC232C
:1028B0009E83813009F0B7CEC7CF80E88093A7060A
:1028C00079CE80E8809367065BCE80E880938706A8
:1028D00064CE1F93CF93DF9300D000D0CDB7DEB787
:1028E0001C821D821E8219821A821B82813021F174
:1028F000613049F48091FD2389838091FE238A838E
:102900008091FF238B8383E88093A2001091A30B17
:102910001092A30BBE016F5F7F4FCE0104969ED332
:102920001093A30B87E88093A2002696CDBFDEBF4D
:10293000DF91CF911F9108958091FA238C8380912C
:10294000FB238D838091FC238E83D2CF8F929F9225
:10295000AF92BF92CF92DF92EF92FF920F93CF93FD
:10296000DF93EC0168307105D8F16034710508F42B
:1029700075C06038710508F452C06F3F710509F0E9
:1029800008F48BC0693582E07807F0F46B01E12C24
:10299000F12C60E072E18AE790E0A70196010E94C5
:1029A000272849015A0160E074E284EF90E0A70112
:1029B00096010E942728BA01A901EE24E39401E0C0
:1029C000940162E0CE01D3D7DF91CF910F91FF90B8
:1029D000EF90DF90CF90BF90AF909F908F90089531
:1029E0006B01E12CF12C64E274EF80E090E0A70130
:1029F00096010E94272849015A0168E478EE81E097
:102A000090E0A70196010E942728BA01A901EE24AF
:102A1000E39401E0940166E0CE01A9D7D5CF6B0124
:102A2000E12CF12C60E874E88EE190E0A7019601BA
:102A30000E94272849015A0160E079E08DE390E087
:102A4000A70196010E942728BA01A901EE24E39468
:102A500001E0940164E0CE018AD7B6CF6B01E12C8E
:102A6000F12C60E970ED83E090E0A70196010E94EF
:102A7000272849015A0160E271EA87E090E0A70146
:102A800096010E942728BA01A901EE24E39401E0EF
:102A9000940165E0CE016BD797CF6B01E12CF12C4F
:102AA00060E079E08DE390E0A70196010E9427287D
:102AB00049015A0160E072E18AE790E0A7019601BE
:102AC0000E942728BA01A901EE24E39401E09401B1
:102AD00063E0CE014CD778CF8F929F92AF92BF9296
:102AE000CF92DF92EF92FF920F93CF93FC01C081C0
:102AF000C0FF05C08091A923882309F45BC0C1FFF2
:102B000004C08091AA23882371F0C093052481E03A
:102B1000CF910F91FF90EF90DF90CF90BF90AF904B
:102B20009F908F90089581E0809386068AEA8A9527
:102B3000F1F700C0C0901724D0901824E8E0CE161A
:102B4000D10408F449C0F0E4CF16D10408F463C0FE
:102B500080E8C816D10408F47DC0EFEFCE16D1048A
:102B600009F008F496C0F9E5CF16F2E0DF06F0F4BC
:102B7000E12CF12C60E072E18AE790E0A701960178
:102B80000E94272849015A0160E074E284EF90E036
:102B9000A70196010E942728BA01A901EE24E39417
:102BA00001E0940162E080E09AE0E1D681E0809368
:102BB000AA23ABCF81E08093A606FAEAFA95F1F753
:102BC00000C0609114247091152480E09BE0BEDE6B
:102BD00081E08093A92393CFE12CF12C64E274EF80
:102BE00080E090E0A70196010E94272849015A0140
:102BF00068E478EE81E090E0A70196010E94272822
:102C0000BA01A901EE24E39401E0940166E080E0BA
:102C10009AE0ADD6CBCFE12CF12C60E970ED83E0EA
:102C200090E0A70196010E94272849015A0160E21D
:102C300071EA87E090E0A70196010E942728BA0177
:102C4000A901EE24E39401E0940165E080E09AE0BC
:102C50008ED6ACCFE12CF12C60E874E88EE190E0E8
:102C6000A70196010E94272849015A0160E079E0F6
:102C70008DE390E0A70196010E942728BA01A901DF
:102C8000EE24E39401E0940164E080E09AE06FD6E2
:102C90008DCFE12CF12C60E079E08DE390E0A7018D
:102CA00096010E94272849015A0160E072E18AE7F3
:102CB00090E0A70196010E942728BA01A901EE24FD
:102CC000E39401E0940163E080E09AE050D66ECF97
:102CD0000F93CF93DF9320E048E164E080E696E035
:102CE000D8D520E048E165E080E696E0D2D520E046
:102CF00048E164E080E896E0CCD520E048E165E07A
:102D000080E896E0C6D520E048E164E080EA96E0FD
:102D1000C0D520E048E165E080EA96E0BAD500E061
:102D200020E140E061E080E696E0E0D520E140E08F
:102D300061E080E896E0DAD520E140E061E080EAF9
:102D400096E0D4D521E040E060E080E496E0B6D59E
:102D500021E040E060E080E696E0B0D521E040E090
:102D600060E080E896E0AAD521E040E060E080EAFB
:102D700096E0A4D521E040E066E080E296E09ED5B2
:102D800021E040E065E080E296E098D520E040E078
:102D900065E080E496E092D521E040E066E080E6E0
:102DA00096E08CD521E040E067E080E696E086D5AD
:102DB00021E040E066E080E896E080D521E040E058
:102DC00067E080E896E07AD521E040E066E080EABE
:102DD00096E074D521E040E067E080EA96E06ED5A9
:102DE00080E496E021E0FC012683C0E6D6E02E8355
:102DF000A0E8B6E016962C93169760EA76E0FB0101
:102E0000268320E236E040E4F901458350E2558311
:102E1000FC0156834E8380E88E8316964C9316975A
:102E200016968C93FB0146838683DF91CF910F9199
:102E300008958091B4238E7F8093B4239091680687
:102E400092959170982B9093B4238091042480FFE5
:102E500004C061E080E20E940D2218958091B423A5
:102E60008D7F8093B4239091880694FF02C092E0F6
:102E700001C090E0892B8093B4238091042480FFCB
:102E800004C061E080E20E940D2218958091B42375
:102E90008B7F8093B4239091A80694FF02C094E0A6
:102EA00001C090E0892B8093B4238091042480FF9B
:102EB00004C061E080E20E940D2218958091A52354
:102EC0008823D9F080912C248823B9F08091342470
:102ED0009091352401978093260B9093270B809136
:102EE0003C2490913D248093280B9093290B809152
:102EF00030248093000B10922C248091A9238823E6
:102F000041F08091042483FF04C061E08CE50E94BD
:102F10000D2218958091A923882371F080911D239B
:102F2000882351F010921D2381E08093A60680E053
:102F30009BE035D51092A92318958091A62388236C
:102F4000D9F080912D248823B9F080913624909176
:102F5000372401978093260A9093270A80913E2474
:102F600090913F248093280A9093290A80913124DC
:102F70008093000A10922D248091AA23882341F087
:102F80008091042484FF04C061E08EE50E940D223C
:102F900018958091AA23882371F080911C2388239F
:102FA00051F010921C2381E08093860680E09AE025
:102FB000F6D41092AA2318958091A7238823D9F0DC
:102FC00080912E248823B9F080913824909139245F
:102FD000019780932609909327098091402490912E
:102FE0004124809328099093290980913224809369
:102FF000000910922E2418958091A8238823D9F0D7
:1030000080912F248823B9F080913A2490913B2419
:1030100001978093260890932708809142249091ED
:103020004324809328089093290880913324809327
:10303000000810922F2418950E9425018091A2006B
:1030400087688093A2007894FFCFE0E4F6E0808167
:103050008062808380E2809346060895FC01DB0154
:103060008081809344248181809345248281809350
:1030700046248C918093472411968C9111978093CC
:10308000482412968C918093492496C0009345065B
:103090000000000000000000000000000000000030
:1030A0000093460600000000000000000000000041
:1030B0000000000000000000000000000000000010
:1030C0000000000000000000000000000000000000
:1030D0000895009345060000000000000000000075
:1030E00000000000000000000000000000000000E0
:1030F00000000000000000000000000000000000D0
:1031000000000093460600000000000000000000E0
:1031100000000000000000000000000000000000AF
:103120000000089500934506000000000000000024
:1031300000000000000000000093460600000000B0
:10314000000000000000000000000000000000007F
:10315000000000000000000000000000000000006F
:1031600000000000000008950093450600000000E4
:10317000000000000000000000000000000000004F
:10318000000000000000000000000000000000003F
:103190000000000000000000009346060000000050
:1031A000000000000000000000000000000000001F
:1031B00000000000000008950F930F9200E2E4E485
:1031C000F4E20080019007FE61DF07FC82DF06FE6B
:1031D0005DDF06FC7EDF05FE59DF05FC7ADF04FEBD
:1031E00055DF04FC76DF03FE51DF03FC72DF02FED5
:1031F0004DDF02FC6EDF01FE49DF01FC6ADF00FEED
:1032000091DF00FCB1DF019007FE40DF07FC61DFCA
:1032100006FE3CDF06FC5DDF05FE38DF05FC59DFFE
:1032200004FE34DF04FC55DF03FE30DF03FC51DF16
:1032300002FE2CDF02FC4DDF01FE28DF01FC49DF2E
:1032400000FE70DF00FC90DF019007FE1FDF07FC2F
:1032500040DF06FE1BDF06FC3CDF05FE17DF05FC3A
:1032600038DF04FE13DF04FC34DF03FE0FDF03FC52
:1032700030DF02FE0BDF02FC2CDF01FE07DF01FC6A
:1032800028DF00FE4FDF00FC6FDF019007FEFEDE4F
:1032900007FC1FDF06FEFADE06FC1BDF05FEF6DE7E
:1032A00005FC17DF04FEF2DE04FC13DF03FEEEDE96
:1032B00003FC0FDF02FEEADE02FC0BDF01FEE6DEAE
:1032C00001FC07DF00FE2EDF00FC4EDF019007FE51
:1032D000DDDE07FCFEDE06FED9DE06FCFADE05FEBC
:1032E000D5DE05FCF6DE04FED1DE04FCF2DE03FED4
:1032F000CDDE03FCEEDE02FEC9DE02FCEADE01FEEC
:10330000C5DE01FCE6DE00FE0DDF00FC2DDF0190D6
:1033100007FEBCDE07FCDDDE06FEB8DE06FCD9DEFD
:1033200005FEB4DE05FCD5DE04FEB0DE04FCD1DE15
:1033300003FEACDE03FCCDDE02FEA8DE02FCC9DE2D
:1033400001FEA4DE01FCC5DE00FEECDE00FC0CDFAD
:103350000F900F9108955058BB27AA270ED048C14F
:1033600039D130F03ED120F031F49F3F11F41EF4FA
:103370002EC10EF4E095E7FB24C1E92F4AD180F37A
:10338000BA17620773078407950718F071F49EF562
:1033900062C10EF4E0950B2EBA2FA02D0B01B901DE
:1033A00090010C01CA01A0011124FF27591B99F0BB
:1033B000593F50F4503E68F11A16F040A22F232FC7
:1033C000342F4427585FF3CF469537952795A79517
:1033D000F0405395C9F77EF41F16BA0B620B730BBE
:1033E000840BBAF09150A1F0FF0FBB1F661F771F2F
:1033F000881FC2F70EC0BA0F621F731F841F48F4E4
:10340000879577956795B795F7959E3F08F0B3CF69
:103410009395880F08F09927EE0F97958795089553
:103420000CD0E6C0DED040F0D5D030F021F45F3FC4
:1034300019F0C7C0511110C1CAC0EBD098F399233D
:10344000C9F35523B1F3951B550BBB27AA27621768
:103450007307840738F09F5F5F4F220F331F441FAD
:10346000AA1FA9F333D00E2E3AF0E0E830D09150E5
:103470005040E695001CCAF729D0FE2F27D0660FD2
:10348000771F881FBB1F261737074807AB07B0E811
:1034900009F0BB0B802DBF01FF2793585F4F2AF027
:1034A0009E3F510568F08DC0D7C05F3FECF3983E5A
:1034B000DCF3869577956795B795F7959F5FC9F784
:1034C000880F911D9695879597F90895E1E0660F0D
:1034D000771F881FBB1F621773078407BA0720F086
:1034E000621B730B840BBA0BEE1F88F7E0950895EF
:1034F00098D088F09F5790F0B92F9927B751A0F036
:10350000D1F0660F771F881F991F1AF0BA95C9F777
:1035100012C0B13081F09FD0B1E008959CC0672FF8
:10352000782F8827B85F39F0B93FCCF38695779527
:103530006795B395D9F73EF4909580957095619510
:103540007F4F8F4F9F4F0895E89409C097FB3EF43B
:1035500090958095709561957F4F8F4F9F4F9923E0
:10356000A9F0F92F96E9BB279395F695879577955E
:103570006795B795F111F8CFFAF4BB0F11F460FF1E
:103580001BC06F5F7F4F8F4F9F4F16C0882311F076
:1035900096E911C0772321F09EE8872F762F05C08A
:1035A000662371F096E8862F70E060E02AF09A9525
:1035B000660F771F881FDAF7880F9695879597F91A
:1035C000089597F99F6780E870E060E008959FEFA5
:1035D00080EC089500240A941616170618060906AA
:1035E000089500240A941216130614060506089579
:1035F000092E0394000C11F4882352F0BB0F40F401
:10360000BF2B11F460FF04C06F5F7F4F8F4F9F4F40
:10361000089557FD9058440F551F59F05F3F71F0C2
:103620004795880F97FB991F61F09F3F79F0879529
:103630000895121613061406551FF2CF4695F1DFB2
:1036400008C0161617061806991FF1CF8695710542
:10365000610508940895E894BB2766277727CB0176
:1036600097F908950BD0C4CFB5DF28F0BADF18F072
:10367000952309F0A6CFABCF1124EECFCADFA0F37C
:10368000959FD1F3950F50E0551F629FF001729FF7
:10369000BB27F00DB11D639FAA27F00DB11DAA1F16
:1036A000649F6627B00DA11D661F829F2227B00D63
:1036B000A11D621F739FB00DA11D621F839FA00DEE
:1036C000611D221F749F3327A00D611D231F849F3E
:1036D000600D211D822F762F6A2F11249F57504095
:1036E0008AF0E1F088234AF0EE0FFF1FBB1F661F30
:1036F000771F881F91505040A9F79E3F510570F0E9
:1037000060CFAACF5F3FECF3983EDCF386957795C8
:103710006795B795F795E7959F5FC1F7FE2B880FE3
:10372000911D9695879597F90895222309F45BC01A
:1037300030E23093520038E0309350003091510025
:1037400033FFFCCF611538E4730738EE830731E0AF
:10375000930709F482C0611534E2730734EF8307DD
:10376000910509F47CC0611532E173073AE78307DC
:10377000910509F44BC0611539E073073DE38307F8
:10378000910509F46EC0603834E873073EE18307A1
:10379000910509F460C0603432E473073FE08307A9
:1037A000910509F462C0603231EA730737E083079C
:1037B000910509F458C0603930ED730733E0830791
:1037C000910509F454C0683438EE730731E083077B
:1037D000910509F44EC06432744F8105910509F0DA
:1037E0004AC084E414C032E2309352003AE030938D
:1037F00050003091510031FFFCCF3091510033FD2A
:10380000A1CF3091510033FFF8CF9CCF8CE098EDE1
:1038100094BF222399F023E02093400094BF80932B
:103820004100442329F088ED84BF81E08093420069
:1038300088ED84BF81E080938000089521E020938B
:10384000400094BF8093410094BF82E08093560073
:1038500020936000E6CF8CE1DACF80E0D8CF84E01F
:10386000D6CF84E1D4CF8CE2D2CF84E2D0CF84E330
:10387000CECF8CE3CCCF80E0089588ED84BF81E08B
:1038800080938000089588ED84BF83E0809380005A
:10389000FFCFFC01308181E090E0062E01C0880F4F
:1038A0000A94EAF78095832380837096E60FF11DD2
:1038B0008081422B807C482B40830895FC0130811D
:1038C00081E090E0062E01C0880F0A94EAF7382BB9
:1038D00030837096E60FF11D8081807C842B80837D
:1038E000211103C080818760808308950F93FC01BC
:1038F0003185842F90E0880F991FA3E0B0E0082E57
:1039000001C0AA0F0A94EAF7A095A323082E01C0CC
:10391000660F0A94EAF7A62BA18741110FC0002376
:10392000A9F02287248581E090E0042E01C0880F51
:103930000A94EAF7282B24870F910895413091F7D4
:10394000011108C08385822B8387ECCF8285822B6F
:103950008287E8CF2387E6CFFC0110828CE0818745
:103960004150510946A357A3268360830895EF92DF
:103970000F93FC0110828CE081874150510946A3CE
:1039800057A320A731A70683E78283E18183608361
:103990000F91EF900895FC01848581700895FC01DA
:1039A00010822CE0218708954F925F926F927F9250
:1039B0008F929F92AF92BF92EF92FF920F931F93BD
:1039C0002B013C0149015A0120E030E0A901C50169
:1039D000B4010E94EB27882309F43EC0C301B20161
:1039E000B3DDA50194011CDD20E030E040E05FE3A1
:1039F000B3DC7EDD6115710521E082079105A0F43D
:103A000021E0F8012083F7016083718381E01F9139
:103A10000F91FF90EF90BF90AF909F908F907F900D
:103A20006F905F904F9008959695879577956795DD
:103A300061157105F1E08F07910580F096958795E6
:103A40007795679561157105F1E08F07910550F441
:103A500023E0F8012083D7CF80E0D9CF22E0F8011E
:103A60002083D1CF969587957795679561157105D8
:103A7000F1E08F07910588F0A3E0969587957795FB
:103A80006795AA95D1F761157105F1E08F0791054A
:103A900040F425E0F8012083B6CF24E0F80120832C
:103AA000B2CF9695879577956795969587957795F3
:103AB000679561157105F1E08F07910520F426E007
:103AC000F8012083A0CF9695879577956795969571
:103AD00087957795679561157105F1E08F079105D9
:103AE00008F0BACF27E0F80120838DCFFC011082C7
:103AF0008CE081874150510946A357A326836083F8
:103B000008952091CF0127FDFCCF8093C0019093B1
:103B1000C1011092C20186E08093CA0188ED84BF82
:103B200081E08093CB018091C40108952091CF0161
:103B300027FDFCCF2091CF0121FF08C026E3209371
:103B4000CA0128ED24BF21E02093CB0123E3209379
:103B5000CA018093C0019093C1011092C201609389
:103B6000C40185E38093CA0188ED84BF81E080931E
:103B7000CB010895FF920F931F93CF93DF938C0196
:103B8000C7E0D0E0F12C08C0F1100BC0CE01CEDFB1
:103B90002196C032D10571F0F80161918F01611158
:103BA000F3CF60E0CE01C2DFFF24F3942196C03250
:103BB000D10591F7DF91CF911F910F91FF9008955B
:103BC000CF93962F803208F47FC0282F30E0205208
:103BD0003109F901E858FD4D5081220F331FF901D9
:103BE000E652FE4DC081F901E45CFE4D2081318139
:103BF000209326233093272390934D24252F2F7035
:103C00002C9FC02D1124EAE0EC0FE0934E2480930A
:103C10004F242FEF20935024506150935124411191
:103C20006BC08091222390912323A0912423B091F3
:103C300025238093522490935324A0935424B0932B
:103C40005524209120233091212320935624309312
:103C500057248E2F90E08E3F9105A4F520912623C6
:103C60003091272340E0842F90E0F901E80FF91FFD
:103C70005081FC01E85AFB4D50834F5F4C13F3CF4A
:103C800020914E242E5F30E0215031091216130688
:103C90000CF09EC080E090E040E050E0FC01E35B6F
:103CA000FB4D8081580F4F5F842F90E08217930760
:103CB000ACF3F901E35BFB4D50838091C722813067
:103CC00009F46BC0CF9108958D30E0F7282F30E0D4
:103CD000F901E25FFC4D5081220F331FF901EC50D6
:103CE000FD4DC081F901E652FD4D208131812093C7
:103CF00026233093272380CF20914C0840913A23EC
:103D000050913B2360913C2370913D2320FF21C0C3
:103D10004F5F5F4F6F4F7F4F409352245093532418
:103D20006093542470935524209160083091610869
:103D30002093562430935724883009F08ACF93304B
:103D400009F087CF1092562410925724E0914E2408
:103D500080CF409352245093532460935424709303
:103D600055242091600830916108209356243093A7
:103D70005724F0912B23F03DF9F62F303105E0F672
:103D80004F5F5F4F6F4F7F4F4093522450935324A8
:103D90006093542470935524CFCF83E88093A2007E
:103DA000C091A30B9091A30B9C7F9093A30B609168
:103DB0004E246E5F8DE494E217D79091A30B8C2F65
:103DC0008370892B8093A30B87E88093A2007ACF1E
:103DD00050E06FCFCF93E091503D2E2F30E0243054
:103DE0003105BCF090E020E030E0F901EC5AF24CF3
:103DF0004081F901E65AF24C40839F5F292F30E061
:103E0000E091503D4E2F50E04350510924173507A3
:103E100064F380934F3DEA5FE093503D8091533DC2
:103E200080618093533D80914C0880FF40C0809119
:103E30003A2390913B23A0913C23B0913D230196DE
:103E4000A11DB11D8093543D9093553DA093563DC7
:103E5000B093573D80916008909161088093583DE0
:103E60009093593DF0E0E05BF24C10826091503D40
:103E700040E0262F30E080E090E0F901E05BF24C7A
:103E8000DC01A15BB24C20818C91280F20834F5F15
:103E90006091503D262F30E0842F90E0281739079D
:103EA00064F78091C722813079F1CF910895809194
:103EB0003A2390913B23A0913C23B0913D238093E2
:103EC000543D9093553DA093563DB093573D20915E
:103ED0006008309161082093583D3093593D4091DE
:103EE0002B23403D09F0BECF2F30310508F0BACF6B
:103EF0000196A11DB11D8093543D9093553DA09313
:103F0000563DB093573DAECF83E88093A200C09159
:103F1000A30B9091A30B9C7F9093A30B6E5F8FE4F8
:103F20009DE362D69091A30B8C2F8370892B809395
:103F3000A30B87E88093A200CF9108953F924F9200
:103F40005F926F927F928F929F92AF92BF92CF9229
:103F5000DF92EF92FF920F931F93CF93DF93CDB732
:103F6000DEB73C01962E142FF22E4D885E8885DC3C
:103F700021E041E060E078E488EE91E0D6DB81E08A
:103F800080934800609231237092322390923323C1
:103F900010933423E09235238093362384E080937A
:103FA0003723F09238230093392310923A2310924A
:103FB0003B2310923C2310923D2310923E231092FB
:103FC0003F2382E090E09DDD382E83E090E099DD94
:103FD000982E8FEF981609F4B7C0F31409F489C02E
:103FE0006FED80E090E0A2DD6F2D82E090E09EDD3D
:103FF00061E083E090E09ADD0E94B40180E090E00F
:1040000080DD8E3E09F480C080E68093402380E40A
:10401000809341230E941F020E94F502A0922F2349
:10402000B0923023C0922D23D0922E2380922C2345
:1040300087E090E066DD8F3F09F4BDC002E413E243
:10404000E6EFEE2EFF24FA94C701815393427C01E0
:10405000C701800F911F55DDF80181938F01F3E2B5
:104060000B351F07A9F789E1E2E4F3E2ABE5B3E220
:1040700001900D928A95E1F721E042E15AE767E06D
:1040800080E498E033DDE0912B2381E08E0F809374
:104090002B23F0E0EE52FD4D808190E0019780935C
:1040A00068089093690881E08093470820E040E029
:1040B00066E080E096E002DC80E48093050640E064
:1040C00060E081E090E07BD4D9D48AE393E2DF9191
:1040D000CF911F910F91FF90EF90DF90CF90BF9005
:1040E000AF909F908F907F906F905F904F903F9098
:1040F000A9C691E0991274CF0E94B40180E090E0CB
:1041000000DD8E3E09F080CF81E090E0FADC809304
:104110004023A114B10491F0760185010C0D1D1D01
:10412000F0E26F2E712CC301ECDCF70181937F016B
:10413000FFEF6F1A7F0AE016F106A9F780E8809377
:1041400041230E94F5026ACF6F2D82E090E0EEDC01
:1041500061E083E090E0EADC82E090E0D2DC382E9F
:1041600083E090E0CEDC982E8201A7E06A2E712CCD
:10417000E12C0BC0E1100EC0C301D8DCFFEF6F1AB9
:104180007F0A80E26816710489F0F80161918F015D
:104190006111F0CF60E0C301C9DCEE24E394FFEFCE
:1041A0006F1A7F0A80E26816710479F76FED80E07C
:1041B00090E0BCDC12CF720107E010E0D12C0AC005
:1041C000D1100DC0C801B2DC0F5F1F4F00321105C6
:1041D00009F434CFF70161917F016111F1CF60E003
:1041E000C801A4DCDD24D394EFCF0E944C0120E46D
:1041F00080E092EEA4E0B0E00197A109B109009738
:10420000A105B105C9F720930706F2CF80913A23A3
:1042100090913B23A0913C23B0913D230196A11D99
:10422000B11D80933A2390933B23A0933C23B093FA
:104230003D2380917F238F5F80937F238EE090E0EA
:10424000809368089093690881E080932B230E94F3
:104250006B0380914C08806180934C080E94A903F5
:104260000E94DB044091402347FD03C0842F8370EC
:10427000B1C0842F8370813009F0ACC08AE393E22F
:10428000809326239093272383E080934D248EE010
:1042900080934E2488E080934F248FEF80935024A6
:1042A00084E18093512480914C0880FF18C0809154
:1042B0003A2390913B23A0913C23B0913D2301965A
:1042C000A11DB11D8093522490935324A093542494
:1042D000B0935524809160089091610826C0809128
:1042E0003A2390913B23A0913C23B0913D238093AE
:1042F000522490935324A0935424B0935524209196
:1043000060083091610850912B23503D71F42F309B
:10431000310558F40196A11DB11D8093522490934C
:104320005324A0935424B0935524109256241092F1
:10433000572480913A2390913B23A0913C23B09144
:104340003D238093582490935924A0935A24B093EA
:104350005B2420914E242E5F30E02150310912164B
:10436000130684F450E060E080E090E0FC01E35B41
:10437000FB4D8081680F5F5F852F90E08217930768
:10438000ACF301C060E0F901E35BFB4D6083809119
:10439000C722813021F583E88093A200C091A30B4E
:1043A0009091A30B9C7F9093A30B60914E246E5F22
:1043B0008DE494E219D49091A30B8C2F8370892BF8
:1043C0008093A30B87E88093A20040914023842F21
:1043D000837000C0882339F0813019F400C092E066
:1043E00003C091E001C094E080913A23892321F039
:1043F00080E48093060605C046FF03C080E48093F6
:1044000005060E94A80380914C0884FF05C0809196
:104410002A23811101C0E9DE189590914023937001
:10442000913009F00895462F63E0CACBCF92DF9216
:10443000FF920F931F93CF93DF931F921F92CDB7DD
:10444000DEB78D3040F4E82FF0E0DF01A25FBC4D15
:104450009C91961759F080E00F900F90DF91CF91CB
:104460001F910F91FF90DF90CF900895EE0FFF1FE7
:10447000EC50FD4D608171816217730761F78830E0
:1044800009F49CC08A3009F456C08B30F9F08C30A6
:1044900011F78A01B7E0CB2ED12CF12C0CC0F11012
:1044A0000FC0C60143DBFFEFCF1ADF0A80E2C81658
:1044B000D10409F43BC0F80161918F016111EFCF84
:1044C00060E0C60133DBFF24F394EDCFFA01808175
:1044D000813009F4B5C0823009F4A2C0843011F0F3
:1044E00081E0BACF6EEE80E090E020DB6091402367
:1044F00081E090E01BDB80912F2390913023892B6A
:10450000A9F000E010E0E0912D23F0912E23E00FC0
:10451000F11F6081C801809609DB0F5F1F4F8091FA
:104520002F23909130230817190768F383E08093B5
:104530002A2381E091CFFA01808186FD04C080E4C6
:1045400080930606808110914023837F80934023CF
:10455000FA01808185FF41C015FF59C083FF10C05B
:1045600081E08093772310927523809376231092B5
:10457000742380914023877F80934023FA018081B8
:10458000837079F4812F837009F4AACF1092772376
:1045900049835A830E94680349815A81FA018081C4
:1045A0008370813029F1833009F09ACF1370133072
:1045B00009F496CF0E946A0381E04ECFFA01808110
:1045C0009181A281B38180933A2390933B23A0935E
:1045D0003C23B0933D2381E03FCF15FFBFCF4983FC
:1045E0005A830E94670349815A81FA018081B6CFBC
:1045F000812F8370813009F473CF49835A830E94DD
:10460000690349815A81FA0180818370CCCF498343
:104610005A830E94660349815A81FA0180819ECFA4
:1046200080E090E049835A836CDA49815A818E3E5A
:1046300009F011CF83E080932A23FA0180814ECFC5
:104640008BE593E249835A8395DA6FED80E090E041
:104650006DDA83E080932A2349815A81FA018081AF
:104660003ACF0E946B038091680890916908E091AD
:104670002B2321E02E0F20932B23E770F0E0EE5246
:10468000FD4D3081830F911D8093680890936908D8
:1046900020FD26C18091C722813069F480932507CF
:1046A00083E88093A2008091A30B8F7C8093A30B5F
:1046B00087E88093A20080917E23811103C08091BE
:1046C0007D230FC0815080937E23882319F0809131
:1046D0007D2307C010927E2310927D2310927823B1
:1046E0009BC0882309F498C0A0914D25B0914E2518
:1046F0008091503D8F3F59F01091513D5091523D66
:104700000091533D24E5E22E2DE3F22E0AC01091D4
:10471000533D5091543D0091553D96E5E92E9DE362
:10472000F92EFD01319681F090E040E020E030E08C
:10473000E901C15BD24C2881420F9F5F292F30E0F5
:104740002E173F07A8F301C040E0E15BF24C9081D7
:10475000491360C05F3F09F05DC090914F3D9130BB
:1047600089F51D31B0F41D3008F01EC1E12FF0E0D5
:10477000E25FFC4D9081091317C1193009F00FC198
:10478000809160089091610880933E2390933F232D
:1047900006C1602F812F0E94E2049091402394FD76
:1047A00039C0811103C08091503D05C041E061E0F6
:1047B000812F06DA2FC090E0883F91055CF589E0F3
:1047C00009DB28C0CD010497202F2F70622F70E0E5
:1047D0002AD41D3130F49B01A701602F812F26DEE2
:1047E00006C09B01A701602F812F0E94FB049091BE
:1047F000402394FD0FC0882329F041E062E0812F1F
:10480000DFD908C08091503D90E0883F910514F4B5
:104810008AE0E0DA10927D238091C722813009F08E
:104820005CC08091080786FF46C080912823909144
:1048300029230196883B2BE0920729F080932823B7
:10484000909329233CC01092282310922923809111
:104850004023982F93709130E9F486FD03C090E4D3
:1048600090930606982F907F9093402383FF0BC070
:104870001092752381E08093762310927423892F00
:10488000877F80934023109277230E946803909142
:10489000C72201C091E010927B2310927C231092DA
:1048A000792310927A238091A30B8C7F8093A30BA2
:1048B000913029F012C0109228231092292383E806
:1048C0008093A2008091A30B80638093A30B87E861
:1048D0008093A20081E0809326070E94AA0302C071
:1048E0000E94DB0480912A23882339F08150809331
:1048F0002A23811102C00E94431C809176238823C1
:10490000E1F080912B2383708230B9F4809174237D
:104910008D3060F4893009F04CC0209160083091EE
:10492000610820933E2330933F2343C08F5F8093E1
:1049300074238C3111F4109276238091772388238D
:1049400009F180912B238370E9F480917523E82F7E
:10495000F0E0E858FD4D6081805E0E94E20488230B
:1049600031F08091752341E061E0805E29D980912A
:1049700075238F5F8093752390912C23891302C038
:10498000109277230E94A80380914C0884FF05C0F1
:1049900080912A23811101C028DC189510C08091D4
:1049A000402384FF03CF36CF9091402394FF03CF61
:1049B00031CF41E061E004D980917423B7CFFF92F9
:1049C0000F931F93CF93DF931F921F92CDB7DEB744
:1049D00089839A83F62E142F20E040E060E080E285
:1049E00097E00E945E1C20E040E066E080E097E0F7
:1049F0000E94491C01E020E440E063E080E097E091
:104A00000E94761C81E08093260783E08093A50BAB
:104A100089818093A60B8F2D90E18902B00111242A
:104A20008A818F70862B8093A70B112329F08091A8
:104A3000A40B84608093A40B88E08093A50620E0FB
:104A400040E063E080EA96E00E945E1C20E040E0E7
:104A500062E080EA96E00E94491C8091080786FF88
:104A600005C08091A30B8C7F8093A30B0F900F90B8
:104A7000DF91CF911F910F91FF900895E0EAFBE045
:104A800084818861848380EE8183838180638383D2
:104A900008951F920F920FB60F92112408B60F922D
:104AA00018BE09B60F9219BE0BB60F921BBE2F93FC
:104AB0003F934F935F936F937F938F939F93AF93A6
:104AC000BF93EF93FF930E94DE0420917B233091EC
:104AD0007C23C901019680937B2390937C23F90169
:104AE000E15BFA4D20812093A00B811528E192070C
:104AF00029F12091792330917A232817390729F455
:104B00008091A30B8C7F8093A30B0E94DF04FF9105
:104B1000EF91BF91AF919F918F917F916F915F9135
:104B20004F913F912F910F900BBE0F9009BE0F90A8
:104B300008BE0F900FBE0F901F90189510927B2308
:104B400010927C2380E090E0D4CF1F920F920FB69A
:104B50000F92112408B60F9218BE09B60F9219BE13
:104B60000BB60F921BBE2F933F934F935F936F93A0
:104B70007F938F939F93AF93BF93EF93FF930E9485
:104B8000E0048091080786FD29C020917B233091A5
:104B90007C238091792390917A232817390729F073
:104BA0008091A30B83608093A30B0E94E104FF918B
:104BB000EF91BF91AF919F918F917F916F915F9195
:104BC0004F913F912F910F900BBE0F9009BE0F9008
:104BD00008BE0F900FBE0F901F9018958091A30BE9
:104BE0008C7F8093A30BE1CFBF92CF92DF92EF92A5
:104BF000FF920F931F93CF93DF936C01B62E80919A
:104C0000080786FD05C08091A30B83608093A30BEA
:104C10000091792310917A23C0E0D8E1C01BD10B19
:104C2000EB2CF12CCE15DF0558F1A701B601C80118
:104C3000815B9A4D4AD280917B2390917C23E00E38
:104C4000F11EE0927923F0927A23E11428E1F20632
:104C500009F446C008171907A8F5E816F90690F1F7
:104C60008FEFE81AF80AE0927B23F0927C23E1149C
:104C700028E1F20639F510927B2310927C2322C0A2
:104C8000AE01B601C801815B9A4D1FD2BC1AEB2C54
:104C9000F12CBE016C0D7D1DA7018FE495E215D2AC
:104CA00080917B2390917C23E0927923F0927A2368
:104CB0000817190788F42FEFE21AF20AE0927B2313
:104CC000F0927C23DF91CF911F910F91FF90EF9095
:104CD000DF90CF90BF900895E816F90660F7F2CF05
:104CE0001092792310927A23892B61F781E090E06A
:104CF00080937B2390937C23E5CF1F920F920FB676
:104D00000F92112408B60F9218BE09B60F9219BE61
:104D10000BB60F921BBE2F933F934F935F936F93EE
:104D20007F938F939F93AF93BF93EF93FF930E94D3
:104D3000DC049091A00BE091782381E08E0F8093AA
:104D40007823F0E0E15BF24C9083813019F18430FC
:104D500049F190E020914D2530914E25821793071F
:104D600079F10E94DD04FF91EF91BF91AF919F9186
:104D70008F917F916F915F914F913F912F910F9004
:104D80000BBE0F9009BE0F9008BE0F900FBE0F9084
:104D90001F90189580914F3D81508230D0F1109234
:104DA0007823DFCF8091503D8F3F01F190E08E3F1F
:104DB0009105A9F3029680934D2590934E25D1CF6E
:104DC0002091C722213061F12091503D2F3F29F1E0
:104DD00022E030E0821B930B80934D2590934E256B
:104DE0001092782381E080937D23BBCF8091503D4A
:104DF0009091513D04968F3F910509F080F6809186
:104E0000513D9091523D049680934D2590934E25AF
:104E1000A8CF82E380937E23A4CF24E030E0DACFD2
:104E20002093250783E88093A2008091A30B8F7CB9
:104E30008093A30B87E88093A20080914D259091E9
:104E40004E25C2CFCF93DF931F921F92CDB7DEB70F
:104E500023E130E029833A83809381239093822356
:104E600083E08093B50889818093B6088A818F702A
:104E70008093B70820E048E166E080E496E00E9475
:104E8000491C80E18093B408E3EBF8E08081806303
:104E900080830F900F90DF91CF9108951F920F9212
:104EA0000FB60F92112408B60F9218BE09B60F92D2
:104EB00019BE0BB60F921BBE2F938F939F93AF9388
:104EC000BF93EF93FF938091B0088A3AD1F18F3A64
:104ED00009F44CC090918023923009F44BC008F43F
:104EE00072C0943009F452C008F44AC0953061F59C
:104EF000809386231092802380917F238A3008F448
:104F00004BC082EF99E7809360089093610881E03D
:104F10009AE7809368089093690826E02093C82256
:104F2000E0918123F09182238091832390918423C7
:104F3000A0918523B091862380839183A283B3833C
:104F400003C081E080938023FF91EF91BF91AF91E7
:104F50009F918F912F910F900BBE0F9009BE0F90D4
:104F600008BE0F900FBE0F901F90189582E080939F
:104F70008023EACF8093832383E080938023E4CF50
:104F80008093842384E080938023DECF80938523E5
:104F900085E080938023D8CF10927F232091C82270
:104FA00089EF99E7821B91098093600890936108CB
:104FB00081E09AE78093680890936908222309F4B6
:104FC000AFCF2150ABCF992319F0913009F0BCCF6E
:104FD00010928023B9CF03D008F481E00895990F8F
:104FE0000008550FAA0BE0E8FEEF16161706E807B3
:104FF000F907C0F012161306E407F50798F0621BD4
:10500000730B840B950B39F40A2661F0232B242BA8
:10501000252B21F408950A2609F4A140A6958FEFC7
:10502000811D811D0895AA1BBB1B51E107C0AA1F4A
:10503000BB1FA617B70710F0A61BB70B881F991F39
:105040005A95A9F780959095BC01CD010895052E3C
:1050500097FB16F400940FD057FD05D014D007FC31
:1050600002D046F408C050954095309521953F4FA9
:105070004F4F5F4F089590958095709561957F4F44
:105080008F4F9F4F0895A1E21A2EAA1BBB1BFD0153
:105090000DC0AA1FBB1FEE1FFF1FA217B307E40717
:1050A000F50720F0A21BB30BE40BF50B661F771F6F
:1050B000881F991F1A9469F760957095809590954F
:1050C0009B01AC01BD01CF010895FB01DC0102C0D1
:1050D00001900D9241505040D8F70895F894FFCFB9
:1050E0003F0542051511C10E8C12690F2E063506BB
:1050F0003C0643064A06510658066D0677068506A5
:105100009306A106AF06BD06CB06D906E706F5064F
:10511000030711071F072D07000A5E0ABC0A1A0BB6
:105120003F078507CB071108780B8D0C650EC50D61
:10513000150E5B089208C908D608E3086C15EA0842
:10514000410CDA0C000D0F091209150918091B0989
:105150001E092109240927092A092D093F094209A5
:10516000540957095A095D0960097F099E09BD095B
:10517000DC09DF09E209E509E809FB09FE091B056D
:105180004105480549054A054B052D0634063B06F1
:1051900042064906500657066C06760684069206B5
:1051A000A006AE06BC06CA06D806E606F406020746
:1051B00010071E072C073A073B073C073D073E0731
:1051C0008407CA071008730D56085708580859086D
:1051D0005A089108C808D508E208A10DE908B30DDE
:1051E000030904090E091109140917091A091D09EF
:1051F00020092309260929092C093E0941095309D7
:10520000560959095C095F097E099D09BC09DB093A
:10521000DE09E109E409E709FA09FD09B423B52328
:10522000B623B823BA23BC23BE23BF23C023C12384
:10523000C223C323C423C823CA23CC23CE23D02311
:10524000D223D423D623D823DA23DC23DE23E0237E
:10525000E223E423E623E823EA23EC23EE23EF23EF
:10526000F023F123F223F323F423FA23FD23002474
:1052700001240224032404240524062407240824EA
:1052800009240A240B240C240D240E240F2410249A
:1052900011241224132414241624172419241A2444
:1052A0001B241C241D241F242124232425242624DC
:1052B0002724282429242A242B240100010001006A
:1052C00001000100010001000100010001000100D6
:1052D00001000200010001000100010001000100C5
:1052E00001000100010001000100010001000100B6
:1052F00001000100010001000100010001000100A6
:10530000010001000100060003000300010001008C
:105310000100010001000100010001000100010085
:105320000100010001000100010001000100010075
:105330000100010001000100010001000100010065
:105340000100010001000100010001000100010055
:10535000010001000100010001010202020201013D
:1053600001010101820202020202020202020202A1
:105370000202020202020202010101010101010115
:10538000010101010101010101010101010101010D
:1053900001010101010201020101010102020202F7
:1053A0000101010101010101074265686176696F30
:1053B00072000F10100F100F1010312333233423FD
:1053C000352336233723382339233A233E234023FA
:1053D00041234223010001000100010001000100FE
:1053E000010001000100010001000100190002019B
:0C53F000010101010101040201010100A2
:00000001FF
