:10000000FDC0000021C100001FC100001DC1000093
:100010001BC1000019C1000017C1000015C100007C
:1000200013C1000011C100000FC100000DC100008C
:100030000BC1000009C100000C94561305C100005B
:1000400003C1000001C10000FFC00000FDC00000AE
:100050000C945B1CF9C000000C94861EF5C00000D7
:10006000F3C00000F1C00000EFC00000EDC00000D0
:100070000C94A322E9C00000E7C00000E5C0000026
:10008000E3C00000E1C00000DFC00000DDC00000F0
:10009000DBC00000D9C00000D7C00000D5C0000000
:1000A000D3C00000D1C00000CFC000000C94D51216
:1000B000CBC00000C9C00000C7C000000C942013D2
:1000C000C3C00000C1C00000BFC00000BDC0000030
:1000D000BBC00000B9C00000B7C00000B5C0000040
:1000E000B3C00000B1C00000AFC00000ADC0000050
:1000F000ABC00000A9C00000A7C00000A5C0000060
:100100000C94C012A1C000009FC000009DC0000060
:100110009BC0000099C0000097C0000095C000007F
:1001200093C0000091C000008FC000008DC000008F
:100130008BC000000C943B1387C0000085C00000FA
:1001400083C0000081C000007FC000007DC00000AF
:100150007BC0000079C0000077C0000075C00000BF
:1001600073C0000071C000006FC000006DC00000CF
:100170006BC0000069C0000067C0000065C00000DF
:1001800063C0000061C000000C94FA205DC0000054
:100190005BC0000059C0000057C0000055C00000FF
:1001A0000C94ED1251C000004FC000004DC0000083
:1001B0000C94051349C0000047C0000045C0000072
:1001C00043C0000041C000003FC000003DC000002F
:1001D0003BC0000039C0000037C000000C94D221A1
:1001E0000C949E2031C000002FC000002DC00000E4
:1001F0002BC0000029C0000027C0000011241FBE32
:10020000CFEFCDBFDFE3DEBF00E00CBF18BE19BEED
:100210001ABE1BBE12E2A0E0B0E2EEE0F7E400E09E
:100220000BBF02C007900D92A836B107D9F71BBECD
:100230002DE3A8E6B2E201C01D92AD36B207E1F7A8
:100240000E9471130C948523DBCE8F92AF92BF92E4
:10025000CF92DF92EF920F9385E192E29F938F937B
:100260008BE3882E9BE5A92EB12C2FEEC22E22E225
:10027000D22E32E0E32E02E021E040E061E080ECAB
:1002800094E00E94F31A0F900F900F91EF90DF907F
:10029000CF90BF90AF908F9008959F92AF92BF92F2
:1002A000CF92DF92EF92FF920F931F93CF93DF9342
:1002B00000D0CDB7DEB719821A821B8280E09BE0A6
:1002C0000E94241800EA16E0BB24B394F801B68219
:1002D00080E09AE00E94241840E8E42E46E0F42EE4
:1002E000F701B68280E099E00E94241850E6C52EFE
:1002F00056E0D52EF601B68280E098E00E942418E0
:10030000E0E4F6E0B682E0E2F6E060E4962E958264
:1003100080E2858372EAA72EB12C81E8F501808303
:10032000BE016F5F7F4FCB010E94831387E8F50109
:100330008083F6019682F7019682F801968280E822
:10034000F6018683F7018683F80186832396CDBF65
:10035000DEBFDF91CF911F910F91FF90EF90DF9063
:10036000CF90BF90AF909F9008950E940F120E946F
:100370007A1393E89093080385E880930903909398
:1003800028038093290380E48093210310922203A1
:100390008DE080932003809171008D7F80937100A8
:1003A00081E08093000290E6909301029091010217
:1003B0009093010290E19093020295E090930402E1
:1003C0008093200288E08093210210922202809183
:1003D00022028093220220E040E456E062E080E0C6
:1003E00099E00E94011880E099E00E94201888237B
:1003F000D1F380E099E00E94241880912002806867
:10040000809320028091230280FFFCCF81E08093C3
:10041000230280912402909125028093ED229093F3
:10042000EE221092210280912002806880932002A7
:100430008091230280FFFCCF81E080932302089506
:100440001092F1221092F2221092F3221092F422D2
:100450001092F5221092F6221092F7221092F822B2
:100460001092F9221092FA221092FB221092FC2292
:100470001092FD2210920123109202231092032366
:1004800081E08093042380930523809306231092B8
:100490000723109208231092092310920A23109226
:1004A0000B2310920C2310920D2310920E2384EF35
:1004B00091E080930F2390931023809311239093C6
:1004C000122380931323909314232FE030E0209382
:1004D000152330931623209317233093182320934A
:1004E000192330931A2380931B2390931C2380930A
:1004F0001D2390931E2380931F239093202380938A
:100500002123909322238AEF90E0809323239093DA
:10051000242380932523909326238093272390934D
:1005200028238093292390932A2388EE93E08093B5
:100530002B2390932C2380ED97E080932D23909391
:100540002E2388EB9BE080932F239093302380EA27
:100550009FE0809331239093322382E3809333236F
:10056000809334238093352380933623109237234E
:10057000109238238FEF8093392310923A231092F0
:100580003B2310923C2310923D2380933E23809383
:100590003F23109240231092412310924223109245
:1005A0004323809344238AE080934523809346230A
:1005B0008EE1809347238093482387E080934923EB
:1005C0000895CF93DF9300D0CDB7DEB78091F722A7
:1005D0009091F82289839A83CE0101960E94D40CCF
:1005E000809145238B83CE01039657D58091462376
:1005F0008B83CE01039688D580912B2390912C2359
:1006000089839A83CE010196D6D580912D2390912E
:100610002E2389839A83CE0101962BD680912F2396
:100620009091302389839A83CE01019680D6809160
:1006300031239091322389839A83CE010196D5D6B6
:10064000809137238B83CE0103962DD72396CDBF80
:10065000DEBFDF91CF91089508950895089508951C
:100660000895809120028068809320028091230267
:1006700080FFFCCF81E0809323028091240290913F
:1006800025022091ED223091EE222817390780F4BF
:1006900080912402909125029F70821B930B80937E
:1006A000FF22909300238091492382FD09C0089581
:1006B0001092FF22109200238091492382FFF7CFEE
:1006C00061E08CE20C94621D0895089540916922C6
:1006D000509168228091D1229091D222009741F0CE
:1006E00001978093D1229093D222892B09F4E4C000
:1006F0008091D3229091D422009741F0019780936A
:10070000D3229093D422892B09F4D2C08091D52290
:100710009091D622009741F001978093D522909333
:10072000D622892B09F4C0C08091D7229091D8227B
:10073000009741F001978093D7229093D822892B7C
:1007400009F4AEC08091D9229091DA22009741F04D
:1007500001978093D9229093DA22892B09F49CC0C7
:100760008091DB229091DC22009741F001978093E9
:10077000DB229093DC22892B09F48AC08091DD2250
:100780009091DE22009741F001978093DD229093B3
:10079000DE22892B09F478C08091DF229091E0223B
:1007A000009741F001978093DF229093E022892BFC
:1007B00009F466C08091E1229091E222009741F015
:1007C00001978093E1229093E222892B09F454C08F
:1007D000842F2091E3223091E4222115310521F468
:1007E000481799F0652F0FC0215031092093E3225B
:1007F0003093E422232BA1F710926822481302C001
:10080000552319F060E00E94D2118091E522909169
:10081000E622009741F001978093E5229093E6222B
:10082000892B09F45CC08091E7229091E82200971F
:1008300041F001978093E7229093E822892B09F4F5
:1008400056C08091E9229091EA22009739F00197F1
:100850008093E9229093EA22892BC9F18091EB22BF
:100860009091EC22009739F001978093EB229093BE
:10087000EC22892B29F108951092692280E0A9CFFA
:1008800080E28093250696CF80E48093250684CF6E
:1008900080E88093A60672CF80E88093860660CFBA
:1008A00080E8809366064ECF80E48093A6063CCF16
:1008B00080E4809386062ACF80E48093660618CF72
:1008C00081E08093460680E098E00C94241881E053
:1008D0008093660680E099E00E942418BFCF81E0F3
:1008E0008093A60680E09BE00E9424189CCF81E0C4
:1008F0008093860680E09AE00E942418A2CF089593
:1009000008950895089508950895089590EE980F14
:100910009B3340F490E08097FC01E852FE4D20812B
:10092000261711F080E00895FC01EE0FFF1FEA5832
:10093000FF4D0190F081E02D199581E0089590EE32
:10094000980F9B3348F4E82FF0E0B097DF01A852EE
:10095000BE4D8C91861711F080E00895EE0FFF1FB9
:10096000DF01AE59BE4D8D919C9182179307A1F77F
:10097000E050F04E0190F081E02DCA011994809171
:100980006806829581708093EF229091880694FF8B
:100990000DC092E0892B8093EF229091A80694FDE0
:1009A0000DC090E0892B8093EF22089590E0892B71
:1009B0008093EF229091A80694FFF3CF94E0892BC7
:1009C0008093EF22089580E008950895FC018081CE
:1009D0008093F02281E0089508950895089520916C
:1009E000680626FB882780F990E08093F722909391
:1009F000F8222091880626FFB0C022E030E0822B4A
:100A0000932B8093F7229093F8222091A80626FF3B
:100A1000BCC024E030E0282B392B2093F722309300
:100A2000F82280916806992787FD90958827990F6D
:100A3000881F9927880F991F880F991F880F991F62
:100A4000822B932B8093F7229093F8222091880693
:100A5000332727FD30952227330F221F3327229576
:100A60003295307F3227207F3227282B392B209355
:100A7000F7223093F8228091A806992787FD909558
:100A80008827990F881F9927880F991F829592951B
:100A9000907F9827807F9827822B932B8093F72233
:100AA0009093F8222091280626FF6CC020E030E0C9
:100AB000822B932B8093F7229093F8222091280683
:100AC00025FF5DC020E030E0822B932B209169222E
:100AD000222309F451C020E031E0822B932B209196
:100AE0006822222309F445C020E032E0822B932BB8
:100AF0008093F7229093F8222091A80620FF36C019
:100B000020E034E0822B932B8093F7229093F822FD
:100B10002091880620FF27C020E038E0822B932B0D
:100B20008093F7229093F8222091680620FF18C046
:100B300020E030E1822B932B8093F7229093F822D0
:100B40002091480620FD24C020E030E0822B932B2A
:100B50008093F7229093F822089520E030E04FCF61
:100B600020E030E0E7CF20E030E0D8CF20E030E0F8
:100B7000C9CF20E030E0BACF20E030E0AECF20E8AF
:100B800030E0A2CF20E430E093CF20E030E043CF4C
:100B900020E030E2822B932B8093F7229093F8226F
:100BA00008950895FC0180818093F92281E00895E1
:100BB0000895FC0180818093FA2281E008950895D0
:100BC000FC0180818093FB2281E008950895FC015F
:100BD00080818093FC2281E008950895FC0180814A
:100BE0008093FD2281E008950895FC018081809327
:100BF000FE2281E008950895FC0180819181809317
:100C0000FF229093002381E008950895FC018081E4
:100C10008093012381E008950895FC0180818093F1
:100C2000022381E008950895FC01808180930323CD
:100C300081E008950895FC0180818093042381E080
:100C400008950895FC0180818093052381E0089533
:100C50000895FC0180818093062381E00895089522
:100C6000FC0180818093072381E008950895FC01B1
:100C700080818093082381E008950895FC0180819C
:100C80008093092381E008950895FC018081809379
:100C90000A2381E008950895FC01808180930B234D
:100CA00081E008950895FC01808180930C2381E008
:100CB00008950895FC01808180930D2381E00895BB
:100CC0000895FC01808180930E2381E008950895AA
:100CD000FC0180819181009731F080930F239093E4
:100CE000102381E0089580E008950895FC0180813B
:100CF0009181009731F0809311239093122381E02A
:100D0000089580E008950895FC0180819181009705
:100D100031F0809313239093142381E0089580E0B1
:100D200008950895FC0180819181009731F08093AE
:100D300015239093162381E0089580E00895089587
:100D4000FC0180819181009731F08093172390936B
:100D5000182381E0089580E008950895FC018081C2
:100D60009181009731F08093192390931A2381E0A9
:100D7000089580E008950895FC0180819181009795
:100D800031F080931B2390931C2381E0089580E031
:100D900008950895FC0180819181009731F080933E
:100DA0001D2390931E2381E0089580E00895089507
:100DB000FC0180819181009731F080931F239093F3
:100DC000202381E0089580E008950895FC0180814A
:100DD0009181009731F0809321239093222381E029
:100DE000089580E008950895FC0180819181009725
:100DF00031F0809323239093242381E0089580E0B1
:100E000008950895FC0180819181009731F08093CD
:100E100025239093262381E0089580E00895089586
:100E2000FC0180819181009731F08093272390937A
:100E3000282381E0089580E008950895FC018081D1
:100E40009181009731F08093292390932A2381E0A8
:100E5000089580E0089508950895089508950895E7
:100E6000CF92DF92EF92FF92CF93FC01C0818FEF80
:100E70008C0F833698F56C2F70E080E090E00E9434
:100E8000FB1520E030E048EC52E40E9465156B0150
:100E90007C01609152237091532380E090E00E9486
:100EA000F9159B01AC01C701B6010E94871620E02D
:100EB00030E040E05FE30E9401150E94CD15609391
:100EC0005A2370935B2381E080934A23C09333239A
:100ED000CF91FF90EF90DF90CF90089580E0CF9179
:100EE000FF90EF90DF90CF9008950895CF92DF921A
:100EF000EF92FF92CF93FC01C0818FEF8C0F83366E
:100F000098F56C2F70E080E090E00E94FB1520E0E7
:100F100030E048EC52E40E9465156B017C01609161
:100F200054237091552380E090E00E94F9159B01B5
:100F3000AC01C701B6010E94871620E030E040E016
:100F40005FE30E9401150E94CD1560935C237093AE
:100F50005D2381E080934B23C0933423CF91FF9096
:100F6000EF90DF90CF90089580E0CF91FF90EF90C9
:100F7000DF90CF9008950895CF92DF92EF92FF9285
:100F8000CF93FC01C0818FEF8C0F833698F56C2FC7
:100F900070E080E090E00E94FB1520E030E048EC3B
:100FA00052E40E9465156B017C016091562370919B
:100FB000572380E090E00E94F9159B01AC01C70126
:100FC000B6010E94871620E030E040E05FE30E9417
:100FD00001150E94CD1560935E2370935F2381E01D
:100FE00080934C23C0933523CF91FF90EF90DF90F7
:100FF000CF90089580E0CF91FF90EF90DF90CF9059
:1010000008950895CF92DF92EF92FF92CF93FC0163
:10101000C0818FEF8C0F833698F56C2F70E080E0E5
:1010200090E00E94FB1520E030E048EC52E40E9482
:1010300065156B017C01609158237091592380E004
:1010400090E00E94F9159B01AC01C701B6010E9416
:10105000871620E030E040E05FE30E9401150E9427
:10106000CD15609360237093612381E080934D23BD
:10107000C0933623CF91FF90EF90DF90CF900895EB
:1010800080E0CF91FF90EF90DF90CF90089508958A
:1010900008950895089508950895CF93FC01C0819F
:1010A0008FEF8C0F843628F5809147238C1708F139
:1010B0006C2F70E080E090E00E94F91520E030E0B5
:1010C00048EC52E40E94651520E030E040E855E429
:1010D0000E9487160E94CD156115F0E17F0760F42C
:1010E00060933A0370933B03C093452381E0CF9113
:1010F000089580E0CF9108958FEF9FE080933A03A9
:1011000090933B03F1CF0895CF93FC01C0818FEF03
:101110008C0F843628F5809148238C1708F16C2FAA
:1011200070E080E090E00E94F91520E030E048ECAB
:1011300052E40E94651520E030E040E855E40E944A
:1011400087160E94CD156115F0E17F0760F460936A
:10115000380370933903C093462381E0CF910895FB
:1011600080E0CF9108958FEF9FE0809338039093B4
:101170003903F1CF0895FC0180819EEF980F9336DB
:1011800020F48093472381E0089580E00895089536
:10119000FC0180819EEF980F933620F480934823C2
:1011A00081E0089580E008950895FC018081809396
:1011B000492381E00895CF92DF92EF92FF920F933F
:1011C0001F93CF93DF93FC01C081D181CE010197A2
:1011D0008031974250F080E0DF91CF911F910F91C5
:1011E000FF90EF90DF90CF900895BE0180E090E0F7
:1011F0000E94F9159B01AC01A2E5EA2EA3E2FA2EAA
:101200000EE413E260E078E488EE91E00E94291891
:101210006091332370E080E090E00E94FB1520E0B5
:1012200030E048EC52E40E9465156B017C0160914E
:1012300052237091532380E090E00E94F9159B01A6
:10124000AC01C701B6010E94871620E030E040E003
:101250005FE30E9401150E94CD1560935A2370939D
:101260005B2381E080934A23C0932B23D0932C23CC
:10127000B3CFCF92DF92EF92FF920F931F93CF9352
:10128000DF93FC01C081D181CE010197803197426B
:1012900050F080E0DF91CF911F910F91FF90EF9080
:1012A000DF90CF900895BE0180E090E00E94F91594
:1012B0009B01AC01B4E5EB2EB3E2FB2E0FE413E28D
:1012C00060E078E488EE91E00E9429186091342370
:1012D00070E080E090E00E94FB1520E030E048ECF8
:1012E00052E40E9465156B017C016091542370915A
:1012F000552380E090E00E94F9159B01AC01C701E5
:10130000B6010E94871620E030E040E05FE30E94D3
:1013100001150E94CD1560935C2370935D2381E0DD
:1013200080934B23C0932D23D0932E23B3CFCF9202
:10133000DF92EF92FF920F931F93CF93DF93FC0105
:10134000C081D181CE0101978031974250F080E079
:10135000DF91CF911F910F91FF90EF90DF90CF9091
:101360000895BE0180E090E00E94F9159B01AC0158
:1013700016E5E12E13E2F12E00E513E260E078E4D9
:1013800088EE91E00E9429186091352370E080E09A
:1013900090E00E94FB1520E030E048EC52E40E940F
:1013A00065156B017C01609156237091572380E095
:1013B00090E00E94F9159B01AC01C701B6010E94A3
:1013C000871620E030E040E05FE30E9401150E94B4
:1013D000CD1560935E2370935F2381E080934C234F
:1013E000C0932F23D0933023B3CFCF92DF92EF92CD
:1013F000FF920F931F93CF93DF93FC01C081D181A4
:10140000CE0101978031974250F080E0DF91CF917B
:101410001F910F91FF90EF90DF90CF900895BE0144
:1014200080E090E00E94F9159B01AC0108E5E02EF8
:1014300003E2F02E01E513E260E078E488EE91E04B
:101440000E9429186091362370E080E090E00E94AD
:10145000FB1520E030E048EC52E40E9465156B017A
:101460007C01609158237091592380E090E00E94A4
:10147000F9159B01AC01C701B6010E94871620E057
:1014800030E040E05FE30E9401150E94CD156093BB
:1014900060237093612381E080934D23C0933123B7
:1014A000D0933223B3CFEF920F93CF93FC01C0813F
:1014B000C0FF05C08091000B882309F461C0C1FF03
:1014C00005C08091000A882309F47EC0C2FF04C0D1
:1014D00080910009882381F1C3FF04C08091000836
:1014E000882339F0C093372381E0CF910F91EF909B
:1014F00008952091602330916123409158235091A9
:101500005923E12C01E06091512380E098E00E9492
:101510000C1810924D2381E08093450680910E2394
:10152000813001F78091292390912A23019680939D
:10153000EB229093EC22D6CF20915E2330915F2353
:101540004091562350915723E12C01E060915023A4
:1015500080E099E00E940C1810924C2381E0809367
:10156000650680910D23813009F0B6CF8091272345
:101570009091282301968093E9229093EA22ACCFA0
:1015800020915A2330915B23409152235091532351
:10159000E12C01E060914E2380E09BE00E940C185A
:1015A00010924A2381E08093A50680910B2381301D
:1015B00009F085CF80912323909124230196809375
:1015C000E5229093E6227BCF20915C2330915D232E
:1015D0004091542350915523E12C01E060914F2319
:1015E00080E09AE00E940C1810924B2381E08093D7
:1015F000850680910C23813009F068CF80912523E6
:101600009091262301968093E7229093E8225ECF63
:10161000CF93FC01C081C0FD24C0C1FD1AC0C2FD32
:1016200010C0C3FF07C081E08093460680E098E0C9
:101630000E942418C095CF70C093372381E0CF91CA
:10164000089581E08093660680E099E00E94241866
:10165000E8CF81E08093860680E09AE00E9424181B
:10166000DECF81E08093A60680E09BE00E942418F4
:10167000D4CF1F93CF93DF9300D000D0CDB7DEB788
:10168000FC01808180933C23818180933D23828172
:1016900080933E2320812093422391819093432382
:1016A00082818093442330916822409169221C8278
:1016B0001D821E8219821A821B82413001F1313053
:1016C00019F429839A838B8383E88093A200109175
:1016D000A30B1092A30BBE016F5F7F4FCE01049648
:1016E0000E9483131093A30B87E88093A20081E0EC
:1016F0002696CDBFDEBFDF91CF911F910895409117
:101700003F234C83409140234D83409141234E839E
:10171000D6CF1F93CF93DF9300D000D0CDB7DEB7E5
:10172000FC01808180933923818180933A238281D7
:1017300080933B23208120933F23918190934023EA
:1017400082818093412330916822409169221C82DA
:101750001D821E8219821A821B82413029F131308A
:1017600049F4809142238983809143238A83809125
:1017700044238B8383E88093A2001091A30B1092E3
:10178000A30BBE016F5F7F4FCE010496BCD71093B1
:10179000A30B87E88093A20081E02696CDBFDEBF31
:1017A000DF91CF911F9108952C839D838E83D7CF96
:1017B0001F93CF93DF9300D000D0CDB7DEB7FC01ED
:1017C000808180933923818180933A238281809321
:1017D0003B23838180933C23848180933D238581B7
:1017E00080933E23508150933F2341814093402377
:1017F000328130934123238120934223948190931B
:1018000043238581809344236091682270916922EB
:101810001C821D821E8219821A821B827130F9F08D
:10182000613019F429839A838B8383E88093A20023
:101830001091A30B1092A30BBE016F5F7F4FCE01DF
:10184000049661D71093A30B87E88093A20081E0F0
:101850002696CDBFDEBFDF91CF911F9108955C83A7
:101860004D833E83DDCFFF920F931F93CF93DF9382
:1018700000D000D0CDB7DEB7FC010081118100FFA0
:1018800003C080E48093660601FF03C080E4809378
:10189000860602FF03C080E48093A60603FF03C010
:1018A00080E88093660604FF03C080E88093860684
:1018B00005FF03C080E88093A60606FF03C080E40E
:1018C0008093250607FF03C080E28093250610FD64
:1018D0001092692211FD10926822C8018827937026
:1018E000892B09F180916822909169221C821D82C6
:1018F0001E8219821A821B82913009F448C08130FD
:10190000E1F183E88093A200F090A30B1092A30B67
:10191000BE016F5F7F4FCE010496F5D6F092A30B08
:1019200087E88093A20012FF03C081E08093A6069F
:1019300013FF03C081E08093860614FF03C081E09B
:101940008093660615FF03C081E0809346060095EC
:1019500010958091F7229091F82208231923009383
:10196000F7221093F82281E02696CDBFDEBFDF91EB
:10197000CF911F910F91FF90089580914223898309
:10198000809143238A83809144238B83BACF9091A3
:101990003F239C83909140239D83909141239E837C
:1019A000813009F0AECFE9CFFF920F931F93CF9311
:1019B000DF9300D000D0CDB7DEB7FC0100811181EC
:1019C000309169224091682280E400FFFEC080933C
:1019D000650680910123813009F411C180E401FF83
:1019E000F1C08093850680910223813009F411C1F2
:1019F00080E402FFE4C08093A50680910323813038
:101A000009F411C180E803FFC8C080936506809186
:101A10000423813009F411C180E804FFC3C080931E
:101A2000850680910523813009F411C180E805FF06
:101A3000BEC08093A50680910623813009F411C1B0
:101A400080E406FFB9C08093260680910723813089
:101A500009F411C180E207FF76C0809326068091C9
:101A60000823813009F411C110FF71C081E0809317
:101A7000692280910923813009F439C121E011FDE7
:101A80006BC01092682280E0321709F470C01C828B
:101A90001D821E8219821A821B82213009F473C0B2
:101AA000813049F4809142238983809143238A8342
:101AB000809144238B8383E88093A200F090A30B52
:101AC0001092A30BBE016F5F7F4FCE0104961BD611
:101AD000F092A30B87E88093A20081E012FF81C0FF
:101AE0008093A50680910B23813009F4D8C081E052
:101AF00013FF74C08093850680910C23813009F414
:101B0000D8C081E014FF67C08093650680910D23E3
:101B1000813009F4D8C081E015FF5AC08093450692
:101B200080910E23813009F4D8C00093F7221093DE
:101B3000F82281E02696CDBFDEBFDF91CF911F91C5
:101B40000F91FF9008958093250610FD8FCF10927E
:101B5000692220E011FF95CF81E080936822809177
:101B60000A23813009F440C081E0321390CF481736
:101B700009F4B3CF1C821D821E8219821A821B8235
:101B8000213009F08DCF90913F239C839091402389
:101B90009D83909141239E8383CF8093660680E846
:101BA00004FD3DCF8093860680E805FD42CF8093FB
:101BB000A60680E406FD47CF809325064BCF809391
:101BC000A60620CF8093860613CF8093660606CFA5
:101BD00080934606AACF809366069DCF80938606A3
:101BE00090CF8093A60683CF8091212390912223CA
:101BF00001968093E3229093E42281E045CF809187
:101C00000F239091102301968093D1229093D2229A
:101C1000E5CE809111239091122301968093D322D7
:101C20009093D422E5CE80911323909114230196B2
:101C30008093D5229093D622E5CE80911523909162
:101C4000162301968093D7229093D822E5CE8091D7
:101C500017239091182301968093D9229093DA222A
:101C6000E5CE8091192390911A2301968093DB226F
:101C70009093DC22E5CE80911B2390911C2301964A
:101C80008093DD229093DE22E5CE80911D239091FA
:101C90001E2301968093DF229093E022E5CE80916F
:101CA00023239091242301968093E5229093E622AA
:101CB0001ECF809125239091262301968093E722C1
:101CC0009093E8221ECF809127239091282301969C
:101CD0008093E9229093EA221ECF8091292390914C
:101CE0002A2301968093EB229093EC221ECF8091C1
:101CF0001F239091202301968093E1229093E2226A
:101D000021E028CFFF920F931F93CF93DF9300D052
:101D100000D0CDB7DEB7FC010081118100FF08C003
:101D200080E48093650680910123813009F4DDC051
:101D300001FF08C080E480938506809102238130F2
:101D400009F4DDC002FF08C080E48093A5068091FD
:101D50000323813009F4DDC003FF08C080E88093CD
:101D6000650680910423813009F4DDC004FF08C0BA
:101D700080E88093850680910523813009F405C1B0
:101D800005FF08C080E88093A50680910623813076
:101D900009F405C106FF08C080E4809326068091FF
:101DA0000723813009F405C107FF08C080E2809352
:101DB000260680910823813009F405C110FF08C070
:101DC00081E08093692280910923813009F4C9C0A0
:101DD00011FF08C081E08093682280910A2381303E
:101DE00009F4C9C0C80188279370892B11F180912B
:101DF0006822909169221C821D821E8219821A8299
:101E00001B82913009F464C0813009F44DC083E82D
:101E10008093A200F090A30B1092A30BBE016F5F02
:101E20007F4FCE0104966FD4F092A30B87E8809386
:101E3000A20012FF08C081E08093A50680910B23C9
:101E4000813009F47AC013FF08C081E080938506D1
:101E500080910C23813009F47AC014FF08C081E01E
:101E60008093650680910D23813009F4B6C015FF7B
:101E700007C081E08093450680910E238130F1F008
:101E80008091F7229091F822802B912B8093F7225A
:101E90009093F82281E02696CDBFDEBFDF91CF91EF
:101EA0001F910F91FF900895809142238983809123
:101EB00043238A83809144238B83A9CF8091292354
:101EC00090912A2301968093EB229093EC22D8CF15
:101ED00090913F239C83909140239D839091412337
:101EE0009E83813009F093CFDFCF80910F239091B3
:101EF000102301968093D1229093D22219CF809102
:101F000011239091122301968093D3229093D4228F
:101F100019CF809113239091142301968093D52299
:101F20009093D62219CF8091152390911623019674
:101F30008093D7229093D82219CF80912323909118
:101F4000242301968093E5229093E6227CCF809112
:101F500025239091262301968093E7229093E822EF
:101F60007CCF80911F239091202301968093E122C2
:101F70009093E2222DCF80912123909122230196EC
:101F80008093E3229093E4222DCF809117239091A8
:101F9000182301968093D9229093DA22F1CE809172
:101FA000192390911A2301968093DB229093DC22CF
:101FB000F1CE80911B2390911C2301968093DD220A
:101FC0009093DE22F1CE80911D2390911E230196E5
:101FD0008093DF229093E022F1CE8091272390918D
:101FE000282301968093E9229093EA2240CFFF9222
:101FF0000F931F93CF93DF9300D000D0CDB7DEB700
:10200000FC010081118100FF07C08091680686FFF6
:1020100020C180E48093670601FF07C08091880695
:1020200086FF05C180E48093870602FF07C0809188
:10203000A80686FFEAC080E48093A70603FF0CC0D1
:102040008091680687FD84C180E880936506809151
:102050000423813009F488C104FF0CC080918806F4
:1020600087FD7AC180E880938506809105238130C1
:1020700009F484C105FF0CC08091A80687FD70C1DA
:1020800080E88093A50680910623813009F480C101
:1020900006FF07C08091280686FD23C180E4809357
:1020A000270607FF07C08091280685FD08C180E24A
:1020B0008093270610FF07C080916922882309F4C6
:1020C00092C01092692211FF07C080916822882374
:1020D00009F477C010926822C80188279370892B71
:1020E00011F180916822909169221C821D821E82CA
:1020F00019821A821B82913009F413C1813009F4CC
:1021000002C183E88093A200F090A30B1092A30B6E
:10211000BE016F5F7F4FCE010496F5D2F092A30B04
:1021200087E88093A20012FF07C08091A80680FF75
:1021300037C081E08093A70613FF07C0809188060F
:1021400080FFABC081E08093870614FF07C08091B9
:10215000680680FF90C081E08093670615FF0CC081
:102160008091480680FDD9C081E08093450680912A
:102170000E23813009F4E2C08091F7229091F82279
:10218000802791278093F7229093F82281E026966A
:10219000CDBFDEBFDF91CF911F910F91FF900895CA
:1021A00081E08093A50680910B23813029F68091F0
:1021B00023239091242301968093E5229093E62295
:1021C000BBCF81E08093682280910A23813009F09F
:1021D00083CF809121239091222301968093E32243
:1021E0009093E42279CF81E0809369228091092342
:1021F000813009F068CF80911F23909120230196B0
:102200008093E1229093E2225ECF80E48093A50642
:1022100080910323813009F011CF80911323909195
:10222000142301968093D5229093D62207CF80E481
:102230008093850680910223813009F0F6CE80914B
:1022400011239091122301968093D3229093D4224C
:10225000ECCE80E48093650680910123813009F003
:10226000DBCE80910F239091102301968093D12291
:102270009093D222D1CE81E08093650680910D2388
:10228000813009F06BCF809127239091282301960C
:102290008093E9229093EA2261CF81E080938506C2
:1022A00080910C23813009F050CF809125239091AB
:1022B000262301968093E7229093E82246CF80E27E
:1022C0008093260680910823813009F0F3CE809117
:1022D0001D2390911E2301968093DF229093E0228C
:1022E000E9CE80E48093260680910723813009F0AF
:1022F000D8CE80911B2390911C2301968093DD22E0
:102300009093DE22CECE8091422389838091432315
:102310008A83809144238B83F4CE81E080934706A7
:102320002BCF90913F239C83909140239D8390914C
:1023300041239E83813009F0E4CEE5CF80912923AB
:1023400090912A2301968093EB229093EC2214CF54
:1023500080E88093670680CE80E8809387068ACEE7
:1023600080E88093A70694CE809115239091162340
:1023700001968093D7229093D8226ECE8091172316
:102380009091182301968093D9229093DA2272CEED
:102390008091192390911A2301968093DB229093C8
:1023A000DC2276CE1F93CF93DF9300D000D0CDB741
:1023B000DEB71C821D821E8219821A821B82813026
:1023C00021F1613049F48091422389838091432334
:1023D0008A83809144238B8383E88093A2001091A9
:1023E000A30B1092A30BBE016F5F7F4FCE0104962B
:1023F0008AD11093A30B87E88093A2002696CDBFC5
:10240000DEBFDF91CF911F91089580913F238C8390
:10241000809140238D83809141238E83D2CF0F936F
:10242000CF93DF9320E048E164E080E696E086D534
:1024300020E048E165E080E696E080D520E048E1D4
:1024400064E080E896E07AD520E048E165E080E845
:1024500096E074D520E048E164E080EA96E06ED52D
:1024600020E048E165E080EA96E068D500E020E100
:1024700040E061E080E696E08ED520E140E061E05A
:1024800080E896E088D520E140E061E080EA96E0CF
:1024900082D521E040E060E080E496E064D521E070
:1024A00040E060E080E696E05ED521E040E060E05C
:1024B00080E896E058D521E040E060E080EA96E0D0
:1024C00052D521E040E066E080E296E04CD521E084
:1024D00040E065E080E296E046D520E040E065E03F
:1024E00080E496E040D521E040E066E080E696E0BA
:1024F0003AD521E040E067E080E696E034D521E07F
:1025000040E066E080E896E02ED521E040E067E01C
:1025100080E896E028D521E040E066E080EA96E099
:1025200022D521E040E067E080EA96E01CD580E417
:1025300096E021E0FC012683C0E6D6E02E83A0E8E9
:10254000B6E016962C93169760EA76E0FB01268398
:1025500020E236E040E4F901458350E25583FC0176
:1025600056834E8380E88E8316964C931697169664
:102570008C93FB0146838683DF91CF910F91089561
:102580008091EF228E7F8093EF2290916806929542
:102590009170982B9093EF228091492380FF04C083
:1025A00061E080E20E94621D18958091EF228D7F8C
:1025B0008093EF229091880694FF02C092E001C0C0
:1025C00090E0892B8093EF228091492380FF04C003
:1025D00061E080E20E94621D18958091EF228B7F5E
:1025E0008093EF229091A80694FF02C094E001C06E
:1025F00090E0892B8093EF228091492380FF04C0D3
:1026000061E080E20E94621D189580914A23882330
:10261000B1F080915223909153238093260B909395
:10262000270B80915A2390915B238093280B9093E2
:10263000290B80914E238093000B10924A2318950A
:1026400080914B238823B1F080915423909155239E
:102650008093260A9093270A80915C2390915D23B2
:102660008093280A9093290A80914F238093000A2F
:1026700010924B23189580914C238823B1F08091C0
:102680005623909157238093260990932709809190
:102690005E2390915F23809328099093290980916C
:1026A00050238093000910924C23189580914D235C
:1026B0008823B1F080915823909159238093260864
:1026C000909327088091602390916123809328083C
:1026D00090932908809151238093000810924D23F4
:1026E00018950E9425018091A20087688093A2001E
:1026F0007894FFCFE0E4F6E080818062808380E21E
:10270000809346060895FC01DB018081809362235B
:102710008181809363238281809364238C91809351
:10272000652311968C9111978093662312968C9154
:102730008093672396C000934506000000000000C8
:1027400000000000000000000000009346060000AA
:102750000000000000000000000000000000000079
:102760000000000000000000000000000000000069
:1027700000000000000000000000089500934506DE
:102780000000000000000000000000000000000049
:102790000000000000000000000000000000000039
:1027A000000000000000000000000000009346064A
:1027B0000000000000000000000000000000000019
:1027C00000000000000000000000000008950093D9
:1027D00045060000000000000000000000000000AE
:1027E000000000934606000000000000000000000A
:1027F00000000000000000000000000000000000D9
:1028000000000000000000000000000000000000C8
:10281000089500934506000000000000000000003D
:1028200000000000000000000000000000000000A8
:102830000000000000000000000000000000000098
:1028400000000093460600000000000000000000A9
:102850000000000000000000000000000000000078
:1028600008950F930F9200E2E2E6F3E200800190F8
:1028700007FE61DF07FC82DF06FE5DDF06FC7EDF10
:1028800005FE59DF05FC7ADF04FE55DF04FC76DF28
:1028900003FE51DF03FC72DF02FE4DDF02FC6EDF40
:1028A00001FE49DF01FC6ADF00FE91DF00FCB1DFC1
:1028B000019007FE40DF07FC61DF06FE3CDF06FCFF
:1028C0005DDF05FE38DF05FC59DF04FE34DF04FC64
:1028D00055DF03FE30DF03FC51DF02FE2CDF02FC7C
:1028E0004DDF01FE28DF01FC49DF00FE70DF00FC48
:1028F00090DF019007FE1FDF07FC40DF06FE1BDFB5
:1029000006FC3CDF05FE17DF05FC38DF04FE13DFA5
:1029100004FC34DF03FE0FDF03FC30DF02FE0BDFBD
:1029200002FC2CDF01FE07DF01FC28DF00FE4FDF89
:1029300000FC6FDF019007FEFEDE07FC1FDF06FED6
:10294000FADE06FC1BDF05FEF6DE05FC17DF04FEE3
:10295000F2DE04FC13DF03FEEEDE03FC0FDF02FEFB
:10296000EADE02FC0BDF01FEE6DE01FC07DF00FE13
:102970002EDF00FC4EDF019007FEDDDE07FCFEDEF1
:1029800006FED9DE06FCFADE05FED5DE05FCF6DE27
:1029900004FED1DE04FCF2DE03FECDDE03FCEEDE3F
:1029A00002FEC9DE02FCEADE01FEC5DE01FCE6DE57
:1029B00000FE0DDF00FC2DDF019007FEBCDE07FCF2
:1029C000DDDE06FEB8DE06FCD9DE05FEB4DE05FC63
:1029D000D5DE04FEB0DE04FCD1DE03FEACDE03FC7B
:1029E000CDDE02FEA8DE02FCC9DE01FEA4DE01FC93
:1029F000C5DE00FEECDE00FC0CDF0F900F910895A9
:102A00005058BB27AA270ED048C139D130F03ED14B
:102A100020F031F49F3F11F41EF42EC10EF4E09526
:102A2000E7FB24C1E92F4AD180F3BA176207730785
:102A30008407950718F071F49EF562C10EF4E095D5
:102A40000B2EBA2FA02D0B01B90190010C01CA0168
:102A5000A0011124FF27591B99F0593F50F4503E13
:102A600068F11A16F040A22F232F342F4427585F05
:102A7000F3CF469537952795A795F0405395C9F71D
:102A80007EF41F16BA0B620B730B840BBAF09150D5
:102A9000A1F0FF0FBB1F661F771F881FC2F70EC074
:102AA000BA0F621F731F841F48F487957795679547
:102AB000B795F7959E3F08F0B3CF9395880F08F030
:102AC0009927EE0F9795879508950CD0E6C0DED034
:102AD00040F0D5D030F021F45F3F19F0C7C051115C
:102AE00010C1CAC0EBD098F39923C9F35523B1F3B1
:102AF000951B550BBB27AA2762177307840738F06D
:102B00009F5F5F4F220F331F441FAA1FA9F333D0CB
:102B10000E2E3AF0E0E830D091505040E695001C7F
:102B2000CAF729D0FE2F27D0660F771F881FBB1F3B
:102B3000261737074807AB07B0E809F0BB0B802D15
:102B4000BF01FF2793585F4F2AF09E3F510568F061
:102B50008DC0D7C05F3FECF3983EDCF38695779548
:102B60006795B795F7959F5FC9F7880F911D969563
:102B7000879597F90895E1E0660F771F881FBB1FBF
:102B8000621773078407BA0720F0621B730B840B6C
:102B9000BA0BEE1F88F7E095089598D088F09F57FC
:102BA00090F0B92F9927B751A0F0D1F0660F771F99
:102BB000881F991F1AF0BA95C9F712C0B13081F079
:102BC0009FD0B1E008959CC0672F782F8827B85F09
:102BD00039F0B93FCCF3869577956795B395D9F7DA
:102BE0003EF490958095709561957F4F8F4F9F4FE4
:102BF0000895E89409C097FB3EF4909580957095F0
:102C000061957F4F8F4F9F4F9923A9F0F92F96E938
:102C1000BB279395F695879577956795B795F111AD
:102C2000F8CFFAF4BB0F11F460FF1BC06F5F7F4F4A
:102C30008F4F9F4F16C0882311F096E911C077235C
:102C400021F09EE8872F762F05C0662371F096E865
:102C5000862F70E060E02AF09A95660F771F881F34
:102C6000DAF7880F9695879597F9089597F99F67F2
:102C700080E870E060E008959FEF80EC0895002404
:102C80000A941616170618060906089500240A94D1
:102C900012161306140605060895092E0394000C57
:102CA00011F4882352F0BB0F40F4BF2B11F460FFE6
:102CB00004C06F5F7F4F8F4F9F4F089557FD90580F
:102CC000440F551F59F05F3F71F04795880F97FBF0
:102CD000991F61F09F3F79F08795089512161306AA
:102CE0001406551FF2CF4695F1DF08C016161706D9
:102CF0001806991FF1CF869571056105089408950E
:102D0000E894BB2766277727CB0197F908950BD066
:102D1000C4CFB5DF28F0BADF18F0952309F0A6CFAD
:102D2000ABCF1124EECFCADFA0F3959FD1F3950F5F
:102D300050E0551F629FF001729FBB27F00DB11D3F
:102D4000639FAA27F00DB11DAA1F649F6627B00DCF
:102D5000A11D661F829F2227B00DA11D621F739FB8
:102D6000B00DA11D621F839FA00D611D221F749FC6
:102D70003327A00D611D231F849F600D211D822F0D
:102D8000762F6A2F11249F5750408AF0E1F0882354
:102D90004AF0EE0FFF1FBB1F661F771F881F915061
:102DA0005040A9F79E3F510570F060CFAACF5F3F1A
:102DB000ECF3983EDCF3869577956795B795F79594
:102DC000E7959F5FC1F7FE2B880F911D969587951C
:102DD00097F90895222309F45BC030E23093520042
:102DE00038E0309350003091510033FFFCCF611533
:102DF00038E4730738EE830731E0930709F482C0A3
:102E0000611534E2730734EF8307910509F47CC040
:102E1000611532E173073AE78307910509F44BC066
:102E2000611539E073073DE38307910509F46EC02E
:102E3000603834E873073EE18307910509F460C008
:102E4000603432E473073FE08307910509F462C000
:102E5000603231EA730737E08307910509F458C0FF
:102E6000603930ED730733E08307910509F454C0EE
:102E7000683438EE730731E08307910509F44EC0DA
:102E80006432744F8105910509F04AC084E414C08E
:102E900032E2309352003AE03093500030915100CA
:102EA00031FFFCCF3091510033FDA1CF3091510063
:102EB00033FFF8CF9CCF8CE098ED94BF222399F09C
:102EC00023E02093400094BF80934100442329F0E5
:102ED00088ED84BF81E08093420088ED84BF81E06B
:102EE00080938000089521E02093400094BF809358
:102EF000410094BF82E08093560020936000E6CFAB
:102F00008CE1DACF80E0D8CF84E0D6CF84E1D4CF93
:102F10008CE2D2CF84E2D0CF84E3CECF8CE3CCCF8F
:102F200080E0089588ED84BF81E08093800008955B
:102F300088ED84BF83E080938000FFCFFC01308167
:102F400081E090E0062E01C0880F0A94EAF7809590
:102F5000832380837096E60FF11D8081422B807C55
:102F6000482B40830895FC01308181E090E0062EDB
:102F700001C0880F0A94EAF7382B30837096E60F69
:102F8000F11D8081807C842B8083211103C080818E
:102F90008760808308950F93FC013185842F90E032
:102FA000880F991FA3E0B0E0082E01C0AA0F0A9471
:102FB000EAF7A095A323082E01C0660F0A94EAF74A
:102FC000A62BA18741110FC00023A9F022872485D9
:102FD00081E090E0042E01C0880F0A94EAF7282BC4
:102FE00024870F910895413091F7011108C083851E
:102FF000822B8387ECCF8285822B8287E8CF238741
:10300000E6CFFC0110828CE081874150510946A334
:1030100057A3268360830895EF920F93FC011082DB
:103020008CE081874150510946A357A320A731A7BF
:103030000683E78283E1818360830F91EF90089597
:10304000FC01848581700895FC0110822CE02187A9
:1030500008954F925F926F927F928F929F92AF925C
:10306000BF92EF92FF920F931F932B013C014901F6
:103070005A0120E030E0A901C501B4010E944023BB
:10308000882309F43EC0C301B201B3DDA501940158
:103090001CDD20E030E040E05FE3B3DC7EDD611565
:1030A000710521E082079105A0F421E0F801208359
:1030B000F7016083718381E01F910F91FF90EF9082
:1030C000BF90AF909F908F907F906F905F904F9048
:1030D0000895969587957795679561157105F1E047
:1030E0008F07910580F0969587957795679561157F
:1030F0007105F1E08F07910550F423E0F80120837A
:10310000D7CF80E0D9CF22E0F8012083D1CF9695A8
:1031100087957795679561157105F1E08F079105A2
:1031200088F0A3E09695879577956795AA95D1F74E
:1031300061157105F1E08F07910540F425E0F80174
:103140002083B6CF24E0F8012083B2CF96958795EF
:10315000779567959695879577956795611571052C
:10316000F1E08F07910520F426E0F8012083A0CF3D
:1031700096958795779567959695879577956795B1
:1031800061157105F1E08F07910508F0BACF27E0CE
:10319000F80120838DCFFC0110828CE081874150A3
:1031A000510946A357A32683608308952091CF0138
:1031B00027FDFCCF8093C0019093C1011092C20102
:1031C00086E08093CA0188ED84BF81E08093CB01C3
:1031D0008091C40108952091CF0127FDFCCF20915B
:1031E000CF0121FF08C026E32093CA0128ED24BFA8
:1031F00021E02093CB0123E32093CA018093C001F7
:103200009093C1011092C2016093C40185E3809341
:10321000CA0188ED84BF81E08093CB010895FF92BD
:103220000F931F93CF93DF938C01C7E0D0E0F12C75
:1032300008C0F1100BC0CE01CEDF2196C032D105FF
:1032400071F0F80161918F016111F3CF60E0CE015F
:10325000C2DFFF24F3942196C032D10591F7DF91AC
:10326000CF911F910F91FF900895CF93962F8032A9
:1032700008F47FC0282F30E020523109F901E852CC
:10328000FE4D5081220F331FF901EE59FE4DC081D2
:10329000F901E451FF4D2081318120937022309358
:1032A000712290936B23252F2F702C9FC02D1124FA
:1032B000EAE0EC0FE0936C2380936D232FEF2093D3
:1032C0006E23506150936F2341116BC080916C222B
:1032D00090916D22A0916E22B0916F228093702305
:1032E00090937123A0937223B093732320916A2249
:1032F00030916B2220937423309375238E2F90E0AE
:103300008E3F9105A4F5209170223091712240E00A
:10331000842F90E0F901E80FF91F5081FC01EA5871
:10332000FC4D50834F5F4C13F3CF20916C232E5FE5
:1033300030E021503109121613060CF09EC080E0D7
:1033400090E040E050E0FC01E559FC4D8081580FD1
:103350004F5F842F90E082179307ACF3F901E55992
:10336000FC4D508380911322813009F46BC0CF91C2
:1033700008958D30E0F7282F30E0F901E65AFD4D31
:103380005081220F331FF901E05CFD4DC081F9012E
:10339000EA5DFD4D208131812093702230937122AE
:1033A00080CF20914C0840918422509185226091D9
:1033B00086227091872220FF21C04F5F5F4F6F4FA1
:1033C0007F4F4093702350937123609372237093C7
:1033D0007323209160083091610820937423309307
:1033E0007523883009F08ACF933009F087CF109287
:1033F000742310927523E0916C2380CF4093702347
:10340000509371236093722370937323209160080B
:10341000309161082093742330937523F0917522C5
:10342000F03DF9F62F303105E0F64F5F5F4F6F4FFB
:103430007F4F409370235093712360937223709356
:103440007323CFCF83E88093A200C091A30B909108
:10345000A30B9C7F9093A30B60916C236E5F8BE614
:1034600093E217D79091A30B8C2F8370892B8093B5
:10347000A30B87E88093A2007ACF50E06FCFCF9361
:10348000E0916E3C2E2F30E024303105BCF090E00E
:1034900020E030E0F901EE58F34C4081F901E858A2
:1034A000F34C40839F5F292F30E0E0916E3C4E2F1C
:1034B00050E0435051092417350764F380936D3C65
:1034C000EA5FE0936E3C8091713C80618093713C37
:1034D00080914C0880FF40C0809184229091852289
:1034E000A0918622B09187220196A11DB11D8093E3
:1034F000723C9093733CA093743CB093753C809164
:103500006008909161088093763C9093773CF0E05E
:10351000E259F34C108260916E3C40E0262F30E07F
:1035200080E090E0F901E259F34CDC01A359B34C7F
:1035300020818C91280F20834F5F60916E3C262F55
:1035400030E0842F90E02817390764F78091132228
:10355000813079F1CF9108958091842290918522D4
:10356000A0918622B09187228093723C9093733C05
:10357000A093743CB093753C209160083091610831
:103580002093763C3093773C40917522403D09F082
:10359000BECF2F30310508F0BACF0196A11DB11D65
:1035A0008093723C9093733CA093743CB093753CB1
:1035B000AECF83E88093A200C091A30B9091A30BA0
:1035C0009C7F9093A30B6E5F8DE69CE362D69091F7
:1035D000A30B8C2F8370892B8093A30B87E8809398
:1035E000A200CF9108953F924F925F926F927F9287
:1035F0008F929F92AF92BF92CF92DF92EF92FF9203
:103600000F931F93CF93DF93CDB7DEB73C01962E78
:10361000142FF22E4D885E8885DC21E041E060E0C9
:1036200078E488EE91E0D6DB81E0809348006092F8
:103630007B2270927C2290927D2210937E22E092D7
:103640007F228093802284E080938122F0928222E4
:103650000093832210928422109285221092862257
:1036600010928722109288221092892282E090E0A4
:103670009DDD382E83E090E099DD982E8FEF98162F
:1036800009F4B7C0F31409F489C06FED80E090E04D
:10369000A2DD6F2D82E090E09EDD61E083E090E0AE
:1036A0009ADD0E94B50180E090E080DD8E3E09F455
:1036B00080C080E680938A2280E480938B220E94DF
:1036C00020020E94E102A0927922B0927A22C09256
:1036D0007722D09278228092762287E090E066DD91
:1036E0008F3F09F4BDC00CE812E2E6EFEE2EFF2496
:1036F000FA94C7018B5792427C01C701800F911F3A
:1037000055DDF80181938F01F2E2053A1F07A9F711
:1037100089E1ECE8F2E2A5EAB2E201900D928A9525
:10372000E1F721E042E15AE767E080E498E033DD29
:10373000E091752281E08E0F80937522F0E0E25EC9
:10374000FD4D808190E0019780936808909369080F
:1037500081E08093470820E040E066E080E096E06A
:1037600002DC80E48093050640E060E081E090E0C8
:103770007BD4D9D484E892E2DF91CF911F910F914D
:10378000FF90EF90DF90CF90BF90AF909F908F9081
:103790007F906F905F904F903F90A9C691E09912F3
:1037A00074CF0E94B50180E090E000DD8E3E09F00C
:1037B00080CF81E090E0FADC80938A22A114B104EA
:1037C00091F0760185010C0D1D1DF0E26F2E712C1C
:1037D000C301ECDCF70181937F01FFEF6F1A7F0AD1
:1037E000E016F106A9F780E880938B220E94E1029F
:1037F0006ACF6F2D82E090E0EEDC61E083E090E044
:10380000EADC82E090E0D2DC382E83E090E0CEDC8F
:10381000982E8201A7E06A2E712CE12C0BC0E110DA
:103820000EC0C301D8DCFFEF6F1A7F0A80E2681672
:10383000710489F0F80161918F016111F0CF60E0AE
:10384000C301C9DCEE24E394FFEF6F1A7F0A80E224
:103850006816710479F76FED80E090E0BCDC12CF60
:10386000720107E010E0D12C0AC0D1100DC0C801D0
:10387000B2DC0F5F1F4F0032110509F434CFF7019E
:1038800061917F016111F1CF60E0C801A4DCDD240A
:10389000D394EFCF0E944D0120E480E092EEA4E0AB
:1038A000B0E00197A109B1090097A105B105C9F7D9
:1038B00020930706F2CF8091842290918522A091D7
:1038C0008622B09187220196A11DB11D809384228A
:1038D00090938522A0938622B09387228091C9225B
:1038E0008F5F8093C9228EE090E080936808909368
:1038F000690881E0809375220E94310380914C0811
:10390000806180934C080E9465030E947F0440916F
:103910008A2247FD03C0842F8370B1C0842F837037
:10392000813009F0ACC084E892E2809370229093D9
:10393000712283E080936B238EE080936C2388E078
:1039400080936D238FEF80936E2384E180936F23A8
:1039500080914C0880FF18C080918422909185222C
:10396000A0918622B09187220196A11DB11D80935E
:10397000702390937123A0937223B093732380914B
:1039800060089091610826C08091842290918522E0
:10399000A0918622B0918722809370239093712307
:1039A000A0937223B0937323209160083091610833
:1039B00050917522503D71F42F30310558F4019625
:1039C000A11DB11D8093702390937123A093722346
:1039D000B0937323109274231092752380918422E4
:1039E00090918522A0918622B091872280937623A0
:1039F00090937723A0937823B093792320916C231D
:103A00002E5F30E0215031091216130684F450E085
:103A100060E080E090E0FC01E559FC4D8081680F9A
:103A20005F5F852F90E082179307ACF301C060E0E1
:103A3000F901E559FC4D608380911322813021F515
:103A400083E88093A200C091A30B9091A30B9C7F6D
:103A50009093A30B60916C236E5F8BE693E219D475
:103A60009091A30B8C2F8370892B8093A30B87E8F5
:103A70008093A20040918A22842F837000C0882303
:103A800039F0813019F400C092E003C091E001C028
:103A900094E080918422892321F080E480930606BB
:103AA00005C046FF03C080E4809305060E946403BE
:103AB00080914C0884FF05C080917422811101C05F
:103AC000E9DE189590918A229370913009F008955B
:103AD000462F63E0CACBCF92DF92FF920F931F93E2
:103AE000CF93DF931F921F92CDB7DEB78D3040F496
:103AF000E82FF0E0DF01A65ABD4D9C91961759F0D2
:103B000080E00F900F90DF91CF911F910F91FF9068
:103B1000DF90CF900895EE0FFF1FE05CFD4D6081B8
:103B200071816217730761F7883009F49CC08A308D
:103B300009F456C08B30F9F08C3011F78A01B7E0E8
:103B4000CB2ED12CF12C0CC0F1100FC0C60143DBE1
:103B5000FFEFCF1ADF0A80E2C816D10409F43BC098
:103B6000F80161918F016111EFCF60E0C60133DB95
:103B7000FF24F394EDCFFA018081813009F4B5C0C0
:103B8000823009F4A2C0843011F081E0BACF6EEE29
:103B900080E090E020DB60918A2281E090E01BDBF6
:103BA0008091792290917A22892BA9F000E010E08F
:103BB000E0917722F0917822E00FF11F6081C80137
:103BC000809609DB0F5F1F4F8091792290917A22B6
:103BD0000817190768F383E08093742281E091CF7E
:103BE000FA01808186FD04C080E48093060680810E
:103BF00010918A22837F80938A22FA01808185FF37
:103C000041C015FF59C083FF10C081E08093C122DD
:103C10001092BF228093C0221092BE2280918A22ED
:103C2000877F80938A22FA018081837079F4812FC3
:103C3000837009F4AACF1092C12249835A830E944B
:103C40002E0349815A81FA0180818370813029F1E4
:103C5000833009F09ACF1370133009F496CF0E9485
:103C6000300381E04ECFFA0180819181A281B3813E
:103C70008093842290938522A0938622B0938722FA
:103C800081E03FCF15FFBFCF49835A830E942D03A8
:103C900049815A81FA018081B6CF812F83708130AA
:103CA00009F473CF49835A830E942F0349815A81B3
:103CB000FA0180818370CCCF49835A830E942C0300
:103CC00049815A81FA0180819ECF80E090E049834A
:103CD0005A836CDA49815A818E3E09F011CF83E014
:103CE00080937422FA0180814ECF85EA92E2498363
:103CF0005A8395DA6FED80E090E06DDA83E080938F
:103D0000742249815A81FA0180813ACF0E9431039D
:103D10008091680890916908E091752221E02E0F4A
:103D200020937522E770F0E0E25EFD4D3081830F55
:103D3000911D809368089093690820FD26C18091A9
:103D40001322813069F48093250783E88093A200D1
:103D50008091A30B8F7C8093A30B87E88093A200B4
:103D60008091C822811103C08091C7220FC0815069
:103D70008093C822882319F08091C72207C010922F
:103D8000C8221092C7221092C2229BC0882309F435
:103D900098C0A0916B24B0916C2480916E3C8F3FB1
:103DA00059F010916F3C5091703C0091713C22E7AA
:103DB000E22E2CE3F22E0AC01091713C5091723C1D
:103DC0000091733C94E7E92E9CE3F92EFD013196B6
:103DD00081F090E040E020E030E0E901C359D34CAD
:103DE0002881420F9F5F292F30E02E173F07A8F34D
:103DF00001C040E0E359F34C9081491360C05F3F3C
:103E000009F05DC090916D3C913089F51D31B0F4A1
:103E10001D3008F01EC1E12FF0E0E65AFD4D908103
:103E2000091317C1193009F00FC1809160089091F2
:103E30006108809388229093892206C1602F812F88
:103E40000E94860490918A2294FD39C0811103C09A
:103E500080916E3C05C041E061E0812F06DA2FC001
:103E600090E0883F91055CF589E009DB28C0CD0131
:103E70000497202F2F70622F70E02AD41D3130F468
:103E80009B01A701602F812F26DE06C09B01A701A1
:103E9000602F812F0E949F0490918A2294FD0FC071
:103EA000882329F041E062E0812FDFD908C08091AA
:103EB0006E3C90E0883F910514F48AE0E0DA1092BD
:103EC000C72280911322813009F05CC080910807DD
:103ED00086FF46C080917222909173220196883BA2
:103EE0002BE0920729F080937222909373223CC0BA
:103EF000109272221092732280918A22982F9370CE
:103F00009130E9F486FD03C090E490930606982F63
:103F1000907F90938A2283FF0BC01092BF2281E092
:103F20008093C0221092BE22892F877F80938A229D
:103F30001092C1220E942E039091132201C091E0A1
:103F40001092C5221092C6221092C3221092C4224F
:103F50008091A30B8C7F8093A30B913029F012C02A
:103F6000109272221092732283E88093A2008091B3
:103F7000A30B80638093A30B87E88093A20081E06A
:103F8000809326070E94660302C00E947F048091EE
:103F90007422882339F0815080937422811102C0E9
:103FA0000E9498178091C0228823E1F080917522A9
:103FB00083708230B9F48091BE228D3060F48930F4
:103FC00009F04CC02091600830916108209388224C
:103FD0003093892243C08F5F8093BE228C3111F4CD
:103FE0001092C0228091C122882309F1809175220C
:103FF0008370E9F48091BF22E82FF0E0E852FE4D93
:104000006081805E0E948604882331F08091BF2207
:1040100041E061E0805E29D98091BF228F5F80936B
:10402000BF2290917622891302C01092C1220E9471
:10403000640380914C0884FF05C080917422811133
:1040400001C028DC189510C080918A2284FF03CF1C
:1040500036CF90918A2294FF03CF31CF41E061E0C7
:1040600004D98091BE22B7CFFF920F931F93CF93B5
:10407000DF931F921F92CDB7DEB789839A83F62E06
:10408000142F20E040E060E080E297E00E94B31748
:1040900020E040E066E080E097E00E949E1701E0AB
:1040A00020E440E063E080E097E00E94CB1781E0ED
:1040B0008093260783E08093A50B89818093A60BCC
:1040C0008F2D90E18902B00111248A818F70862B97
:1040D0008093A70B112329F08091A40B8460809317
:1040E000A40B88E08093A50620E040E063E080EA2E
:1040F00096E00E94B31720E040E062E080EA96E09C
:104100000E949E178091080786FF05C08091A30B2F
:104110008C7F8093A30B0F900F90DF91CF911F9115
:104120000F91FF900895E0EAFBE084818861848329
:1041300080EE818383818063838308951F920F9231
:104140000FB60F92112408B60F9218BE09B60F923F
:1041500019BE0BB60F921BBE2F933F934F935F93E5
:104160006F937F938F939F93AF93BF93EF93FF933F
:104170000E9482042091C5223091C622C901019675
:104180008093C5229093C622F901E359FB4D20810B
:104190002093A00B811528E1920729F12091C322D9
:1041A0003091C4222817390729F48091A30B8C7F02
:1041B0008093A30B0E948304FF91EF91BF91AF9175
:1041C0009F918F917F916F915F914F913F912F912F
:1041D0000F900BBE0F9009BE0F9008BE0F900FBE40
:1041E0000F901F9018951092C5221092C62280E061
:1041F00090E0D4CF1F920F920FB60F92112408B601
:104200000F9218BE09B60F9219BE0BB60F921BBEC5
:104210002F933F934F935F936F937F938F939F93CE
:10422000AF93BF93EF93FF930E948404809108079C
:1042300086FD29C02091C5223091C6228091C322DB
:104240009091C4222817390729F08091A30B83602D
:104250008093A30B0E948504FF91EF91BF91AF91D2
:104260009F918F917F916F915F914F913F912F918E
:104270000F900BBE0F9009BE0F9008BE0F900FBE9F
:104280000F901F9018958091A30B8C7F8093A30BA8
:10429000E1CFBF92CF92DF92EF92FF920F931F93E5
:1042A000CF93DF936C01B62E8091080786FD05C081
:1042B0008091A30B83608093A30B0091C322109184
:1042C000C422C0E0D8E1C01BD10BEB2CF12CCE15E1
:1042D000DF0558F1A701B601C80183599B4D0CD2E7
:1042E0008091C5229091C622E00EF11EE092C32279
:1042F000F092C422E11428E1F20609F446C008173E
:104300001907A8F5E816F90690F18FEFE81AF80AF0
:10431000E092C522F092C622E11428E1F20639F5B6
:104320001092C5221092C62222C0AE01B601C80169
:1043300083599B4DE1D1BC1AEB2CF12CBE016C0DC5
:104340007D1DA7018DE694E2D7D18091C522909181
:10435000C622E092C322F092C4220817190788F4FB
:104360002FEFE21AF20AE092C522F092C622DF9104
:10437000CF911F910F91FF90EF90DF90CF90BF9062
:104380000895E816F90660F7F2CF1092C322109252
:10439000C422892B61F781E090E08093C52290933D
:1043A000C622E5CF1F920F920FB60F92112408B6C6
:1043B0000F9218BE09B60F9219BE0BB60F921BBE14
:1043C0002F933F934F935F936F937F938F939F931D
:1043D000AF93BF93EF93FF930E9480049091A00B43
:1043E000E091C22281E08E0F8093C222F0E0E35977
:1043F000F34C9083813019F1843049F190E02091A1
:104400006B2430916C248217930779F10E94810408
:10441000FF91EF91BF91AF919F918F917F916F919C
:104420005F914F913F912F910F900BBE0F9009BE5E
:104430000F9008BE0F900FBE0F901F90189580919F
:104440006D3C81508230D0F11092C222DFCF80913A
:104450006E3C8F3F01F190E08E3F9105A9F30296EB
:1044600080936B2490936C24D1CF20911322213020
:1044700061F120916E3C2F3F29F122E030E0821B58
:10448000930B80936B2490936C241092C22281E052
:104490008093C722BBCF80916E3C90916F3C049675
:1044A0008F3F910509F080F680916F3C9091703CB0
:1044B000049680936B2490936C24A8CF82E380931E
:1044C000C822A4CF24E030E0DACF2093250783E888
:1044D0008093A2008091A30B8F7C8093A30B87E82D
:1044E0008093A20080916B2490916C24C2CFCF93D3
:1044F000DF931F921F92CDB7DEB723E130E029830F
:104500003A838093CB229093CC2283E08093B508AA
:1045100089818093B6088A818F708093B70820E0E4
:1045200048E166E080E496E00E949E1780E1809377
:10453000B408E3EBF8E08081806380830F900F90F4
:10454000DF91CF9108951F920F920FB60F92112411
:1045500008B60F9218BE09B60F9219BE0BB60F928D
:104560001BBE2F938F939F93AF93BF93EF93FF93B4
:104570008091B0088A3AD1F18F3A09F44CC09091F9
:10458000CA22923009F44BC008F472C0943009F486
:1045900052C008F44AC0953061F58093D022109241
:1045A000CA228091C9228A3008F44BC082EF99E771
:1045B000809360089093610881E09AE7809368088F
:1045C0009093690826E020931422E091CB22F09189
:1045D000CC228091CD229091CE22A091CF22B09179
:1045E000D02280839183A283B38303C081E0809330
:1045F000CA22FF91EF91BF91AF919F918F912F911F
:104600000F900BBE0F9009BE0F9008BE0F900FBE0B
:104610000F901F90189582E08093CA22EACF809372
:10462000CD2283E08093CA22E4CF8093CE2284E01F
:104630008093CA22DECF8093CF2285E08093CA2266
:10464000D8CF1092C9222091142289EF99E7821BBA
:104650009109809360089093610881E09AE78093C4
:10466000680890936908222309F4AFCF2150ABCF9B
:10467000992319F0913009F0BCCF1092CA22B9CF1A
:1046800003D008F481E00895990F0008550FAA0B94
:10469000E0E8FEEF16161706E807F907C0F0121655
:1046A0001306E407F50798F0621B730B840B950B58
:1046B00039F40A2661F0232B242B252B21F40895AD
:1046C0000A2609F4A140A6958FEF811D811D08954A
:1046D000AA1BBB1B51E107C0AA1FBB1FA617B70728
:1046E00010F0A61BB70B881F991F5A95A9F7809544
:1046F0009095BC01CD010895FB01DC0102C0019041
:0E4700000D9241505040D8F70895F894FFCF25
:10470E00E304E604820E330CF70FD40CD205D90560
:10471E00E005E705EE05F505FC0506060D06140693
:10472E001B0622062906300637063E0645064C06AF
:10473E0053065A0661066806760684069206A00699
:10474E00AE06BC06CA06D806E606F4060207100731
:10475E001E07DB0839099709F50930077607BC07EC
:10476E000208530A080BD80B890B390B4D08840825
:10477E00BB08C808D508BF04E504EC04ED04EE043C
:10478E00EF04D105D805DF05E605ED05F405FB05BB
:10479E0005060C0613061A06210628062F063606EF
:1047AE003D0644064B065206590660066706750618
:1047BE00830691069F06AD06BB06C906D706E5061B
:1047CE00F30601070F071D072B072C072D072E07D2
:1047DE002F077507BB0701084708480849084A080C
:1047EE004B084C088308BA08C708D408EF22F022F9
:1047FE00F122F322F522F722F922FA22FB22FC22E1
:10480E00FD22FE22FF22012302230323042305237C
:10481E0006230723082309230A230B230C230D2326
:10482E000E230F23112313231523172319231B23C1
:10483E001D231F23212323232523272329232B2332
:10484E002D232F23312333233423352336233723AC
:10485E00382339233F234223452346234723482326
:10486E0049230100010001000100010001000100C7
:10487E000100010001000100010001000100010022
:10488E000100010001000100010001000100010012
:10489E000100010001000100010001000100010002
:1048AE0001000100010001000100010001000100F2
:1048BE0001000100010001000100010001000100E2
:1048CE0001000100010001000600030003000100C9
:1048DE0001000100010001000101020202020101BA
:1048EE0001010101020101010101010101010101A9
:1048FE00010101020202020202020202020202028D
:10490E000202020202010101010101010101010184
:10491E0001010101074265686176696F72000F102F
:10492E00100F100F10107B227D227E227F228022FC
:10493E00812282228322842288228A228B228C2226
:10494E000100010001000100010001000100010051
:10495E000100010001000100190002010101010125
:08496E00010104020101010036
:00000001FF
