:10000000FDC0000020C100001EC100001CC1000096
:100010001AC1000018C1000016C1000014C1000080
:1000200012C1000010C100000EC100000CC1000090
:100030000AC1000008C100000C94060E04C10000B3
:100040000C94070E00C10000FEC00000FCC00000C0
:100050000C94D817F8C000000C94D519F4C0000017
:10006000F2C00000F0C00000EEC00000ECC00000D4
:100070000C94E01DE8C00000E6C00000E4C00000F1
:10008000E2C00000E0C00000DEC00000DCC00000F4
:10009000DAC00000D8C00000D6C00000D4C0000004
:1000A000D2C00000D0C00000CEC00000CCC0000014
:1000B000CAC00000C8C00000C6C000000C94A20E58
:1000C000C2C000000C94A30EBEC00000BCC0000063
:1000D000BAC00000B8C00000B6C00000B4C0000044
:1000E000B2C00000B0C00000AEC00000ACC0000054
:1000F000AAC00000A8C00000A6C00000A4C0000064
:10010000A2C00000A0C000009EC000009CC0000073
:100110009AC0000098C0000096C0000094C0000083
:1001200092C0000090C000008EC000008CC0000093
:100130008AC000000C94540E86C000000C94550E2A
:1001400082C0000080C000007EC000007CC00000B3
:100150007AC0000078C0000076C0000074C00000C3
:1001600072C0000070C000006EC000006CC00000D3
:100170006AC0000068C000000C94A20F64C00000B8
:100180000C94700F60C000000C94371C5CC0000021
:100190000C94890F58C0000056C0000054C00000E5
:1001A0000C943E0F0C94570F4EC000004CC0000042
:1001B0000C94F00E48C000000C94F10E44C00000F6
:1001C00042C0000040C000003EC000003CC0000033
:1001D0003AC0000038C0000036C000000C940F1D6B
:1001E0000C94DB1B30C000002EC000002CC00000AF
:1001F0002AC0000028C0000026C0000011241FBE35
:10020000CFEFCDBFDFE3DEBF00E00CBF18BE19BEED
:100210001ABE1BBE12E2A0E0B0E2ECECFDE300E08F
:100220000BBF02C007900D92A230B107D9F71BBED9
:100230002CE3A2E0B2E201C01D92A83EB207E1F7B2
:1002400088D70C94E41EDCCE8F92AF92BF92CF92EF
:10025000DF92EF920F938BE2882E97E6A92EB12CB6
:100260002BE5C22E22E2D22EEE24E39401E021E01F
:1002700041E061E080E194E00E9413170F91EF905C
:10028000DF90CF90BF90AF908F90089508950E9417
:10029000701B882311F18091BB2280FD1FC090E16B
:1002A0009093650681FF04C09091BC2291FF26C007
:1002B00090E29093650682FF04C09091BC2292FF69
:1002C00019C090E49093650683FF10C08091BC2212
:1002D00083FD0CC080E88093660608959091BC224F
:1002E00090FDDDCF90E190936606DCCF80E88093AF
:1002F0006506089590E490936606E6CF90E29093A9
:100300006606D9CF58C60F931F9340E050E060E2D5
:1003100071E440935B2250935C2260935D22709362
:100320005E2280E090E0A8E4B2E480936B22909398
:100330006C22A0936D22B0936E220AE010E020E0C0
:1003400030E000937B2210937C2220937D22309317
:100350007E2240938B2250938C2260938D22709347
:100360008E2280939B2290939C22A0939D22B093F7
:100370009E221092AB2240935F22509360226093A2
:1003800061227093622280936F2290937022A093D7
:100390007122B093722204E110E020E030E000937B
:1003A0007F221093802220938122309382224093D7
:1003B0008F22509390226093912270939222809387
:1003C0009F229093A022A093A122B093A2221092E8
:1003D000AC22409363225093642260936522709311
:1003E00066228093732290937422A0937522B09317
:1003F00076220EE110E020E030E00093832210939B
:100400008422209385223093862240939322509316
:10041000942260939522709396228093A3229093C6
:10042000A422A093A522B093A6221092AD224093BD
:100430006722509368226093692270936A228093A6
:10044000772290937822A0937922B0937A2208E2BF
:1004500010E020E030E00093872210938822209360
:10046000892230938A224093972250939822609356
:10047000992270939A228093A7229093A822A09306
:10048000A922B093AA221092AE2281E08093AF22DB
:1004900092E09093B02294E09093B12298E09093F0
:1004A000B2221092B7221092B8221092B922109262
:1004B000BA221092B3221092B4221092B522109256
:1004C000B6221092BB221092BC221092BD22109232
:1004D000BE221092BF221092C0228093C1221F918F
:1004E0000F910895D4DE3DD6F6D6ADD70E94D70A37
:1004F0008091A80685FB882780F98093BE22909181
:10050000A80696FF4FC092E0892B8093BE2290915F
:10051000E80694FF4FC094E0892B8093BE2290910F
:10052000280791FF4FC098E0892B8093BE229091BD
:10053000C80792FF4FC090E1892B8093BE22809123
:10054000480681708093BF229091680690FF4EC04C
:1005500092E0892B8093BF229091880690FF3CC047
:1005600094E0892B8093BF229091A80690FD3CC017
:1005700090E0892B8093BF221092B3221092B42274
:100580001092C02280E098E00E945D1480E099E023
:100590000E945D1480E09AE00E945D1480E09BE080
:1005A0000C945D1490E0892B8093BE229091E80614
:1005B00094FDB1CF90E0892B8093BE2290912807C3
:1005C00091FDB1CF90E0892B8093BE229091C80716
:1005D00092FDB1CF90E0B0CF90E0892B8093BF2205
:1005E0009091A80690FFC4CF98E0C3CF90E0B1CF20
:1005F0000E94701B882311F18091BB2280FD1FC0D7
:1006000090E19093650681FF04C09091BC2291FF18
:1006100026C090E29093650682FF04C09091BC22B0
:1006200092FF19C090E49093650683FF10C08091FB
:10063000BC2283FD0CC080E88093660608959091EB
:10064000BC2290FDDDCF90E190936606DCCF80E880
:1006500080936506089590E490936606E6CF90E255
:1006600090936606D9CFE0E6F6E080E1868380E2EB
:10067000868380E4868380E8868308950E94A20DA5
:100680000E94BB0D0E94D40D0E94ED0D84E0E0E4B9
:10069000F6E086831092B3221092B4221092C02208
:1006A0000895089508950895089508950895089562
:1006B00008950895089508950895089590EE980F67
:1006C0009B3240F490E08097FC01E85AFE4D208177
:1006D000261711F080E00895FC01EE0FFF1FEA5A83
:1006E000FF4D0190F081E02D199581E0089590EE85
:1006F000980F9B3248F4E82FF0E0B097DF01A85A3A
:10070000BE4D8C91861711F080E00895EE0FFF1F0B
:10071000DF01AE5FBE4D8D919C9182179307A1F7CB
:10072000E050F04E0190F081E02DCA011994089537
:1007300008950895089508950895089508950895D1
:10074000089508950895089580E00895089580E03B
:100750000895089580E00895089580E0089508952B
:1007600080E00895089580E00895089580E0089558
:10077000089580E008950895FC018081982F9E7F60
:1007800021F48093AB2281E0089580E008950895DC
:10079000FC018081982F9E7F21F48093AC2281E020
:1007A000089580E008950895FC018081982F9E7F30
:1007B00021F48093AD2281E0089580E008950895AA
:1007C000FC018081982F9E7F21F48093AE2281E0EE
:1007D000089580E008950895FC018081982F907F0E
:1007E00021F48093AF2281E0089580E00895089578
:1007F000FC018081982F907F21F48093B02281E0CA
:10080000089580E008950895FC018081982F907FDD
:1008100021F48093B12281E0089580E00895089545
:10082000FC018081982F907F21F48093B22281E097
:10083000089580E008951092B32208951092B42292
:1008400008950895FC018081982F907F21F4809372
:10085000B52281E0089580E00895089581E008952B
:100860000895FC018081982F967F21F48093B72210
:1008700081E0089580E008950895FC018081982F1B
:10088000967F21F48093B82281E0089580E0089556
:100890000895FC018081982F967F21F48093B922DE
:1008A00081E0089580E008950895FC018081982FEB
:1008B000967F21F48093BA2281E0089580E0089524
:1008C000089508950895FC018081982F947F21F464
:1008D0008093BD2281E0089580E008958091A8066C
:1008E00085FB882780F98093BE229091A80696FF09
:1008F0001DC092E0892B8093BE229091E80694FF60
:100900001DC094E0892B8093BE229091280791FF0F
:100910001DC098E0892B8093BE229091C80792FD5C
:100920001DC090E0892B8093BE22089590E0892B12
:100930008093BE229091E80694FDE3CF90E0892B4E
:100940008093BE229091280791FDE3CF90E0892B00
:100950008093BE229091C80792FFE3CF90E1892B4C
:100960008093BE22089580E00895809148068170AA
:100970008093BF229091680690FF15C092E0892B6A
:100980008093BF229091880690FF15C094E0892B38
:100990008093BF229091A80690FD15C090E0892B0E
:1009A0008093BF22089590E0892B8093BF2290917D
:1009B000880690FDEBCF90E0892B8093BF22909129
:1009C000A80690FFEBCF98E0892B8093BF22089573
:1009D00080E00895089580E008950895FC018081E5
:1009E000982F9E7F21F48093C12281E0089580E0BA
:1009F0000895FC012081322F307F11F080E00895AE
:100A00002093B322808184D681E00895FC01208167
:100A1000322F307F11F080E008952093B42280813E
:100A2000BAD781E00895FC018081982F907F11F062
:100A300080E008958093BB222ADC81E00895FC01C8
:100A40008081982F907F11F080E008958093BC22E0
:100A50001EDC81E00895FC0180819181A281B38137
:100A60000097A105B10511F480E0089580938722D5
:100A700090938822A0938922B0938A220E94ED0D40
:100A8000882349F08091C022877F8093C022809183
:100A9000C12280FD03C08BD581E0089561E089E427
:100AA0000E94DA18F8CFFC0180819181A281B38184
:100AB0000097A105B10511F480E0089580937B2291
:100AC00090937C22A0937D22B0937E220E94A20D5F
:100AD000882349F08091C0228E7F8093C02280912C
:100AE000C12280FD03C03DD381E0089561E089E427
:100AF0000E94DA18F8CFFC0180819181A281B38134
:100B00000097A105B10511F480E0089580937F223C
:100B100090938022A0938122B09382220E94BB0DE9
:100B2000882349F08091C0228D7F8093C0228091DC
:100B3000C12280FD03C0CFD381E0089561E089E444
:100B40000E94DA18F8CFFC0180819181A281B381E3
:100B50000097A105B10511F480E0089580938322E8
:100B600090938422A0938522B09386220E94D40D74
:100B7000882349F08091C0228B7F8093C02280918E
:100B8000C12280FD03C05FD481E0089561E089E463
:100B90000E94DA18F8CFCF92DF92EF92FF92FC0119
:100BA000C080D180E280F38020E030E040E05FE36D
:100BB000C701B6010E947F1187FD0AC020E030E026
:100BC00040E057E4C701B6010E94C912181634F478
:100BD00080E0FF90EF90DF90CF900895C092632265
:100BE000D0926422E0926522F0926622DDD78823BB
:100BF00069F08091C0228B7F8093C0228091C122B6
:100C000080FF04C061E089E40E94DA181CD481E00E
:100C1000FF90EF90DF90CF900895CF92DF92EF9208
:100C2000FF92FC01C080D180E280F3802DEC3CEC8F
:100C30004CEC5DE3C701B6010E947F11181654F415
:100C40002DEC3CEC47EC52E4C701B6010E94C912FE
:100C500087FD06C080E0FF90EF90DF90CF90089571
:100C6000C0927322D0927422E0927522F092762282
:100C70009BD7882369F08091C0228B7F8093C0220C
:100C80008091C12280FF04C061E089E40E94DA18EB
:100C9000DAD381E0FF90EF90DF90CF900895CF926C
:100CA000DF92EF92FF92FC01C080D180E280F3805E
:100CB00020E030E040E05FE3C701B6010E947F1111
:100CC00087FD0AC020E030E040E057E4C701B601EC
:100CD0000E94C912181634F480E0FF90EF90DF9064
:100CE000CF900895C0926722D0926822E092692244
:100CF000F0926A2272D7882369F08091C022877FA0
:100D00008093C0228091C12280FF04C061E089E409
:100D10000E94DA184CD481E0FF90EF90DF90CF90E2
:100D20000895CF92DF92EF92FF92FC01C080D180B4
:100D3000E280F3802DEC3CEC4CEC5DE3C701B601A6
:100D40000E947F11181654F42DEC3CEC47EC52E451
:100D5000C701B6010E94C91287FD06C080E0FF905E
:100D6000EF90DF90CF900895C0927722D0927822B2
:100D7000E0927922F0927A2230D7882369F080912C
:100D8000C022877F8093C0228091C12280FF04C04F
:100D900061E089E40E94DA180AD481E0FF90EF90C4
:100DA000DF90CF900895CF92DF92EF92FF92FC01F7
:100DB000C080D180E280F38020E030E040E05FE35B
:100DC000C701B6010E947F1187FD0AC020E030E014
:100DD00040E057E4C701B6010E94C912181634F466
:100DE00080E0FF90EF90DF90CF900895C0925B225B
:100DF000D0925C22E0925D22F0925E22A3D68823FC
:100E000069F08091C0228E7F8093C0228091C122A0
:100E100080FF04C061E089E40E94DA18A2D181E079
:100E2000FF90EF90DF90CF900895CF92DF92EF92F6
:100E3000FF92FC01C080D180E280F3802DEC3CEC7D
:100E40004CEC5DE3C701B6010E947F11181654F403
:100E50002DEC3CEC47EC52E4C701B6010E94C912EC
:100E600087FD06C080E0FF90EF90DF90CF9008955F
:100E7000C0926B22D0926C22E0926D22F0926E2290
:100E800061D6882369F08091C0228E7F8093C02232
:100E90008091C12280FF04C061E089E40E94DA18D9
:100EA00060D181E0FF90EF90DF90CF900895CF92D6
:100EB000DF92EF92FF92FC01C080D180E280F3804C
:100EC00020E030E040E05FE3C701B6010E947F11FF
:100ED00087FD0AC020E030E040E057E4C701B601DA
:100EE0000E94C912181634F480E0FF90EF90DF9052
:100EF000CF900895C0925F22D0926022E09261224A
:100F0000F092622238D6882369F08091C0228D7FCA
:100F10008093C0228091C12280FF04C061E089E4F7
:100F20000E94DA18D8D181E0FF90EF90DF90CF9047
:100F30000895CF92DF92EF92FF92FC01C080D180A2
:100F4000E280F3802DEC3CEC4CEC5DE3C701B60194
:100F50000E947F11181654F42DEC3CEC47EC52E43F
:100F6000C701B6010E94C91287FD06C080E0FF904C
:100F7000EF90DF90CF900895C0926F22D0927022B0
:100F8000E0927122F0927222F6D5882369F0809166
:100F9000C0228D7F8093C0228091C12280FF04C037
:100FA00061E089E40E94DA1896D181E0FF90EF9029
:100FB000DF90CF9008950F93CF93DF9320E048E127
:100FC00065E080EA96E00E94E41320E048E166E0F4
:100FD00080EA96E00E94E41320E048E164E080EEBD
:100FE00096E00E94E41320E048E161E080E297E0AF
:100FF0000E94E41320E048E162E080EC97E00E9468
:10100000E41300E020E240E061E080EA96E00E9424
:10101000111420E441E061E080EA96E00E9411149E
:1010200020E140E061E080EE96E00E94111422E0B1
:1010300040E061E080E297E00E94111424E040E08B
:1010400061E080EC97E00E94111420E040E061E054
:1010500080E496E00E94F91320E040E061E080E641
:1010600096E00E94F91320E040E061E080E896E01D
:101070000E94F91320E040E061E080EA96E00E94DF
:10108000F91321E040E060E080E496E00E94F9136B
:1010900021E040E060E080E696E00E94F91321E064
:1010A00040E060E080E896E00E94F91321E040E033
:1010B00060E080EA96E00E94F91320E040E062E000
:1010C00080E496E00E94F91320E040E064E080E6CE
:1010D00096E00E94F91320E040E065E080E696E0AB
:1010E0000E94F91320E040E066E080E696E00E946E
:1010F000F91320E040E067E080E696E00E94F913F3
:10110000A0E4B6E022E016962C931697E0E6F6E00F
:10111000268380E896E0EC012E8340EA56E0EA015F
:101120002E8321E016962C9316972683EC012E83AE
:10113000EA012E8384E016968C9380E1868380E218
:10114000868380E4868380E88683DF91CF910F9148
:1011500008957AD88091A20087688093A20078943D
:10116000FFCF8F929F92AF92BF92CF92DF92EF927A
:10117000FF920F931F9320915B2230915C2240914C
:101180005D2250915E226CECE62E62E2F62E05EEB8
:1011900012E260E078E488EE91E00E946214882315
:1011A00009F47AC0E091E522E150E73008F08FC001
:1011B000F0E0EE0FFF1FEB57FE4D2081318140E044
:1011C00050E0C090CC22D090CD22E12CF12CC70170
:1011D000B6010E947D1E0E9417129B01AC0160E0C7
:1011E00074E284EF9BE40E94831160938B227093DE
:1011F0008C2280938D2290938E22C701B6010E948B
:1012000017126B017C0120E030E048EC52E4609161
:101210006B2270916C2280916D2290916E220E94BF
:101220008311A70196010E94CD1220E030E040E03A
:101230005FE30E941B110E94EB114B015C0180E0F7
:1012400090E00E941712A70196010E94831120E0EE
:1012500030E048EC52E40E94CD126B017C016093B7
:101260009B2270939C2280939D2290939E22809239
:10127000DB229092DC2220E030E0A9010E947F1165
:10128000181654F420E030E048EC52E4C701B601EF
:101290000E94C91287FD10C010928B2210928C22DE
:1012A00010928D2210928E2210929B2210929C22DC
:1012B00010929D2210929E221F910F91FF90EF900D
:1012C000DF90CF90BF90AF909F908F90089520E0D7
:1012D00030E0A90176CF8F929F92AF92BF92CF92CA
:1012E000DF92EF92FF920F931F9320915F22309134
:1012F00060224091612250916222E2ECEE2EE2E205
:10130000FE2E01ED12E260E078E488EE91E00E94AA
:101310006214882309F478C0E091D122E150E730CB
:1013200008F08DC0F0E0EE0FFF1FEB57FE4D20815F
:10133000318140E050E0C090C222D090C322E12C25
:10134000F12CC701B6010E947D1E9B01AC0160E03B
:1013500078E488EE91E00E94A01ECA01B9010E94C3
:10136000171260938F227093902280939122909312
:101370009222C701B6010E9417126B017C0120E086
:1013800030E048EC52E460916F22709170228091BD
:10139000712290917222B7D7A70196010E94CD12B7
:1013A00020E030E040E05FE346D70E94EB114B01C4
:1013B0005C0180E090E00E941712A7019601A3D77C
:1013C00020E030E048EC52E40E94CD126B017C0139
:1013D00060939F227093A0228093A1229093A222D7
:1013E0008092E3229092E42220E030E0A90187D7A6
:1013F000181654F420E030E048EC52E4C701B6017E
:101400000E94C91287FD10C010928F221092902264
:10141000109291221092922210929F221092A0225A
:101420001092A1221092A2221F910F91FF90EF9093
:10143000DF90CF90BF90AF909F908F90089520E065
:1014400030E0A90178CF8F929F92AF92BF92CF9256
:10145000DF92EF92FF920F931F93209163223091BE
:1014600064224091652250916622B8EDEB2EB2E2E3
:10147000FB2E0AED12E260E078E488EE91E00E9433
:101480006214882309F474C0E091DA22E150E73055
:1014900008F089C0F0E0EE0FFF1FEB57FE4D2081F2
:1014A000318140E050E0C090D822D090D922E12C88
:1014B000F12CC701B6010E947D1E9B01AC0160E0CA
:1014C00078E488EE91E00E94A01ECA01B901AFD76E
:1014D0006093932270939422809395229093962206
:1014E000C701B601A4D76B017C0120E030E048ECD5
:1014F00052E46091732270917422809175229091D0
:10150000762201D7A70196010E94CD1220E030E09B
:1015100040E05FE390D65FD74B015C0180E090E054
:1015200086D7A7019601EFD620E030E048EC52E4E0
:101530000E94CD126B017C016093A3227093A422C0
:101540008093A5229093A6228092D6229092D722B1
:1015500020E030E0A901D3D6181654F420E030E0A2
:1015600048EC52E4C701B6010E94C91287FD10C0C1
:101570001092932210929422109295221092962209
:101580001092A3221092A4221092A5221092A622B9
:101590001F910F91FF90EF90DF90CF90BF90AF9091
:1015A0009F908F90089520E030E0A9017CCF8F922A
:1015B0009F92AF92BF92CF92DF92EF92FF920F93E2
:1015C0001F932091672230916822409169225091A7
:1015D0006A220FECE02E02E2F02E0EEC12E260E046
:1015E00078E488EE91E00E946214882309F471C0C7
:1015F000E091CE22E150E73008F086C0F0E0EE0F37
:10160000FF1FEB57FE4D2081318140E050E0C0903C
:10161000CF22D090D022E12CF12CC701B6010E943C
:101620007D1E9B01AC0160E078E488EE91E00E94B1
:10163000A01ECA01B901FBD660939722709398222D
:101640008093992290939A22C701B601F0D66B013C
:101650007C0120E030E048EC52E460917722709108
:1016600078228091792290917A224DD6A701960115
:1016700094D720E030E040E05FE3DDD5ACD64B010D
:101680005C0180E090E0D3D6A70196013CD620E033
:1016900030E048EC52E481D76B017C016093A722D3
:1016A0007093A8228093A9229093AA228092DD228F
:1016B0009092DE2220E030E0A90121D618164CF4E9
:1016C00020E030E048EC52E4C701B60162D787FD64
:1016D00010C0109297221092982210929922109284
:1016E0009A221092A7221092A8221092A922109258
:1016F000AA221F910F91FF90EF90DF90CF90BF90A3
:10170000AF909F908F90089520E030E0A9017FCFA7
:101710007F928F929F92AF92BF92CF92DF92EF9281
:10172000FF920F931F93CF93DF93882E912CC12CA0
:10173000D12C84E0F82E92E0792EC4010C2C02C04A
:10174000959587950A94E2F780FF52C0C0E0D0E0FB
:1017500010E0C60181559D4D5C018091C02290E052
:101760000C2E02C0959587950A94E2F780FD30C053
:10177000F501808190E00C2E02C0959587950A9422
:10178000E2F780FF25C08091BB22C23009F4ACC0D3
:10179000C33009F47BC0C13009F449C080FD3EC0AC
:1017A00080910008882309F4D2C080E0182B809132
:1017B000000881110BC080910009811107C0809140
:1017C000000A811103C08091000B8111F09245063F
:1017D0002196C430D10509F0C0CF112349F0809182
:1017E000C022812B8093C0228091C12280FDAAC09B
:1017F0003FEFC31AD30A84E0C816D10409F09DCF85
:10180000DF91CF911F910F91FF90EF90DF90CF90DC
:10181000BF90AF909F908F907F9008958091BC2251
:1018200080FFC3CF809100088111BFCF90C081FF9E
:1018300004C08091BC2281FFB8CF80910009811142
:10184000B4CF80917F2290918022A0918122B0918B
:1018500082228093C8229093C922A093CA22B09377
:10186000CB222091E3223091E4224091C222509178
:10187000C322EE24E39401E06091D12280E099E05C
:101880000E9447147092650682E090CF83FF04C0E7
:101890008091BC2283FF89CF8091000B811185CF7D
:1018A0008091872290918822A0918922B0918A22EA
:1018B0008093C4229093C522A093C622B093C722DE
:1018C0002091DD223091DE224091CF225091D02212
:1018D000EE24E39401E06091CE2280E09BE0D7D734
:1018E0007092A50688E062CF82FF04C08091BC227E
:1018F00082FF5BCF8091000A811157CF80918322B4
:1019000090918422A0918522B09186228093DF223B
:101910009093E022A093E122B093E2222091D6227C
:101920003091D7224091D8225091D922EE24E394CD
:1019300001E06091DA2280E09AE0A9D770928506F2
:1019400084E034CF61E089E40E94DA1851CF8091BD
:101950007B2290917C22A0917D22B0917E22809367
:10196000D2229093D322A093D422B093D522209157
:10197000DB223091DC224091CC225091CD22EE240A
:10198000E39401E06091E52280E098E080D77092D6
:10199000450681E00BCF9F92AF92BF92CF92DF922C
:1019A000EF92FF920F931F93CF93DF93C82ED12C0A
:1019B00000E010E024E0A22E32E0B32E9601002ECB
:1019C00002C0359527950A94E2F720FF4DC0C0E08C
:1019D000D0E0912CC80181559D4D7C012091C02201
:1019E00030E00C2E02C0359527950A94E2F720FFCF
:1019F0002BC0F701208130E00C2E02C035952795D1
:101A00000A94E2F720FF20C0C23009F469C0C33055
:101A100009F451C0C130D9F18091000881117AC018
:101A200080E0982A8091000881110EC08091000901
:101A300081110AC08091000A811106C08091000BBB
:101A4000811102C0A09246062196C430D10531F61C
:101A5000992051F090948091C02298229092C022B7
:101A60008091C12280FD51C00F5F1F4F04301105CE
:101A700009F0A4CFDF91CF911F910F91FF90EF90CC
:101A8000DF90CF90BF90AF909F900C9447018091D2
:101A90000009882329F280E099E00FD7B09266060A
:101AA0008091B52281FF46C08091BC228D7F8093BA
:101AB000BC2282E0B6CF8091000B882309F4B0CF1E
:101AC00080E09BE0FAD6B092A6068091B52283FF13
:101AD00035C08091BC22877F8093BC2288E0A1CF53
:101AE0008091000A882309F49BCF80E09AE0E5D634
:101AF000C09386068091B52282FF1EC08091BC22D1
:101B00008B7F8093BC2284E08CCF61E089E40E94CB
:101B1000DA18AACF80E098E0D0D6B092460680913D
:101B2000B52280FF0DC08091BC228E7F8093BC22A5
:101B300081E077CF82E075CF84E073CF88E071CF0A
:101B400081E06FCF80910008811102C080E008958C
:101B500080E098E0B2D682E0809346068091B5227C
:101B600080FF07C08091BC228E7F8093BC2281E0E1
:101B7000089581E0089580910009811102C080E0FC
:101B8000089580E099E099D682E08093660680917E
:101B9000B52281FF07C08091BC228D7F8093BC223B
:101BA00082E0089582E008958091000A811102C0C8
:101BB00080E0089580E09AE080D682E080938606F7
:101BC0008091B52282FF07C08091BC228B7F8093D9
:101BD000BC2284E0089584E008958091000B811177
:101BE00002C080E0089580E09BE067D682E08093A9
:101BF000A6068091B52283FF07C08091BC22877F13
:101C00008093BC2288E0089588E00895189580911B
:101C1000D2229091D322A091D422B091D5220197C3
:101C2000A109B1098093D2229093D322A093D42208
:101C3000B093D5220097A105B105A9F58091AB22FB
:101C400080FD31C080910008882379F080E098E021
:101C500034D682E0809346068091B52280FF05C08D
:101C60008091BC228E7F8093BC22809100098111DB
:101C70000BC08091000A811107C08091000B811177
:101C800003C084E0809346068091C0228E7F8093BB
:101C9000C0228091C12280FF04C061E089E40E94DB
:101CA000DA180E944701189518958091C8229091E2
:101CB000C922A091CA22B091CB220197A109B109F2
:101CC0008093C8229093C922A093CA22B093CB22BA
:101CD0000097A105B105A9F58091AC2280FD31C026
:101CE00080910009882379F080E099E0E6D582E0D0
:101CF000809366068091B52281FF05C08091BC2249
:101D00008D7F8093BC228091000881110BC080914F
:101D1000000A811107C08091000B811103C084E08B
:101D2000809346068091C0228D7F8093C02280914F
:101D3000C12280FF04C061E089E40E94DA180E9499
:101D40004701189518958091DF229091E022A0918B
:101D5000E122B091E2220197A109B1098093DF222B
:101D60009093E022A093E122B093E2220097A10594
:101D7000B105A9F58091AD2280FD31C08091000AA6
:101D8000882379F080E09AE098D582E080938606F7
:101D90008091B52282FF05C08091BC228B7F809309
:101DA000BC228091000881110BC080910009811133
:101DB00007C08091000B811103C084E08093460628
:101DC0008091C0228B7F8093C0228091C12280FFAE
:101DD00004C061E089E40E94DA180E944701189566
:101DE00018958091C4229091C522A091C622B091ED
:101DF000C7220197A109B1098093C4229093C522FB
:101E0000A093C622B093C7220097A105B105A9F5FA
:101E10008091AE2280FD31C08091000B882379F043
:101E200080E09BE04AD582E08093A6068091B522AF
:101E300083FF05C08091BC22877F8093BC22809164
:101E4000000881110BC080910009811107C08091A9
:101E5000000A811103C084E0809346068091C0226D
:101E6000877F8093C0228091C12280FF04C061E0FF
:101E700089E40E94DA180E94470118958091A8060B
:101E800085FD03C08091B72204C08091B72283FFF3
:101E900006C09091A80695FD05C083FF03C081E0B0
:101EA00037DC04C080FF02C081E075DD18958091A9
:101EB000A80686FD03C08091B82204C08091B82294
:101EC00083FF06C09091A80696FD05C083FF03C05E
:101ED00082E01EDC04C080FF02C082E05CDD189559
:101EE0008091E80684FD03C08091B92204C08091EE
:101EF000B92283FF06C09091E80694FD05C083FFD8
:101F000003C084E005DC04C080FF02C084E043DD40
:101F100018958091280781FD03C08091BA2204C0E2
:101F20008091BA2283FF06C09091280791FD05C0D9
:101F300083FF03C088E0ECDB04C080FF02C088E0C0
:101F40002ADD18958091C80782FD03C08091BD22CB
:101F500004C08091BD2283FF07C09091C80792FD05
:101F6000F4C083FFF2C000C08370823008F0E5C087
:101F70008091BB2280FF04C09091BC2290FF2CC0B6
:101F80009091000891112BC080917B2290917C222E
:101F9000A0917D22B0917E228093D2229093D32271
:101FA000A093D422B093D5222091DB223091DC2261
:101FB0004091CC225091CD22EE24E39401E0609137
:101FC000E52280E098E063D482E08093450680912A
:101FD000BB22C1E0D3E005C0C0E0D2E002C0C0E057
:101FE000D2E081FF04C09091BC2291FF2AC0909161
:101FF0000009911126C080917F2290918022A091AA
:102000008122B09182228093C8229093C922A0930A
:10201000CA22B093CB222091E3223091E422409156
:10202000C2225091C322EE24E39401E06091D122B8
:1020300080E099E02CD482E0809365068091BB22F9
:10204000CD2F82FF04C09091BC2292FF2BC09091B3
:10205000000A911129C08091832290918422A0913D
:102060008522B09186228093DF229093E022A09374
:10207000E122B093E2222091D6223091D7224091E2
:10208000D8225091D922EE24E39401E06091DA2223
:1020900080E09AE0FCD382E0809385068091BB22A9
:1020A00094E003C090E001C090E0C92B83FF04C01E
:1020B0008091BC2283FF29C08091000B811127C031
:1020C0008091872290918822A0918922B0918A22C2
:1020D0008093C4229093C522A093C622B093C722B6
:1020E0002091DD223091DE224091CF225091D022EA
:1020F000EE24E39401E06091CE2280E09BE0C7D320
:1021000082E08093A50688E003C080E001C080E003
:102110008C2B94E090934506882309F48AC0909113
:10212000C022982B9093C0228091C12280FF81C051
:1021300061E089E40E94DA187CC08091BC228F6043
:102140008093BC220E94470174C080FF72C08091BE
:102150000008882391F080E098E0AFD382E080937C
:1021600046068091B52280FF0BC08091BC228E7FF5
:102170008093BC22C1E0D3E005C0C0E0D2E002C041
:10218000C1E0D3E080910009882391F080E099E0DC
:1021900094D382E0809366068091B52281FF07C0C8
:1021A0008091BC228D7F8093BC22CD2F01C0CD2F8A
:1021B0008091000A882389F080E09AE07ED382E053
:1021C000809386068091B52282FF09C08091BC224F
:1021D0008B7F8093BC2284E003C080E001C084E058
:1021E000C82B8091000B882389F080E09BE065D3A9
:1021F00082E08093A6068091B52283FF09C080917A
:10220000BC22877F8093BC2288E003C080E001C0AD
:1022100088E08C2B94E090934606882351F08095BB
:102220009091C02289238093C0228091C12280FD99
:102230007FCF18955058BB27AA270ED070C161D107
:1022400030F066D120F031F49F3F11F41EF456C1F6
:102250000EF4E095E7FB4CC1E92F72D180F3BA1779
:10226000620773078407950718F071F49EF58AC119
:102270000EF4E0950B2EBA2FA02D0B01B9019001A1
:102280000C01CA01A0011124FF27591B99F0593FE5
:1022900050F4503E68F11A16F040A22F232F342F2D
:1022A0004427585FF3CF469537952795A795F0407B
:1022B0005395C9F77EF41F16BA0B620B730B840B90
:1022C000BAF09150A1F0FF0FBB1F661F771F881F48
:1022D000C2F70EC0BA0F621F731F841F48F48795A0
:1022E00077956795B795F7959E3F08F0B3CF93958F
:1022F000880F08F09927EE0F979587950895D4D009
:1023000008F481E008950CD00AC102D140F0F9D060
:1023100030F021F45F3F19F0EBC0511134C1EEC031
:102320000FD198F39923C9F35523B1F3951B550B9E
:10233000BB27AA2762177307840738F09F5F5F4F98
:10234000220F331F441FAA1FA9F333D00E2E3AF0D9
:10235000E0E830D091505040E695001CCAF729D0F3
:10236000FE2F27D0660F771F881FBB1F2617370742
:102370004807AB07B0E809F0BB0B802DBF01FF2772
:1023800093585F4F2AF09E3F510568F0B1C0FBC0E3
:102390005F3FECF3983EDCF3869577956795B795AC
:1023A000F7959F5FC9F7880F911D9695879597F9C7
:1023B0000895E1E0660F771F881FBB1F6217730740
:1023C0008407BA0720F0621B730B840BBA0BEE1F55
:1023D00088F7E0950895BCD088F09F5790F0B92F0A
:1023E0009927B751A0F0D1F0660F771F881F991F6A
:1023F0001AF0BA95C9F712C0B13081F0C3D0B1E07C
:102400000895C0C0672F782F8827B85F39F0B93F8B
:10241000CCF3869577956795B395D9F73EF490956B
:102420008095709561957F4F8F4F9F4F0895E894E9
:1024300009C097FB3EF490958095709561957F4F0C
:102440008F4F9F4F9923A9F0F92F96E9BB279395BA
:10245000F695879577956795B795F111F8CFFAF4CA
:10246000BB0F11F460FF1BC06F5F7F4F8F4F9F4FFB
:1024700016C0882311F096E911C0772321F09EE859
:10248000872F762F05C0662371F096E8862F70E0BF
:1024900060E02AF09A95660F771F881FDAF7880F99
:1024A0009695879597F90895990F0008550FAA0BEF
:1024B000E0E8FEEF16161706E807F907C0F0121657
:1024C0001306E407F50798F0621B730B840B950B5A
:1024D00039F40A2661F0232B242B252B21F40895AF
:1024E0000A2609F4A140A6958FEF811D811D08954C
:1024F00097F99F6780E870E060E008959FEF80ECB7
:10250000089500240A941616170618060906089559
:1025100000240A9412161306140605060895092EBF
:102520000394000C11F4882352F0BB0F40F4BF2B2E
:1025300011F460FF04C06F5F7F4F8F4F9F4F08956E
:1025400057FD9058440F551F59F05F3F71F0479564
:10255000880F97FB991F61F09F3F79F08795089549
:10256000121613061406551FF2CF4695F1DF08C068
:10257000161617061806991FF1CF86957105610585
:1025800008940895E894BB2766277727CB0197F92D
:1025900008958ADF08F48FEF08950BD0C0CFB1DF24
:1025A00028F0B6DF18F0952309F0A2CFA7CF1124A9
:1025B000EACFC6DFA0F3959FD1F3950F50E0551FEA
:1025C000629FF001729FBB27F00DB11D639FAA2788
:1025D000F00DB11DAA1F649F6627B00DA11D661FD7
:1025E000829F2227B00DA11D621F739FB00DA11DF8
:1025F000621F839FA00D611D221F749F3327A00DB2
:10260000611D231F849F600D211D822F762F6A2F4D
:1026100011249F5750408AF0E1F088234AF0EE0FD2
:10262000FF1FBB1F661F771F881F91505040A9F7DF
:102630009E3F510570F05CCFA6CF5F3FECF3983E14
:10264000DCF3869577956795B795F795E7959F5F46
:10265000C1F7FE2B880F911D9695879597F90895E0
:10266000222309F45BC030E23093520038E030930B
:1026700050003091510033FFFCCF611538E47307EF
:1026800038EE830731E0930709F482C0611534E224
:10269000730734EF8307910509F47CC0611532E1BB
:1026A00073073AE78307910509F44BC0611539E0D8
:1026B00073073DE38307910509F46EC0603834E881
:1026C00073073EE18307910509F460C0603432E48A
:1026D00073073FE08307910509F462C0603231EA75
:1026E000730737E08307910509F458C0603930ED6E
:1026F000730733E08307910509F454C0683438EE5A
:10270000730731E08307910509F44EC06432744FBA
:102710008105910509F04AC084E414C032E2309387
:1027200052003AE0309350003091510031FFFCCF1D
:102730003091510033FDA1CF3091510033FFF8CFDC
:102740009CCF8CE098ED94BF222399F023E0209356
:10275000400094BF80934100442329F088ED84BF5A
:1027600081E08093420088ED84BF81E08093800007
:10277000089521E02093400094BF8093410094BFCE
:1027800082E08093560020936000E6CF8CE1DACFA0
:1027900080E0D8CF84E0D6CF84E1D4CF8CE2D2CF12
:1027A00084E2D0CF84E3CECF8CE3CCCF80E0089519
:1027B00088ED84BF81E080938000089588ED84BF18
:1027C00083E080938000FFCFFC01308181E090E0C6
:1027D000062E01C0880F0A94EAF780958323808330
:1027E0007096E60FF11D8081422B807C482B408340
:1027F0000895FC01308181E090E0062E01C0880F31
:102800000A94EAF7382B30837096E60FF11D808129
:10281000807C842B8083211103C08081876080832A
:1028200008950F93FC013185842F90E0880F991F44
:10283000A3E0B0E0082E01C0AA0F0A94EAF7A09521
:10284000A323082E01C0660F0A94EAF7A62BA187DE
:1028500041110FC00023A9F02287248581E090E078
:10286000042E01C0880F0A94EAF7282B24870F91C1
:102870000895413091F7011108C08385822B838729
:10288000ECCF8285822B8287E8CF2387E6CFEF9239
:102890000F93FC0110828CE081874150510946A3BF
:1028A00057A32150310920A731A70683E78283E18E
:1028B000818360830F91EF900895FC0110822CE0DA
:1028C000218708954F925F926F927F928F929F928D
:1028D000AF92BF92EF92FF920F931F932B013C0197
:1028E00049015A0120E030E0A901C501B40107DD2A
:1028F000882309F44CC0C301B20199DD2B013C01CE
:1029000020E030E040E05FE3C501B40146DE9B011A
:10291000AC01C301B2018FDCA5019401F4DC20E01D
:1029200030E040E05FE387DC56DD6115710521E0B2
:1029300082079105A0F421E0F8012083F70160836C
:10294000718381E01F910F91FF90EF90BF90AF9046
:102950009F908F907F906F905F904F900895969585
:1029600087957795679561157105F1E08F0791055A
:1029700080F0969587957795679561157105F1E0DB
:102980008F07910550F423E0F8012083D7CF80E032
:10299000D9CF22E0F8012083D1CF969587957795FE
:1029A000679561157105F1E08F07910588F0A3E047
:1029B0009695879577956795AA95D1F761157105D5
:1029C000F1E08F07910540F425E0F8012083B6CFB0
:1029D00024E0F8012083B2CF969587957795679587
:1029E000969587957795679561157105F1E08F0745
:1029F000910520F426E0F8012083A0CF96958795D5
:102A00007795679596958795779567956115710583
:102A1000F1E08F07910508F0BACF27E0F801208395
:102A20008DCFFC0110828CE081874150510946A373
:102A300057A32683608308952091CF0127FDFCCF03
:102A40008093C0019093C1011092C20186E08093EF
:102A5000CA0188ED84BF81E08093CB018091C401DD
:102A600008952091CF0127FDFCCF2091CF0121FFB8
:102A700008C026E32093CA0128ED24BF21E020935B
:102A8000CB0123E32093CA018093C0019093C1013D
:102A90001092C2016093C40185E38093CA0188ED5E
:102AA00084BF81E08093CB010895CF93962F80322D
:102AB00008F47FC0282F30E020523109F901E85A8C
:102AC000FE4D5081220F331FF901EE5FFE4DC08194
:102AD000F901E455FF4D2081318120930822309384
:102AE00009229093E622252F2F702C9FC02D1124B0
:102AF000EAE0EC0FE093E7228093E8222FEF2093A7
:102B0000E92250615093EA2241116BC08091042266
:102B100090910522A0910622B09107228093EB228A
:102B20009093EC22A093ED22B093EE22209102220A
:102B3000309103222093EF223093F0228E2F90E0E9
:102B40008E3F9105A4F5209108223091092240E0A2
:102B5000842F90E0F901E80FF91F5081FC01EF503C
:102B6000FD4D50834F5F4C13F3CF2091E7222E5F32
:102B700030E021503109121613060CF09EC080E09F
:102B800090E040E050E0FC01EA51FD4D8081580F9B
:102B90004F5F842F90E082179307ACF3F901EA515D
:102BA000FD4D508380918321813009F46BC0CF911A
:102BB00008958A31E0F7282F30E0F901E951FE4D00
:102BC0005081220F331FF901ED54FE4DC081F901F0
:102BD000E556FE4D20813181209308223093092251
:102BE00080CF20914C0840911C2250911D22609171
:102BF0001E2270911F2220FF21C04F5F5F4F6F4F39
:102C00007F4F4093EB225093EC226093ED22709320
:102C1000EE2220916008309161082093EF223093DA
:102C2000F022883009F08ACF933009F087CF1092D4
:102C3000EF221092F022E091E72280CF4093EB2226
:102C40005093EC226093ED227093EE222091600865
:102C5000309161082093EF223093F022F0910D2201
:102C6000F03DF9F62F303105E0F64F5F5F4F6F4FC3
:102C70007F4F4093EB225093EC226093ED227093B0
:102C8000EE22CFCF83E88093A200C091A30B909156
:102C9000A30B9C7F9093A30B6091E7226E5F86EE5F
:102CA00092E234D69091A30B8C2F8370892B809362
:102CB000A30B87E88093A2007ACF50E06FCFCF9329
:102CC000E091E93B2E2F30E024303105BCF090E05C
:102CD00020E030E0F901E351F44C4081F901ED507E
:102CE000F44C40839F5F292F30E0E091E93B4E2F69
:102CF00050E0435051092417350764F38093E83BB3
:102D0000EA5FE093E93B8091EC3B80618093EC3B90
:102D100080914C0880FF40C080911C2290911D2220
:102D2000A0911E22B0911F220196A11DB11D80937A
:102D3000ED3B9093EE3BA093EF3BB093F03B809143
:102D40006008909161088093F13B9093F23BF0E032
:102D5000E751F44C10826091E93B40E0262F30E0CF
:102D600080E090E0F901E751F44CDC01A851B44C4B
:102D700020818C91280F20834F5F6091E93B262FA3
:102D800030E0842F90E02817390764F78091832181
:102D9000813079F1CF91089580911C2290911D226C
:102DA000A0911E22B0911F228093ED3B9093EE3BA9
:102DB000A093EF3BB093F03B209160083091610805
:102DC0002093F13B3093F23B40910D22403D09F0BE
:102DD000BECF2F30310508F0BACF0196A11DB11D2D
:102DE0008093ED3B9093EE3BA093EF3BB093F03B91
:102DF000AECF83E88093A200C091A30B9091A30B68
:102E00009C7F9093A30B6E5F88EE9BE37FD59091A0
:102E1000A30B8C2F8370892B8093A30B87E880935F
:102E2000A200CF9108956F927F928F929F92AF925E
:102E3000BF92CF92DF92EF92FF920F931F93CF93A7
:102E4000DF93CDB7DEB73C01962EF42E122FB0DC07
:102E500021E041E060E078E488EE91E001DC81E08F
:102E6000809348006092132270921422909215224F
:102E7000F0921622E09217221092182280E180939D
:102E8000192210931A2200931B2210921C221092D6
:102E90001D2210921E2210921F22109220221092A8
:102EA00021220E94820180E090E0C6DD8E3E09F47E
:102EB0004EC080E68093222280E4809323220E94E9
:102EC00083010E947202A0921122B0921222C0923B
:102ED0000F22D092102280920E2221E042E15AE786
:102EE00067E080E498E09DDDE0910D2281E08E0FA7
:102EF00080930D22F0E0ED56FE4D808190E0019729
:102F0000809368089093690881E08093470820E0E7
:102F100040E066E080E096E06CDC80E480930506AB
:102F200040E060E081E090E0E1D33AD48CE192E2CD
:102F3000DF91CF911F910F91FF90EF90DF90CF9095
:102F4000BF90AF909F908F907F906F900DC681E063
:102F500090E072DD80932222A114B10491F08601E9
:102F600035016C0C7D1CE4E0EE2EF12CC70164DD14
:102F7000F80181938F01FFEFEF1AFF0A061517057D
:102F8000A9F780E8809323220E9472029CCF0E94BE
:102F9000460120E480E092EEA4E0B0E00197A109B0
:102FA000B1090097A105B105C9F720930706F2CF33
:102FB00080911C2290911D22A0911E22B0911F226F
:102FC0000196A11DB11D80931C2290931D22A093F8
:102FD0001E22B0931F22809153228F5F8093532231
:102FE0000E9453038EE090E08093680890936908F4
:102FF00081E080930D2280914C08806180934C0881
:103000000E9455030E94570340912222842F83700F
:10301000813009F0ACC08CE192E280930822909359
:10302000092283E08093E6228EE08093E72288E005
:103030008093E8228FEF8093E92284E18093EA2253
:1030400080914C0880FF18C080911C2290911D2215
:10305000A0911E22B0911F220196A11DB11D809347
:10306000EB229093EC22A093ED22B093EE2280917C
:1030700060089091610826C080911C2290911D22C9
:10308000A0911E22B0911F228093EB229093EC22FC
:10309000A093ED22B093EE22209160083091610858
:1030A00050910D22503D71F42F30310558F40196A6
:1030B000A11DB11D8093EB229093EC22A093ED22F1
:1030C000B093EE221092EF221092F02280911C22F7
:1030D00090911D22A0911E22B0911F228093F12277
:1030E0009093F222A093F322B093F4222091E7224E
:1030F0002E5F30E0215031091216130684F450E09F
:1031000060E080E090E0FC01EA51FD4D8081680FB5
:103110005F5F852F90E082179307ACF301C060E0FA
:10312000F901EA51FD4D608380918321813021F5C1
:1031300083E88093A200C091A30B9091A30B9C7F86
:103140009093A30B6091E7226E5F86EE92E2DED34E
:103150009091A30B8C2F8370892B8093A30B87E80E
:103160008093A20040912222842F837000C0882384
:1031700039F0813019F400C092E003C091E001C041
:1031800094E080911C22892321F080E4809306063C
:1031900005C046FF03C080E4809305060E945403E7
:1031A00080914C0884FF05C080910C22811101C0E0
:1031B000EEDE1895909122229370913009F00895D7
:1031C000462F63E072CC0F931F93CF93DF931F9230
:1031D0001F92CDB7DEB78A3140F4E82FF0E0DF016F
:1031E000A951BE4D9C91961741F080E00F900F9031
:1031F000DF91CF911F910F910895EE0FFF1FED54B6
:10320000FE4D608171816217730779F7883009F488
:103210007CC08A30B9F18B3041F7FA01808181306E
:1032200009F4B5C0823009F4A2C0843011F081E005
:10323000DDCF6EEE80E090E014DC6091222281E030
:1032400090E00FDC8091112290911222892BA9F03D
:1032500000E010E0E0910F22F0911022E00FF11F4A
:103260006081C8010496FDDB0F5F1F4F8091112222
:10327000909112220817190768F383E080930C22BB
:1032800081E0B4CFFA01808186FD04C080E48093A0
:103290000606808110912222837680932222FA01F1
:1032A000808185FF41C015FF59C083FF10C081E0B8
:1032B00080934B221092492280934A2210924822F6
:1032C00080912222877F80932222FA01808183705D
:1032D00079F4812F837009F4AACF10924B2249838D
:1032E0005A830E943E0349815A81FA01808183708A
:1032F000813029F1833009F09ACF1370133009F42B
:1033000096CF0E94520381E071CFFA0180819181B2
:10331000A281B38180931C2290931D22A0931E2230
:10332000B0931F2281E062CF15FFBFCF49835A833C
:103330000E94330349815A81FA018081B6CF812FDF
:103340008370813009F473CF49835A830E945103FB
:1033500049815A81FA0180818370CCCF49835A8395
:103360000E94F80249815A81FA0180819ECF80E053
:1033700090E049835A8360DB49815A818E3E09F08F
:1033800034CF83E080930C22FA0180814ECF6FED21
:1033900080E090E049835A8364DB83E080930C22D1
:1033A00049815A81FA0180813DCF0E945303809167
:1033B000680890916908E0910D2221E02E0F20937A
:1033C0000D22E770F0E0ED56FE4D3081830F911D28
:1033D000809368089093690820FD1EC18091832125
:1033E000813069F48093250783E88093A20080915F
:1033F000A30B8F7C8093A30B87E88093A20080911E
:103400005222811103C0809151220FC081508093BC
:103410005222882319F08091512207C01092522223
:103420001092512210924C2293C0882309F490C02C
:10343000A091E623B091E7234091E93B4F3F59F03B
:103440001091EA3B5091EB3B0091EC3B9DEEE92E55
:103450009BE3F92E0AC01091EC3B5091ED3B00919B
:10346000EE3B8FEEE82E8BE3F82EFD01319681F0D6
:1034700080E090E020E030E0E901C851D44C2881A0
:10348000920F8F5F282F30E02E173F07A8F301C05F
:1034900090E0E851F44C8081981358C05F3F09F0E8
:1034A00055C08091E83B813069F51D31A0F41A3197
:1034B00000F5E12FF0E0E951FE4D808108131AC0BC
:1034C000193091F4809160089091610880932022D6
:1034D0009093212209C0602F812F0E945E038111E9
:1034E00003C04091E93B06C041E061E0812FDDDA95
:1034F0002DC000C0842F90E0883F91053CF589E005
:10350000DEDB24C0CD010497202F2F70622F70E0E6
:1035100003D41D3130F49B01A701602F812F53DEAE
:1035200006C09B01A701602F812F0E94770388238B
:1035300029F041E062E0812FB8DA08C08091E93BD0
:1035400090E0883F910514F48AE0B9DB1092512293
:1035500080918321813009F05CC08091080786FF4B
:1035600046C080910A2290910B220196883B2BE065
:10357000920729F080930A2290930B223CC010926C
:103580000A2210920B2280912222982F9370913060
:10359000E9F486FD03C090E490930606982F907698
:1035A0009093222283FF0BC01092492281E08093E6
:1035B0004A2210924822892F877F809322221092DC
:1035C0004B220E943E039091832101C091E0109212
:1035D0004F221092502210924D2210924E22809132
:1035E000A30B8C7F8093A30B913029F012C0109213
:1035F0000A2210920B2283E88093A2008091A30BF1
:1036000080638093A30B87E88093A20081E080937E
:1036100026070E94560302C00E94570380910C2285
:10362000882331F0815080930C22811101C0C6D8CB
:1036300080914A228823E1F080910D2283708230AC
:10364000B9F4809148228A3160F4893009F042C08F
:10365000209160083091610820932022309321222C
:1036600039C08F5F809348228C3111F410924A2226
:1036700080914B22882309F180910D228370E9F417
:1036800080914922E82FF0E0E85AFE4D6081805E8B
:103690000E945E03882331F08091492241E061E07D
:1036A000805E03DA809149228F5F80934922909156
:1036B0000E22891302C010924B220E945403809163
:1036C0004C0884FF05C080910C22811101C05FDC91
:1036D000189506C041E061E0E8D980914822C1CF49
:1036E0008091222285FB882780F90895FF920F930D
:1036F0001F93CF93DF931F921F92CDB7DEB78983BD
:103700009A83F62E142F20E040E060E080E297E0FC
:1037100070D820E040E066E080E097E055D801E016
:1037200020E440E063E080E097E07BD881E0809394
:10373000260783E08093A50B89818093A60B8F2DAC
:1037400090E18902B00111248A818F70862B8093C9
:10375000A70B112329F08091A40B84608093A40B04
:1037600088E08093A50620E040E063E080EA96E0F0
:1037700040D820E040E062E080EA96E025D88091E1
:10378000080786FF05C08091A30B8C7F8093A30B55
:103790000F900F90DF91CF911F910F91FF9008959F
:1037A000E0EAFBE084818861848380EE8183838109
:1037B0008063838308951F920F920FB60F92112496
:1037C00008B60F9218BE09B60F9219BE0BB60F922B
:1037D0001BBE2F933F934F935F936F937F938F9372
:1037E0009F93AF93BF93EF93FF930E945A0320914F
:1037F0004F2230915022C901019680934F2290931D
:103800005022F901E851FC4D20812093A00B811535
:1038100028E1920729F120914D2230914E2228175C
:10382000390729F48091A30B8C7F8093A30B0E940E
:103830005B03FF91EF91BF91AF919F918F917F912A
:103840006F915F914F913F912F910F900BBE0F9011
:1038500009BE0F9008BE0F900FBE0F901F901895D5
:1038600010924F221092502280E090E0D4CF1F920D
:103870000F920FB60F92112408B60F9218BE09B618
:103880000F9219BE0BB60F921BBE2F933F934F930F
:103890005F936F937F938F939F93AF93BF93EF93B8
:1038A000FF930E945C038091080786FD29C0209148
:1038B0004F223091502280914D2290914E22281714
:1038C000390729F08091A30B83608093A30B0E949A
:1038D0005D03FF91EF91BF91AF919F918F917F9188
:1038E0006F915F914F913F912F910F900BBE0F9071
:1038F00009BE0F9008BE0F900FBE0F901F90189535
:103900008091A30B8C7F8093A30BE1CFBF92CF92CA
:10391000DF92EF92FF920F931F93CF93DF936C018F
:10392000B62E8091080786FD05C08091A30B8360A9
:103930008093A30B00914D2210914E22C0E0D8E15C
:10394000C01BD10BEB2CF12CCE15DF0558F1A701D4
:10395000B601C80188519C4D2ED280914F22909182
:103960005022E00EF11EE0924D22F0924E22E11420
:1039700028E1F20609F446C008171907A8F5E81669
:10398000F90690F18FEFE81AF80AE0924F22F092D0
:103990005022E11428E1F20639F510924F221092DC
:1039A000502222C0AE01B601C80188519C4D03D2FD
:1039B000BC1AEB2CF12CBE016C0D7D1DA70188EE0D
:1039C00093E2F9D180914F2290915022E0924D22C2
:1039D000F0924E220817190788F42FEFE21AF20A24
:1039E000E0924F22F0925022DF91CF911F910F91E0
:1039F000FF90EF90DF90CF90BF900895E816F90602
:103A000060F7F2CF10924D2210924E22892B61F76F
:103A100081E090E080934F2290935022E5CF1F9257
:103A20000F920FB60F92112408B60F9218BE09B666
:103A30000F9219BE0BB60F921BBE2F933F934F935D
:103A40005F936F937F938F939F93AF93BF93EF9306
:103A5000FF930E9458039091A00BE0914C2281E0CB
:103A60008E0F80934C22F0E0E851F44C908381302B
:103A700019F1843049F190E02091E6233091E72359
:103A80008217930779F10E945903FF91EF91BF913B
:103A9000AF919F918F917F916F915F914F913F91E6
:103AA0002F910F900BBE0F9009BE0F9008BE0F9084
:103AB0000FBE0F901F9018958091E83B8150823087
:103AC000D0F110924C22DFCF8091E93B8F3F01F182
:103AD00090E08E3F9105A9F302968093E6239093A0
:103AE000E723D1CF20918321213061F12091E93B5F
:103AF0002F3F29F122E030E0821B930B8093E623D5
:103B00009093E72310924C2281E080935122BBCF07
:103B10008091E93B9091EA3B04968F3F910509F033
:103B200080F68091EA3B9091EB3B04968093E623EC
:103B30009093E723A8CF82E380935222A4CF24E07E
:103B400030E0DACF2093250783E88093A2008091AC
:103B5000A30B8F7C8093A30B87E88093A2008091B6
:103B6000E6239091E723C2CFCF93DF931F921F925A
:103B7000CDB7DEB723E130E029833A838093552225
:103B80009093562283E08093B50889818093B6088C
:103B90008A818F708093B70820E048E166E080E476
:103BA00096E00E94E41380E18093B408E3EBF8E030
:103BB0008081806380830F900F90DF91CF91089573
:103BC0001F920F920FB60F92112408B60F9218BED3
:103BD00009B60F9219BE0BB60F921BBE2F938F938F
:103BE0009F93AF93BF93EF93FF938091B0088A3A6E
:103BF000D1F18F3A09F44CC090915422923009F4DB
:103C00004BC008F472C0943009F452C008F44AC0A2
:103C1000953061F580935A2210925422809153225C
:103C20008A3008F44BC082EF99E780936008909344
:103C3000610881E09AE7809368089093690826E01C
:103C400020938421E0915522F091562280915722B1
:103C500090915822A0915922B0915A228083918349
:103C6000A283B38303C081E080935422FF91EF913C
:103C7000BF91AF919F918F912F910F900BBE0F909D
:103C800009BE0F9008BE0F900FBE0F901F901895A1
:103C900082E080935422EACF8093572283E080937E
:103CA0005422E4CF8093582284E080935422DECFC4
:103CB0008093592285E080935422D8CF10925322CA
:103CC0002091842189EF99E7821B910980936008F4
:103CD0009093610881E09AE780936808909369085F
:103CE000222309F4AFCF2150ABCF992319F09130A3
:103CF00009F0BCCF10925422B9CFDB018F939F9370
:103D000041D0BF91AF91A29F800D911DA39F900DB7
:103D1000B29F900D11240895AA1BBB1B51E107C04F
:103D2000AA1FBB1FA617B70710F0A61BB70B881F4B
:103D3000991F5A95A9F780959095BC01CD010895DA
:103D4000A1E21A2EAA1BBB1BFD010DC0AA1FBB1F9F
:103D5000EE1FFF1FA217B307E407F50720F0A21B11
:103D6000B30BE40BF50B661F771F881F991F1A947E
:103D700069F760957095809590959B01AC01BD01A8
:103D8000CF01089509D0A59F900DB49F900DA49FD9
:103D9000800D911D11240895A29FB001B39FC00111
:103DA000A39F700D811D1124911DB29F700D811D67
:103DB0001124911D0895FB01DC0102C001900D92B8
:0C3DC00041505040D8F70895F894FFCF10
:103DCC00D3065707CB054F06150799070D06910625
:103DDC0053057B05A3052B05A403A703AA03AD0379
:103DEC00B003B303B603B903BC03C803D403E003A5
:103DFC00EC03F80304041004F904060522042E0451
:103E0C0031043D044904550413051F056304B30430
:103E1C00E804EB04EE049703980399039A039B03BD
:103E2C009C039D039E039F03A003A103A203A30372
:103E3C00A603A903AC03AF03B203B503B803BB03DA
:103E4C00C703D303DF03EB03F70303040F041B04C3
:103E5C001E0421042D0430043C0448045404600462
:103E6C00610462046E04B504EA04ED045B225F2273
:103E7C00632267226B226F22732277227B227F229E
:103E8C00832287228B228F22932297229B229F228E
:103E9C00A322A722AB22AC22AD22AE22AF22B022AB
:103EAC00B122B222B322B422B522B622B722B82252
:103EBC00B922BA22BB22BC22BD22BE22BF22C02202
:103ECC00C1220100010001000100010001000100FC
:103EDC0001000100010001000100010001000100CE
:103EEC0001000100010001000100010001000100BE
:103EFC0001000100010001000100010001000100AE
:103F0C00010001000100010001000100010001009D
:103F1C000100010001000100444444444444444471
:103F2C000404040444444444444444440101010151
:103F3C000101010101010101010101010101010165
:103F4C00010101010701000200040008004000000B
:103F5C000100040F10100F100F1010132215221651
:103F6C00221722182219221A221B221C222022225A
:103F7C0022232201000100010001000100010001C7
:103F8C00000100010001000100010001000100011D
:103F9C00000100010001000100010001000100010D
:103FAC0000010001000100020101010101010104F5
:103FBC000201010181028204844401810282048491
:023FCC004400AF
:00000001FF
